{"abi":[{"type":"constructor","inputs":[],"stateMutability":"nonpayable"},{"type":"function","name":"DEFAULT_ADMIN_ROLE","inputs":[],"outputs":[{"name":"","type":"bytes32","internalType":"bytes32"}],"stateMutability":"view"},{"type":"function","name":"MANAGER_ROLE","inputs":[],"outputs":[{"name":"","type":"bytes32","internalType":"bytes32"}],"stateMutability":"view"},{"type":"function","name":"UPGRADE_INTERFACE_VERSION","inputs":[],"outputs":[{"name":"","type":"string","internalType":"string"}],"stateMutability":"view"},{"type":"function","name":"addManager","inputs":[{"name":"newManager","type":"address","internalType":"address"}],"outputs":[],"stateMutability":"nonpayable"},{"type":"function","name":"allocations","inputs":[{"name":"","type":"uint256","internalType":"uint256"}],"outputs":[{"name":"amount","type":"uint256","internalType":"uint256"},{"name":"beneficiary","type":"address","internalType":"address"},{"name":"revoked","type":"bool","internalType":"bool"}],"stateMutability":"view"},{"type":"function","name":"beneficiaryAllocations","inputs":[{"name":"","type":"address","internalType":"address"},{"name":"","type":"uint256","internalType":"uint256"}],"outputs":[{"name":"","type":"uint256","internalType":"uint256"}],"stateMutability":"view"},{"type":"function","name":"createAllocation","inputs":[{"name":"beneficiary","type":"address","internalType":"address"},{"name":"amount","type":"uint256","internalType":"uint256"}],"outputs":[{"name":"","type":"uint256","internalType":"uint256"}],"stateMutability":"nonpayable"},{"type":"function","name":"executeAirdrop","inputs":[{"name":"beneficiaries","type":"address[]","internalType":"address[]"},{"name":"amounts","type":"uint256[]","internalType":"uint256[]"}],"outputs":[{"name":"","type":"uint256","internalType":"uint256"}],"stateMutability":"nonpayable"},{"type":"function","name":"getAllManagers","inputs":[],"outputs":[{"name":"","type":"address[]","internalType":"address[]"}],"stateMutability":"view"},{"type":"function","name":"getAllocationById","inputs":[{"name":"allocationId","type":"uint256","internalType":"uint256"}],"outputs":[{"name":"amount","type":"uint256","internalType":"uint256"},{"name":"beneficiary","type":"address","internalType":"address"},{"name":"revoked","type":"bool","internalType":"bool"}],"stateMutability":"view"},{"type":"function","name":"getAllocationsForBeneficiary","inputs":[{"name":"beneficiary","type":"address","internalType":"address"}],"outputs":[{"name":"","type":"uint256[]","internalType":"uint256[]"}],"stateMutability":"view"},{"type":"function","name":"getRoleAdmin","inputs":[{"name":"role","type":"bytes32","internalType":"bytes32"}],"outputs":[{"name":"","type":"bytes32","internalType":"bytes32"}],"stateMutability":"view"},{"type":"function","name":"grantRole","inputs":[{"name":"role","type":"bytes32","internalType":"bytes32"},{"name":"account","type":"address","internalType":"address"}],"outputs":[],"stateMutability":"nonpayable"},{"type":"function","name":"hasRole","inputs":[{"name":"role","type":"bytes32","internalType":"bytes32"},{"name":"account","type":"address","internalType":"address"}],"outputs":[{"name":"","type":"bool","internalType":"bool"}],"stateMutability":"view"},{"type":"function","name":"initialize","inputs":[{"name":"_ttnToken","type":"address","internalType":"address"}],"outputs":[],"stateMutability":"nonpayable"},{"type":"function","name":"isManager","inputs":[{"name":"account","type":"address","internalType":"address"}],"outputs":[{"name":"","type":"bool","internalType":"bool"}],"stateMutability":"view"},{"type":"function","name":"pause","inputs":[],"outputs":[],"stateMutability":"nonpayable"},{"type":"function","name":"paused","inputs":[],"outputs":[{"name":"","type":"bool","internalType":"bool"}],"stateMutability":"view"},{"type":"function","name":"proxiableUUID","inputs":[],"outputs":[{"name":"","type":"bytes32","internalType":"bytes32"}],"stateMutability":"view"},{"type":"function","name":"reduceAllocation","inputs":[{"name":"allocationId","type":"uint256","internalType":"uint256"},{"name":"amount","type":"uint256","internalType":"uint256"}],"outputs":[{"name":"","type":"bool","internalType":"bool"}],"stateMutability":"nonpayable"},{"type":"function","name":"removeManager","inputs":[{"name":"manager","type":"address","internalType":"address"}],"outputs":[],"stateMutability":"nonpayable"},{"type":"function","name":"renounceRole","inputs":[{"name":"role","type":"bytes32","internalType":"bytes32"},{"name":"callerConfirmation","type":"address","internalType":"address"}],"outputs":[],"stateMutability":"nonpayable"},{"type":"function","name":"revokeAllocation","inputs":[{"name":"allocationId","type":"uint256","internalType":"uint256"}],"outputs":[{"name":"","type":"bool","internalType":"bool"}],"stateMutability":"nonpayable"},{"type":"function","name":"revokeRole","inputs":[{"name":"role","type":"bytes32","internalType":"bytes32"},{"name":"account","type":"address","internalType":"address"}],"outputs":[],"stateMutability":"nonpayable"},{"type":"function","name":"supportsInterface","inputs":[{"name":"interfaceId","type":"bytes4","internalType":"bytes4"}],"outputs":[{"name":"","type":"bool","internalType":"bool"}],"stateMutability":"view"},{"type":"function","name":"ttnToken","inputs":[],"outputs":[{"name":"","type":"address","internalType":"contract ITTNToken"}],"stateMutability":"view"},{"type":"function","name":"unpause","inputs":[],"outputs":[],"stateMutability":"nonpayable"},{"type":"function","name":"upgradeToAndCall","inputs":[{"name":"newImplementation","type":"address","internalType":"address"},{"name":"data","type":"bytes","internalType":"bytes"}],"outputs":[],"stateMutability":"payable"},{"type":"function","name":"vestingManagerAddress","inputs":[],"outputs":[{"name":"","type":"address","internalType":"address"}],"stateMutability":"view"},{"type":"event","name":"AirdropExecuted","inputs":[{"name":"beneficiaries","type":"address[]","indexed":false,"internalType":"address[]"},{"name":"amounts","type":"uint256[]","indexed":false,"internalType":"uint256[]"},{"name":"airdropId","type":"uint256","indexed":false,"internalType":"uint256"}],"anonymous":false},{"type":"event","name":"AllocationCreated","inputs":[{"name":"beneficiary","type":"address","indexed":true,"internalType":"address"},{"name":"amount","type":"uint256","indexed":false,"internalType":"uint256"},{"name":"allocationId","type":"uint256","indexed":false,"internalType":"uint256"}],"anonymous":false},{"type":"event","name":"AllocationRevoked","inputs":[{"name":"beneficiary","type":"address","indexed":true,"internalType":"address"},{"name":"amount","type":"uint256","indexed":false,"internalType":"uint256"},{"name":"allocationId","type":"uint256","indexed":false,"internalType":"uint256"}],"anonymous":false},{"type":"event","name":"Initialized","inputs":[{"name":"version","type":"uint64","indexed":false,"internalType":"uint64"}],"anonymous":false},{"type":"event","name":"ManagerAssigned","inputs":[{"name":"manager","type":"address","indexed":true,"internalType":"address"}],"anonymous":false},{"type":"event","name":"ManagerRemoved","inputs":[{"name":"manager","type":"address","indexed":true,"internalType":"address"}],"anonymous":false},{"type":"event","name":"Paused","inputs":[{"name":"account","type":"address","indexed":false,"internalType":"address"}],"anonymous":false},{"type":"event","name":"RoleAdminChanged","inputs":[{"name":"role","type":"bytes32","indexed":true,"internalType":"bytes32"},{"name":"previousAdminRole","type":"bytes32","indexed":true,"internalType":"bytes32"},{"name":"newAdminRole","type":"bytes32","indexed":true,"internalType":"bytes32"}],"anonymous":false},{"type":"event","name":"RoleGranted","inputs":[{"name":"role","type":"bytes32","indexed":true,"internalType":"bytes32"},{"name":"account","type":"address","indexed":true,"internalType":"address"},{"name":"sender","type":"address","indexed":true,"internalType":"address"}],"anonymous":false},{"type":"event","name":"RoleRevoked","inputs":[{"name":"role","type":"bytes32","indexed":true,"internalType":"bytes32"},{"name":"account","type":"address","indexed":true,"internalType":"address"},{"name":"sender","type":"address","indexed":true,"internalType":"address"}],"anonymous":false},{"type":"event","name":"Unpaused","inputs":[{"name":"account","type":"address","indexed":false,"internalType":"address"}],"anonymous":false},{"type":"event","name":"Upgraded","inputs":[{"name":"implementation","type":"address","indexed":true,"internalType":"address"}],"anonymous":false},{"type":"error","name":"AccessControlBadConfirmation","inputs":[]},{"type":"error","name":"AccessControlUnauthorizedAccount","inputs":[{"name":"account","type":"address","internalType":"address"},{"name":"neededRole","type":"bytes32","internalType":"bytes32"}]},{"type":"error","name":"AddressEmptyCode","inputs":[{"name":"target","type":"address","internalType":"address"}]},{"type":"error","name":"AllocationAlreadyRevoked","inputs":[]},{"type":"error","name":"ArraysLengthMismatch","inputs":[]},{"type":"error","name":"CannotAddSelf","inputs":[]},{"type":"error","name":"CannotRemoveSelf","inputs":[]},{"type":"error","name":"DuplicateBeneficiary","inputs":[]},{"type":"error","name":"ERC1967InvalidImplementation","inputs":[{"name":"implementation","type":"address","internalType":"address"}]},{"type":"error","name":"ERC1967NonPayable","inputs":[]},{"type":"error","name":"EmptyBeneficiariesList","inputs":[]},{"type":"error","name":"EnforcedPause","inputs":[]},{"type":"error","name":"ExpectedPause","inputs":[]},{"type":"error","name":"FailedCall","inputs":[]},{"type":"error","name":"InvalidAddress","inputs":[]},{"type":"error","name":"InvalidAllocationId","inputs":[]},{"type":"error","name":"InvalidAmount","inputs":[]},{"type":"error","name":"InvalidAmountInBatch","inputs":[]},{"type":"error","name":"InvalidBeneficiary","inputs":[]},{"type":"error","name":"InvalidBeneficiaryInBatch","inputs":[]},{"type":"error","name":"InvalidInitialization","inputs":[]},{"type":"error","name":"NotAuthorized","inputs":[]},{"type":"error","name":"NotInitializing","inputs":[]},{"type":"error","name":"ReentrancyGuardReentrantCall","inputs":[]},{"type":"error","name":"TransferFailed","inputs":[]},{"type":"error","name":"UUPSUnauthorizedCallContext","inputs":[]},{"type":"error","name":"UUPSUnsupportedProxiableUUID","inputs":[{"name":"slot","type":"bytes32","internalType":"bytes32"}]},{"type":"error","name":"ZeroAddress","inputs":[{"name":"param","type":"string","internalType":"string"}]}],"bytecode":{"object":"0x60a060405230608052348015610013575f5ffd5b5061001c610021565b6100d3565b7ff0c57e16840df040f15088dc2f81fe391c3923bec73e23a9662efc9c229c6a00805468010000000000000000900460ff16156100715760405163f92ee8a960e01b815260040160405180910390fd5b80546001600160401b03908116146100d05780546001600160401b0319166001600160401b0390811782556040519081527fc7f505b2f371ae2175ee4913f4499e1f2633a7b5936321eed1cdaeb6115181d29060200160405180910390a15b50565b6080516120a86100f95f395f81816116b8015281816116e1015261182401526120a85ff3fe6080604052600436106101ba575f3560e01c80637d06a9f1116100f2578063ad3cb1cc11610092578063d77a52e511610062578063d77a52e51461058b578063e6671871146105a9578063ec87621c146105ca578063f3ae2415146105ea575f5ffd5b8063ad3cb1cc146104f1578063b02178621461052e578063c4d66de81461054d578063d547741f1461056c575f5ffd5b806391d14854116100cd57806391d14854146104815780639d2f6258146104a0578063a217fddf146104bf578063ac18de43146104d2575f5ffd5b80637d06a9f1146104225780637ffb452f146104415780638456cb591461046d575f5ffd5b806336568abe1161015d5780634f1ef286116101385780634f1ef286146103b957806352d1902d146103cc5780635c975abb146103e0578063788c2b2b14610403575f5ffd5b806336568abe1461034f5780633c91e5351461036e5780633f4ba83a146103a5575f5ffd5b806320d5eb701161019857806320d5eb701461027d578063248a9ca3146102e25780632d06177a1461030f5780632f2ff15d14610330575f5ffd5b806301ffc9a7146101be5780630437e2bf146101f25780630a2642bf14610211575b5f5ffd5b3480156101c9575f5ffd5b506101dd6101d8366004611b99565b610609565b60405190151581526020015b60405180910390f35b3480156101fd575f5ffd5b506101dd61020c366004611bc0565b61063f565b34801561021c575f5ffd5b5061025861022b366004611bc0565b60376020525f9081526040902080546001909101546001600160a01b03811690600160a01b900460ff1683565b604080519384526001600160a01b0390921660208401521515908201526060016101e9565b348015610288575f5ffd5b50610258610297366004611bc0565b5f90815260376020908152604091829020825160608101845281548082526001909201546001600160a01b038116938201849052600160a01b900460ff161515930183905292909190565b3480156102ed575f5ffd5b506103016102fc366004611bc0565b610775565b6040519081526020016101e9565b34801561031a575f5ffd5b5061032e610329366004611bed565b610795565b005b34801561033b575f5ffd5b5061032e61034a366004611c06565b6108d9565b34801561035a575f5ffd5b5061032e610369366004611c06565b6108fb565b348015610379575f5ffd5b5060015461038d906001600160a01b031681565b6040516001600160a01b0390911681526020016101e9565b3480156103b0575f5ffd5b5061032e610933565b61032e6103c7366004611c44565b610945565b3480156103d7575f5ffd5b50610301610964565b3480156103eb575f5ffd5b505f5160206120335f395f51905f525460ff166101dd565b34801561040e575f5ffd5b5061030161041d366004611d08565b61097f565b34801561042d575f5ffd5b5061030161043c366004611d78565b610b10565b34801561044c575f5ffd5b5061046061045b366004611bed565b610e8a565b6040516101e99190611de4565b348015610478575f5ffd5b5061032e610ef3565b34801561048c575f5ffd5b506101dd61049b366004611c06565b610f05565b3480156104ab575f5ffd5b506101dd6104ba366004611e26565b610f3b565b3480156104ca575f5ffd5b506103015f81565b3480156104dd575f5ffd5b5061032e6104ec366004611bed565b6110b1565b3480156104fc575f5ffd5b50610521604051806040016040528060058152602001640352e302e360dc1b81525081565b6040516101e99190611e46565b348015610539575f5ffd5b50610301610548366004611d08565b61128f565b348015610558575f5ffd5b5061032e610567366004611bed565b6112ba565b348015610577575f5ffd5b5061032e610586366004611c06565b61143c565b348015610596575f5ffd5b505f5461038d906001600160a01b031681565b3480156105b4575f5ffd5b506105bd611458565b6040516101e99190611e7b565b3480156105d5575f5ffd5b506103015f516020611ff35f395f51905f5281565b3480156105f5575f5ffd5b506101dd610604366004611bed565b6114b8565b5f6001600160e01b03198216637965db0b60e01b148061063957506301ffc9a760e01b6001600160e01b03198316145b92915050565b5f6106486114e0565b61065f5f516020611ff35f395f51905f5233610f05565b15801561067357506106715f33610f05565b155b156106915760405163ea8e4eb560e01b815260040160405180910390fd5b81158061069f575060035482115b156106bd5760405163539fd13f60e01b815260040160405180910390fd5b5f8281526037602052604090206001810154600160a01b900460ff16156106f75760405163d1ba89a160e01b815260040160405180910390fd5b600181018054600160a01b60ff60a01b19821617909155815460408051918252602082018690526001600160a01b03909216917f22b5b8d9c2333ceba3cb318ed232eab23c41fc1d0982837163b31da2481f99d1910160405180910390a2600191505061077060015f5160206120535f395f51905f5255565b919050565b5f9081525f5160206120135f395f51905f52602052604090206001015490565b6107ac5f516020611ff35f395f51905f5233610f05565b1580156107c057506107be5f33610f05565b155b156107de5760405163ea8e4eb560e01b815260040160405180910390fd5b6001600160a01b0381166108055760405163e6c4247b60e01b815260040160405180910390fd5b336001600160a01b0382160361082e57604051634adf4c3560e01b815260040160405180910390fd5b6108455f516020611ff35f395f51905f5282610f05565b6108d6576108605f516020611ff35f395f51905f528261152a565b50600280546001810182555f9182527f405787fa12a823e0f2b7631cc41b3ba8828b3321ca811111fa75cd3aa3bb5ace0180546001600160a01b0319166001600160a01b03841690811790915560405190917f38df1bd3c36a1220b3188069bf566441234d3974d04571a6ac191eb9ad08f1a491a25b50565b6108e282610775565b6108eb816115cb565b6108f5838361152a565b50505050565b6001600160a01b03811633146109245760405163334bd91960e11b815260040160405180910390fd5b61092e82826115d5565b505050565b5f61093d816115cb565b6108d661164e565b61094d6116ad565b61095682611753565b610960828261175d565b5050565b5f61096d611819565b505f516020611fd35f395f51905f5290565b5f610988611862565b6109906114e0565b6109a75f516020611ff35f395f51905f5233610f05565b1580156109bb57506109b95f33610f05565b155b156109d95760405163ea8e4eb560e01b815260040160405180910390fd5b6001600160a01b038316610a0057604051631559b7d760e21b815260040160405180910390fd5b5f8211610a205760405163162908e360e11b815260040160405180910390fd5b60038054905f610a2f83611ecf565b9091555050604080516060810182528381526001600160a01b0380861660208084018281525f858701818152600380548352603785528883209751885592516001978801805492511515600160a01b026001600160a81b031990931691909716171790945582845260388252858420815481549687018255908552919093209093019290925554915190917fd6bbcdd3b0489f54c1a7fabef3bac5b6a1b8b701f4bfcc7b3acff0fc901b514591610aee91868252602082015260400190565b60405180910390a25060035461063960015f5160206120535f395f51905f5255565b5f610b19611862565b610b216114e0565b610b385f516020611ff35f395f51905f5233610f05565b158015610b4c5750610b4a5f33610f05565b155b15610b6a5760405163ea8e4eb560e01b815260040160405180910390fd5b5f849003610b8b5760405163704c17ad60e01b815260040160405180910390fd5b838214610bab576040516307e11acb60e51b815260040160405180910390fd5b60048054905f610bba83611ecf565b909155505f90505b84811015610e26575f868683818110610bdd57610bdd611ee7565b9050602002016020810190610bf29190611bed565b6001600160a01b031603610c1957604051631559b7d760e21b815260040160405180910390fd5b838382818110610c2b57610c2b611ee7565b905060200201355f03610c51576040516372c4d34360e11b815260040160405180910390fd5b60038054905f610c6083611ecf565b91905055506040518060600160405280858584818110610c8257610c82611ee7565b905060200201358152602001878784818110610ca057610ca0611ee7565b9050602002016020810190610cb59190611bed565b6001600160a01b0390811682525f602092830181905260035481526037835260408082208551815593850151600194909401805495909101511515600160a01b026001600160a81b0319909516939092169290921792909217909155603890878784818110610d2657610d26611ee7565b9050602002016020810190610d3b9190611bed565b6001600160a01b03908116825260208083019390935260409091015f908120600354815460018101835591835293822001929092559054166340c10f19878784818110610d8a57610d8a611ee7565b9050602002016020810190610d9f9190611bed565b868685818110610db157610db1611ee7565b6040516001600160e01b031960e087901b1681526001600160a01b03909416600485015260200291909101356024830152506044015f604051808303815f87803b158015610dfd575f5ffd5b505af1158015610e0f573d5f5f3e3d5ffd5b505050508080610e1e90611ecf565b915050610bc2565b7f880226920609f09960cec58c8b49f1f27c2d31cbdc944090cf70cc4571dd4bfe86868686600454604051610e5f959493929190611efb565b60405180910390a15050600454610e8260015f5160206120535f395f51905f5255565b949350505050565b6001600160a01b0381165f90815260386020908152604091829020805483518184028101840190945280845260609392830182828015610ee757602002820191905f5260205f20905b815481526020019060010190808311610ed3575b50505050509050919050565b5f610efd816115cb565b6108d6611892565b5f9182525f5160206120135f395f51905f52602090815260408084206001600160a01b0393909316845291905290205460ff1690565b5f610f446114e0565b610f5b5f516020611ff35f395f51905f5233610f05565b158015610f6f5750610f6d5f33610f05565b155b15610f8d5760405163ea8e4eb560e01b815260040160405180910390fd5b821580610f9b575060035483115b15610fb95760405163539fd13f60e01b815260040160405180910390fd5b815f03610fd95760405163162908e360e11b815260040160405180910390fd5b5f8381526037602052604090206001810154600160a01b900460ff16156110135760405163d1ba89a160e01b815260040160405180910390fd5b80548311156110355760405163162908e360e11b815260040160405180910390fd5b82815f015f8282546110479190611f7e565b9091555050600181015460408051858152602081018790526001600160a01b03909216917f22b5b8d9c2333ceba3cb318ed232eab23c41fc1d0982837163b31da2481f99d1910160405180910390a2600191505061063960015f5160206120535f395f51905f5255565b6110c85f516020611ff35f395f51905f5233610f05565b1580156110dc57506110da5f33610f05565b155b156110fa5760405163ea8e4eb560e01b815260040160405180910390fd5b6001600160a01b0381166111215760405163e6c4247b60e01b815260040160405180910390fd5b336001600160a01b0382160361114a57604051635e03d55f60e01b815260040160405180910390fd5b6111615f516020611ff35f395f51905f52826115d5565b505f5b60025481101561125857816001600160a01b03166002828154811061118b5761118b611ee7565b5f918252602090912001546001600160a01b03160361125057600280546111b490600190611f7e565b815481106111c4576111c4611ee7565b5f91825260209091200154600280546001600160a01b0390921691839081106111ef576111ef611ee7565b905f5260205f20015f6101000a8154816001600160a01b0302191690836001600160a01b03160217905550600280548061122b5761122b611f91565b5f8281526020902081015f1990810180546001600160a01b0319169055019055611258565b600101611164565b506040516001600160a01b038216907fef69f7d97228658c92417be1b16b19058315de71fecb435d07b7d23728b6bd31905f90a250565b6038602052815f5260405f2081815481106112a8575f80fd5b905f5260205f20015f91509150505481565b5f6112c36118da565b805490915060ff600160401b820416159067ffffffffffffffff165f811580156112ea5750825b90505f8267ffffffffffffffff1660011480156113065750303b155b905081158015611314575080155b156113325760405163f92ee8a960e01b815260040160405180910390fd5b845467ffffffffffffffff19166001178555831561135c57845460ff60401b1916600160401b1785555b6001600160a01b0386166113a05760405163eac0d38960e01b81526020600482015260056024820152643a37b5b2b760d91b60448201526064015b60405180910390fd5b6113a8611902565b6113b0611902565b6113b8611902565b6113c061190a565b5f80546001600160a01b0319166001600160a01b0388161781556113e4903361152a565b505f6003819055600455831561143457845460ff60401b19168555604051600181527fc7f505b2f371ae2175ee4913f4499e1f2633a7b5936321eed1cdaeb6115181d29060200160405180910390a15b505050505050565b61144582610775565b61144e816115cb565b6108f583836115d5565b606060028054806020026020016040519081016040528092919081815260200182805480156114ae57602002820191905f5260205f20905b81546001600160a01b03168152600190910190602001808311611490575b5050505050905090565b5f6114c38183610f05565b8061063957506106395f516020611ff35f395f51905f5283610f05565b5f5160206120535f395f51905f5280546001190161151157604051633ee5aeb560e01b815260040160405180910390fd5b60029055565b60015f5160206120535f395f51905f5255565b5f5f5160206120135f395f51905f526115438484610f05565b6115c2575f848152602082815260408083206001600160a01b03871684529091529020805460ff191660011790556115783390565b6001600160a01b0316836001600160a01b0316857f2f8788117e7eff1d82e926ec794901d17c78024a50270940304540a733656f0d60405160405180910390a46001915050610639565b5f915050610639565b6108d6813361191a565b5f5f5160206120135f395f51905f526115ee8484610f05565b156115c2575f848152602082815260408083206001600160a01b0387168085529252808320805460ff1916905551339287917ff6391f5c32d9c69d2a47ea670b442974b53935d1edc7fd64eb21e047a839171b9190a46001915050610639565b611656611953565b5f5160206120335f395f51905f52805460ff191681557f5db9ee0a495bf2e6ff9c91a7834c1ba4fdd244a5e8aa4e537bd38aeae4b073aa335b6040516001600160a01b03909116815260200160405180910390a150565b306001600160a01b037f000000000000000000000000000000000000000000000000000000000000000016148061173357507f00000000000000000000000000000000000000000000000000000000000000006001600160a01b03166117275f516020611fd35f395f51905f52546001600160a01b031690565b6001600160a01b031614155b156117515760405163703e46dd60e11b815260040160405180910390fd5b565b5f610960816115cb565b816001600160a01b03166352d1902d6040518163ffffffff1660e01b8152600401602060405180830381865afa9250505080156117b7575060408051601f3d908101601f191682019092526117b491810190611fa5565b60015b6117df57604051634c9c8ce360e01b81526001600160a01b0383166004820152602401611397565b5f516020611fd35f395f51905f52811461180f57604051632a87526960e21b815260048101829052602401611397565b61092e8383611982565b306001600160a01b037f000000000000000000000000000000000000000000000000000000000000000016146117515760405163703e46dd60e11b815260040160405180910390fd5b5f5160206120335f395f51905f525460ff16156117515760405163d93c066560e01b815260040160405180910390fd5b61189a611862565b5f5160206120335f395f51905f52805460ff191660011781557f62e78cea01bee320cd4e420270b5ea74000d11b0c9f74754ebdbfc544b05a2583361168f565b5f807ff0c57e16840df040f15088dc2f81fe391c3923bec73e23a9662efc9c229c6a00610639565b6117516119d7565b6119126119d7565b6117516119fc565b6119248282610f05565b6109605760405163e2517d3f60e01b81526001600160a01b038216600482015260248101839052604401611397565b5f5160206120335f395f51905f525460ff1661175157604051638dfc202b60e01b815260040160405180910390fd5b61198b82611a04565b6040516001600160a01b038316907fbc7cd75a20ee27fd9adebab32041f755214dbc6bffa90cc0225b39da2e5c2d3b905f90a28051156119cf5761092e8282611a67565b610960611ad9565b6119df611af8565b61175157604051631afcd79f60e31b815260040160405180910390fd5b6115176119d7565b806001600160a01b03163b5f03611a3957604051634c9c8ce360e01b81526001600160a01b0382166004820152602401611397565b5f516020611fd35f395f51905f5280546001600160a01b0319166001600160a01b0392909216919091179055565b60605f5f846001600160a01b031684604051611a839190611fbc565b5f60405180830381855af49150503d805f8114611abb576040519150601f19603f3d011682016040523d82523d5f602084013e611ac0565b606091505b5091509150611ad0858383611b11565b95945050505050565b34156117515760405163b398979f60e01b815260040160405180910390fd5b5f611b016118da565b54600160401b900460ff16919050565b606082611b2657611b2182611b70565b611b69565b8151158015611b3d57506001600160a01b0384163b155b15611b6657604051639996b31560e01b81526001600160a01b0385166004820152602401611397565b50805b9392505050565b805115611b805780518082602001fd5b60405163d6bda27560e01b815260040160405180910390fd5b5f60208284031215611ba9575f5ffd5b81356001600160e01b031981168114611b69575f5ffd5b5f60208284031215611bd0575f5ffd5b5035919050565b80356001600160a01b0381168114610770575f5ffd5b5f60208284031215611bfd575f5ffd5b611b6982611bd7565b5f5f60408385031215611c17575f5ffd5b82359150611c2760208401611bd7565b90509250929050565b634e487b7160e01b5f52604160045260245ffd5b5f5f60408385031215611c55575f5ffd5b611c5e83611bd7565b9150602083013567ffffffffffffffff811115611c79575f5ffd5b8301601f81018513611c89575f5ffd5b803567ffffffffffffffff811115611ca357611ca3611c30565b604051601f8201601f19908116603f0116810167ffffffffffffffff81118282101715611cd257611cd2611c30565b604052818152828201602001871015611ce9575f5ffd5b816020840160208301375f602083830101528093505050509250929050565b5f5f60408385031215611d19575f5ffd5b611d2283611bd7565b946020939093013593505050565b5f5f83601f840112611d40575f5ffd5b50813567ffffffffffffffff811115611d57575f5ffd5b6020830191508360208260051b8501011115611d71575f5ffd5b9250929050565b5f5f5f5f60408587031215611d8b575f5ffd5b843567ffffffffffffffff811115611da1575f5ffd5b611dad87828801611d30565b909550935050602085013567ffffffffffffffff811115611dcc575f5ffd5b611dd887828801611d30565b95989497509550505050565b602080825282518282018190525f918401906040840190835b81811015611e1b578351835260209384019390920191600101611dfd565b509095945050505050565b5f5f60408385031215611e37575f5ffd5b50508035926020909101359150565b602081525f82518060208401528060208501604085015e5f604082850101526040601f19601f83011684010191505092915050565b602080825282518282018190525f918401906040840190835b81811015611e1b5783516001600160a01b0316835260209384019390920191600101611e94565b634e487b7160e01b5f52601160045260245ffd5b5f60018201611ee057611ee0611ebb565b5060010190565b634e487b7160e01b5f52603260045260245ffd5b606080825281018590525f8660808301825b88811015611f3b576001600160a01b03611f2684611bd7565b16825260209283019290910190600101611f0d565b5083810360208501528581526001600160fb1b03861115611f5a575f5ffd5b8560051b915081876020830137604093909301939093525001602001949350505050565b8181038181111561063957610639611ebb565b634e487b7160e01b5f52603160045260245ffd5b5f60208284031215611fb5575f5ffd5b5051919050565b5f82518060208501845e5f92019182525091905056fe360894a13ba1a3210667c828492db98dca3e2076cc3735a920a3ca505d382bbc241ecf16d79d0f8dbfb92cbc07fe17840425976cf0667f022fe9877caa831b0802dd7bc7dec4dceedda775e58dd541e08a116c6c53815c0bd028192f7b626800cd5ed15c6e187e77e9aee88184c21f4f2182ab5827cb3b7e07fbedcd63f033009b779b17422d0df92223018b32b4d1fa46e071723d6817e2486d003becc55f00a2646970667358221220e120d846234007788dbfe81ca11d0f695aecc2671ab4c59790be9b933bd8a9c264736f6c634300081c0033","linkReferences":{}},"methodIdentifiers":{"DEFAULT_ADMIN_ROLE()":"a217fddf","MANAGER_ROLE()":"ec87621c","UPGRADE_INTERFACE_VERSION()":"ad3cb1cc","addManager(address)":"2d06177a","allocations(uint256)":"0a2642bf","beneficiaryAllocations(address,uint256)":"b0217862","createAllocation(address,uint256)":"788c2b2b","executeAirdrop(address[],uint256[])":"7d06a9f1","getAllManagers()":"e6671871","getAllocationById(uint256)":"20d5eb70","getAllocationsForBeneficiary(address)":"7ffb452f","getRoleAdmin(bytes32)":"248a9ca3","grantRole(bytes32,address)":"2f2ff15d","hasRole(bytes32,address)":"91d14854","initialize(address)":"c4d66de8","isManager(address)":"f3ae2415","pause()":"8456cb59","paused()":"5c975abb","proxiableUUID()":"52d1902d","reduceAllocation(uint256,uint256)":"9d2f6258","removeManager(address)":"ac18de43","renounceRole(bytes32,address)":"36568abe","revokeAllocation(uint256)":"0437e2bf","revokeRole(bytes32,address)":"d547741f","supportsInterface(bytes4)":"01ffc9a7","ttnToken()":"d77a52e5","unpause()":"3f4ba83a","upgradeToAndCall(address,bytes)":"4f1ef286","vestingManagerAddress()":"3c91e535"},"id":1}