{"abi":[{"type":"function","name":"DEFAULT_ADMIN_ROLE","inputs":[],"outputs":[{"name":"","type":"bytes32","internalType":"bytes32"}],"stateMutability":"view"},{"type":"function","name":"UPGRADE_INTERFACE_VERSION","inputs":[],"outputs":[{"name":"","type":"string","internalType":"string"}],"stateMutability":"view"},{"type":"function","name":"beneficiarySchedules","inputs":[{"name":"","type":"address","internalType":"address"},{"name":"","type":"uint256","internalType":"uint256"}],"outputs":[{"name":"","type":"uint256","internalType":"uint256"}],"stateMutability":"view"},{"type":"function","name":"claimVestedTokens","inputs":[{"name":"scheduleId","type":"uint256","internalType":"uint256"}],"outputs":[{"name":"","type":"uint256","internalType":"uint256"}],"stateMutability":"nonpayable"},{"type":"function","name":"createVestingSchedule","inputs":[{"name":"beneficiary","type":"address","internalType":"address"},{"name":"totalAmount","type":"uint256","internalType":"uint256"},{"name":"startTime","type":"uint256","internalType":"uint256"},{"name":"cliffDuration","type":"uint256","internalType":"uint256"},{"name":"duration","type":"uint256","internalType":"uint256"},{"name":"allocationId","type":"uint256","internalType":"uint256"}],"outputs":[{"name":"","type":"uint256","internalType":"uint256"}],"stateMutability":"nonpayable"},{"type":"function","name":"createVestingScheduleV2","inputs":[{"name":"beneficiary","type":"address","internalType":"address"},{"name":"amount","type":"uint256","internalType":"uint256"},{"name":"startTime","type":"uint256","internalType":"uint256"},{"name":"cliffDuration","type":"uint256","internalType":"uint256"},{"name":"duration","type":"uint256","internalType":"uint256"},{"name":"slicePeriodSeconds","type":"uint256","internalType":"uint256"}],"outputs":[{"name":"","type":"uint256","internalType":"uint256"}],"stateMutability":"nonpayable"},{"type":"function","name":"getClaimedTokens","inputs":[],"outputs":[{"name":"totalClaimed","type":"uint256","internalType":"uint256"}],"stateMutability":"view"},{"type":"function","name":"getRoleAdmin","inputs":[{"name":"role","type":"bytes32","internalType":"bytes32"}],"outputs":[{"name":"","type":"bytes32","internalType":"bytes32"}],"stateMutability":"view"},{"type":"function","name":"getSchedulesForBeneficiary","inputs":[{"name":"beneficiary","type":"address","internalType":"address"}],"outputs":[{"name":"","type":"uint256[]","internalType":"uint256[]"}],"stateMutability":"view"},{"type":"function","name":"getTotalVestedV2","inputs":[],"outputs":[{"name":"","type":"uint256","internalType":"uint256"}],"stateMutability":"view"},{"type":"function","name":"getVersion","inputs":[],"outputs":[{"name":"","type":"uint256","internalType":"uint256"}],"stateMutability":"view"},{"type":"function","name":"getVestedToken","inputs":[],"outputs":[{"name":"totalVested","type":"uint256","internalType":"uint256"}],"stateMutability":"view"},{"type":"function","name":"getVestingInfo","inputs":[{"name":"scheduleId","type":"uint256","internalType":"uint256"}],"outputs":[{"name":"totalAmount","type":"uint256","internalType":"uint256"},{"name":"releasedAmount","type":"uint256","internalType":"uint256"},{"name":"releasableAmount","type":"uint256","internalType":"uint256"},{"name":"remainingAmount","type":"uint256","internalType":"uint256"},{"name":"nextUnlockTime","type":"uint256","internalType":"uint256"}],"stateMutability":"view"},{"type":"function","name":"getVestingSchedule","inputs":[{"name":"scheduleId","type":"uint256","internalType":"uint256"}],"outputs":[{"name":"","type":"tuple","internalType":"struct VestingManager.VestingSchedule","components":[{"name":"totalAmount","type":"uint256","internalType":"uint256"},{"name":"startTime","type":"uint256","internalType":"uint256"},{"name":"cliffDuration","type":"uint256","internalType":"uint256"},{"name":"duration","type":"uint256","internalType":"uint256"},{"name":"releasedAmount","type":"uint256","internalType":"uint256"},{"name":"createdAt","type":"uint256","internalType":"uint256"},{"name":"allocationId","type":"uint256","internalType":"uint256"},{"name":"beneficiary","type":"address","internalType":"address"},{"name":"revoked","type":"bool","internalType":"bool"}]}],"stateMutability":"view"},{"type":"function","name":"grantRole","inputs":[{"name":"role","type":"bytes32","internalType":"bytes32"},{"name":"account","type":"address","internalType":"address"}],"outputs":[],"stateMutability":"nonpayable"},{"type":"function","name":"hasRole","inputs":[{"name":"role","type":"bytes32","internalType":"bytes32"},{"name":"account","type":"address","internalType":"address"}],"outputs":[{"name":"","type":"bool","internalType":"bool"}],"stateMutability":"view"},{"type":"function","name":"initialize","inputs":[{"name":"_ttnToken","type":"address","internalType":"address"},{"name":"_tokenVault","type":"address","internalType":"address"},{"name":"_admin","type":"address","internalType":"address"}],"outputs":[],"stateMutability":"nonpayable"},{"type":"function","name":"initializeV2","inputs":[],"outputs":[],"stateMutability":"nonpayable"},{"type":"function","name":"manualUnlock","inputs":[{"name":"scheduleId","type":"uint256","internalType":"uint256"},{"name":"amount","type":"uint256","internalType":"uint256"}],"outputs":[{"name":"","type":"bool","internalType":"bool"}],"stateMutability":"nonpayable"},{"type":"function","name":"pause","inputs":[],"outputs":[],"stateMutability":"nonpayable"},{"type":"function","name":"paused","inputs":[],"outputs":[{"name":"","type":"bool","internalType":"bool"}],"stateMutability":"view"},{"type":"function","name":"proxiableUUID","inputs":[],"outputs":[{"name":"","type":"bytes32","internalType":"bytes32"}],"stateMutability":"view"},{"type":"function","name":"renounceRole","inputs":[{"name":"role","type":"bytes32","internalType":"bytes32"},{"name":"callerConfirmation","type":"address","internalType":"address"}],"outputs":[],"stateMutability":"nonpayable"},{"type":"function","name":"revokeRole","inputs":[{"name":"role","type":"bytes32","internalType":"bytes32"},{"name":"account","type":"address","internalType":"address"}],"outputs":[],"stateMutability":"nonpayable"},{"type":"function","name":"revokeSchedule","inputs":[{"name":"scheduleId","type":"uint256","internalType":"uint256"}],"outputs":[{"name":"","type":"uint256","internalType":"uint256"}],"stateMutability":"nonpayable"},{"type":"function","name":"supportsInterface","inputs":[{"name":"interfaceId","type":"bytes4","internalType":"bytes4"}],"outputs":[{"name":"","type":"bool","internalType":"bool"}],"stateMutability":"view"},{"type":"function","name":"tokenVault","inputs":[],"outputs":[{"name":"","type":"address","internalType":"contract ITokenVault"}],"stateMutability":"view"},{"type":"function","name":"totalVestedV2","inputs":[],"outputs":[{"name":"","type":"uint256","internalType":"uint256"}],"stateMutability":"view"},{"type":"function","name":"ttnToken","inputs":[],"outputs":[{"name":"","type":"address","internalType":"contract ITTNToken"}],"stateMutability":"view"},{"type":"function","name":"unpause","inputs":[],"outputs":[],"stateMutability":"nonpayable"},{"type":"function","name":"upgradeToAndCall","inputs":[{"name":"newImplementation","type":"address","internalType":"address"},{"name":"data","type":"bytes","internalType":"bytes"}],"outputs":[],"stateMutability":"payable"},{"type":"function","name":"version","inputs":[],"outputs":[{"name":"","type":"uint256","internalType":"uint256"}],"stateMutability":"view"},{"type":"function","name":"vestingSchedules","inputs":[{"name":"","type":"uint256","internalType":"uint256"}],"outputs":[{"name":"totalAmount","type":"uint256","internalType":"uint256"},{"name":"startTime","type":"uint256","internalType":"uint256"},{"name":"cliffDuration","type":"uint256","internalType":"uint256"},{"name":"duration","type":"uint256","internalType":"uint256"},{"name":"releasedAmount","type":"uint256","internalType":"uint256"},{"name":"createdAt","type":"uint256","internalType":"uint256"},{"name":"allocationId","type":"uint256","internalType":"uint256"},{"name":"beneficiary","type":"address","internalType":"address"},{"name":"revoked","type":"bool","internalType":"bool"}],"stateMutability":"view"},{"type":"event","name":"Initialized","inputs":[{"name":"version","type":"uint64","indexed":false,"internalType":"uint64"}],"anonymous":false},{"type":"event","name":"ManagerAssigned","inputs":[{"name":"manager","type":"address","indexed":true,"internalType":"address"}],"anonymous":false},{"type":"event","name":"ManualUnlock","inputs":[{"name":"scheduleId","type":"uint256","indexed":true,"internalType":"uint256"},{"name":"beneficiary","type":"address","indexed":true,"internalType":"address"},{"name":"amount","type":"uint256","indexed":false,"internalType":"uint256"},{"name":"unlockInitiator","type":"address","indexed":true,"internalType":"address"}],"anonymous":false},{"type":"event","name":"Paused","inputs":[{"name":"account","type":"address","indexed":false,"internalType":"address"}],"anonymous":false},{"type":"event","name":"RoleAdminChanged","inputs":[{"name":"role","type":"bytes32","indexed":true,"internalType":"bytes32"},{"name":"previousAdminRole","type":"bytes32","indexed":true,"internalType":"bytes32"},{"name":"newAdminRole","type":"bytes32","indexed":true,"internalType":"bytes32"}],"anonymous":false},{"type":"event","name":"RoleGranted","inputs":[{"name":"role","type":"bytes32","indexed":true,"internalType":"bytes32"},{"name":"account","type":"address","indexed":true,"internalType":"address"},{"name":"sender","type":"address","indexed":true,"internalType":"address"}],"anonymous":false},{"type":"event","name":"RoleRevoked","inputs":[{"name":"role","type":"bytes32","indexed":true,"internalType":"bytes32"},{"name":"account","type":"address","indexed":true,"internalType":"address"},{"name":"sender","type":"address","indexed":true,"internalType":"address"}],"anonymous":false},{"type":"event","name":"ScheduleRevoked","inputs":[{"name":"scheduleId","type":"uint256","indexed":true,"internalType":"uint256"},{"name":"beneficiary","type":"address","indexed":true,"internalType":"address"},{"name":"remainingAmount","type":"uint256","indexed":false,"internalType":"uint256"}],"anonymous":false},{"type":"event","name":"TokensReleased","inputs":[{"name":"scheduleId","type":"uint256","indexed":true,"internalType":"uint256"},{"name":"beneficiary","type":"address","indexed":true,"internalType":"address"},{"name":"amount","type":"uint256","indexed":false,"internalType":"uint256"}],"anonymous":false},{"type":"event","name":"Unpaused","inputs":[{"name":"account","type":"address","indexed":false,"internalType":"address"}],"anonymous":false},{"type":"event","name":"Upgraded","inputs":[{"name":"implementation","type":"address","indexed":true,"internalType":"address"}],"anonymous":false},{"type":"event","name":"VestedTokensUpdated","inputs":[{"name":"totalVested","type":"uint256","indexed":false,"internalType":"uint256"},{"name":"totalClaimed","type":"uint256","indexed":false,"internalType":"uint256"}],"anonymous":false},{"type":"event","name":"VestingScheduleCreated","inputs":[{"name":"scheduleId","type":"uint256","indexed":true,"internalType":"uint256"},{"name":"beneficiary","type":"address","indexed":true,"internalType":"address"},{"name":"totalAmount","type":"uint256","indexed":false,"internalType":"uint256"},{"name":"startTime","type":"uint256","indexed":false,"internalType":"uint256"},{"name":"cliffDuration","type":"uint256","indexed":false,"internalType":"uint256"},{"name":"duration","type":"uint256","indexed":false,"internalType":"uint256"},{"name":"allocationId","type":"uint256","indexed":false,"internalType":"uint256"}],"anonymous":false},{"type":"error","name":"AccessControlBadConfirmation","inputs":[]},{"type":"error","name":"AccessControlUnauthorizedAccount","inputs":[{"name":"account","type":"address","internalType":"address"},{"name":"neededRole","type":"bytes32","internalType":"bytes32"}]},{"type":"error","name":"AddressEmptyCode","inputs":[{"name":"target","type":"address","internalType":"address"}]},{"type":"error","name":"AmountExceedsRemaining","inputs":[]},{"type":"error","name":"ArraysLengthMismatch","inputs":[]},{"type":"error","name":"CannotAddSelf","inputs":[]},{"type":"error","name":"CannotRemoveSelf","inputs":[]},{"type":"error","name":"ERC1967InvalidImplementation","inputs":[{"name":"implementation","type":"address","internalType":"address"}]},{"type":"error","name":"ERC1967NonPayable","inputs":[]},{"type":"error","name":"EmptyBeneficiariesList","inputs":[]},{"type":"error","name":"EnforcedPause","inputs":[]},{"type":"error","name":"ExpectedPause","inputs":[]},{"type":"error","name":"FailedCall","inputs":[]},{"type":"error","name":"InvalidAddress","inputs":[]},{"type":"error","name":"InvalidAmount","inputs":[]},{"type":"error","name":"InvalidAmountInBatch","inputs":[]},{"type":"error","name":"InvalidBeneficiary","inputs":[]},{"type":"error","name":"InvalidCliffDuration","inputs":[]},{"type":"error","name":"InvalidDuration","inputs":[]},{"type":"error","name":"InvalidInitialization","inputs":[]},{"type":"error","name":"InvalidScheduleId","inputs":[]},{"type":"error","name":"InvalidStartTime","inputs":[]},{"type":"error","name":"InvalidVestingId","inputs":[]},{"type":"error","name":"NoTokensDue","inputs":[]},{"type":"error","name":"NoTokensToRevoke","inputs":[]},{"type":"error","name":"NotAllocated","inputs":[]},{"type":"error","name":"NotAuthorized","inputs":[]},{"type":"error","name":"NotBeneficiary","inputs":[]},{"type":"error","name":"NotInitializing","inputs":[]},{"type":"error","name":"ReentrancyGuardReentrantCall","inputs":[]},{"type":"error","name":"ScheduledRevoked","inputs":[]},{"type":"error","name":"TransferFailed","inputs":[]},{"type":"error","name":"UUPSUnauthorizedCallContext","inputs":[]},{"type":"error","name":"UUPSUnsupportedProxiableUUID","inputs":[{"name":"slot","type":"bytes32","internalType":"bytes32"}]},{"type":"error","name":"VestingAlreadyRevoked","inputs":[]},{"type":"error","name":"ZeroAddress","inputs":[{"name":"param","type":"string","internalType":"string"}]}],"bytecode":{"object":"0x60a060405230608052348015610013575f5ffd5b5061001c610021565b6100d3565b7ff0c57e16840df040f15088dc2f81fe391c3923bec73e23a9662efc9c229c6a00805468010000000000000000900460ff16156100715760405163f92ee8a960e01b815260040160405180910390fd5b80546001600160401b03908116146100d05780546001600160401b0319166001600160401b0390811782556040519081527fc7f505b2f371ae2175ee4913f4499e1f2633a7b5936321eed1cdaeb6115181d29060200160405180910390a15b50565b6080516128e56100f95f395f8181611f3101528181611f5a015261209d01526128e55ff3fe6080604052600436106101e6575f3560e01c806369aedde211610108578063a68a06821161009d578063bfb13f401161006d578063bfb13f4014610665578063c0c53b8b14610684578063d4ac0701146106a3578063d547741f146106cf578063d77a52e5146106ee575f5ffd5b8063a68a06821461056b578063ad3cb1cc1461057f578063b915dec2146105bc578063beb8f883146105d0575f5ffd5b806391d14854116100d857806391d14854146104fb578063965772061461051a57806397d8f09d14610539578063a217fddf14610558575f5ffd5b806369aedde2146103f35780636d3cbe21146104075780637935510b146104c85780638456cb59146104e7575f5ffd5b80634c06c6ae1161017e5780635bc789d91161014e5780635bc789d9146103665780635c975abb1461039d5780635cd8a76b146103c057806362eb0604146103d4575f5ffd5b80634c06c6ae146103155780634f1ef2861461032a57806352d1902d1461033d57806354fd4d5014610351575f5ffd5b80632f2ff15d116101b95780632f2ff15d146102a257806336568abe146102c35780633f4ba83a146102e257806346ca4241146102f6575f5ffd5b806301ffc9a7146101ea5780630d8e6e2c1461021e57806320f6b0a91461023c578063248a9ca314610283575b5f5ffd5b3480156101f5575f5ffd5b50610209610204366004612450565b61070c565b60405190151581526020015b60405180910390f35b348015610229575f5ffd5b506039545b604051908152602001610215565b348015610247575f5ffd5b5061025b610256366004612477565b610742565b604080519586526020860194909452928401919091526060830152608082015260a001610215565b34801561028e575f5ffd5b5061022e61029d366004612477565b610820565b3480156102ad575f5ffd5b506102c16102bc3660046124a2565b610840565b005b3480156102ce575f5ffd5b506102c16102dd3660046124a2565b610862565b3480156102ed575f5ffd5b506102c161089a565b348015610301575f5ffd5b5061022e6103103660046124d0565b6108af565b348015610320575f5ffd5b5061022e603a5481565b6102c161033836600461250e565b6108da565b348015610348575f5ffd5b5061022e6108f9565b34801561035c575f5ffd5b5061022e60395481565b348015610371575f5ffd5b50600154610385906001600160a01b031681565b6040516001600160a01b039091168152602001610215565b3480156103a8575f5ffd5b505f5160206128705f395f51905f525460ff16610209565b3480156103cb575f5ffd5b506102c1610914565b3480156103df575f5ffd5b5061022e6103ee3660046125d4565b6109f0565b3480156103fe575f5ffd5b5060025461022e565b348015610412575f5ffd5b50610479610421366004612477565b600560208190525f91825260409091208054600182015460028301546003840154600485015495850154600686015460079096015494969395929491939290916001600160a01b03811690600160a01b900460ff1689565b60408051998a5260208a0198909852968801959095526060870193909352608086019190915260a085015260c08401526001600160a01b031660e0830152151561010082015261012001610215565b3480156104d3575f5ffd5b5061022e6104e2366004612477565b610e41565b3480156104f2575f5ffd5b506102c1611191565b348015610506575f5ffd5b506102096105153660046124a2565b6111a3565b348015610525575f5ffd5b5061022e610534366004612477565b6111d9565b348015610544575f5ffd5b5061020961055336600461261c565b61140b565b348015610563575f5ffd5b5061022e5f81565b348015610576575f5ffd5b50603a5461022e565b34801561058a575f5ffd5b506105af604051806040016040528060058152602001640352e302e360dc1b81525081565b604051610215919061263c565b3480156105c7575f5ffd5b5060035461022e565b3480156105db575f5ffd5b506105ef6105ea366004612477565b6117c6565b60405161021591905f61012082019050825182526020830151602083015260408301516040830152606083015160608301526080830151608083015260a083015160a083015260c083015160c083015260018060a01b0360e08401511660e0830152610100830151151561010083015292915050565b348015610670575f5ffd5b5061022e61067f3660046125d4565b6118cb565b34801561068f575f5ffd5b506102c161069e366004612671565b611a1d565b3480156106ae575f5ffd5b506106c26106bd3660046126b9565b611c26565b60405161021591906126d4565b3480156106da575f5ffd5b506102c16106e93660046124a2565b611c8f565b3480156106f9575f5ffd5b505f54610385906001600160a01b031681565b5f6001600160e01b03198216637965db0b60e01b148061073c57506301ffc9a760e01b6001600160e01b03198316145b92915050565b5f80808080851580610755575060045486115b1561077357604051630151be2560e11b815260040160405180910390fd5b5f86815260056020526040902061078987611cab565b8154600483015490975095509350836107a2868861272a565b6107ac919061272a565b9250806002015481600101546107c2919061273d565b4210156107e457806002015481600101546107dd919061273d565b9150610816565b806003015481600101546107f8919061273d565b4210610806575f9150610816565b610813426201518061273d565b91505b5091939590929450565b5f9081525f5160206128505f395f51905f52602052604090206001015490565b61084982610820565b61085281611da3565b61085c8383611dad565b50505050565b6001600160a01b038116331461088b5760405163334bd91960e11b815260040160405180910390fd5b6108958282611e4e565b505050565b5f6108a481611da3565b6108ac611ec7565b50565b6006602052815f5260405f2081815481106108c8575f80fd5b905f5260205f20015f91509150505481565b6108e2611f26565b6108eb82611fcc565b6108f58282611fd6565b5050565b5f610902612092565b505f5160206128305f395f51905f5290565b60025f61091f6120db565b8054909150600160401b900460ff16806109475750805467ffffffffffffffff808416911610155b156109655760405163f92ee8a960e01b815260040160405180910390fd5b805468ffffffffffffffffff191667ffffffffffffffff831617600160401b17815561098f612103565b610997612103565b61099f61210b565b6002603955805460ff60401b1916815560405167ffffffffffffffff831681527fc7f505b2f371ae2175ee4913f4499e1f2633a7b5936321eed1cdaeb6115181d29060200160405180910390a15050565b5f6109f961211b565b610a0161214b565b610a0b5f336111a3565b158015610a7f575060015460405163f3ae241560e01b81523360048201526001600160a01b039091169063f3ae241590602401602060405180830381865afa158015610a59573d5f5f3e3d5ffd5b505050506040513d601f19601f82011682018060405250810190610a7d919061275f565b155b15610a9d5760405163ea8e4eb560e01b815260040160405180910390fd5b6001600160a01b038716610ae75760405163eac0d38960e01b815260206004820152600b60248201526a62656e656669636961727960a81b60448201526064015b60405180910390fd5b855f03610b075760405163162908e360e11b815260040160405180910390fd5b825f03610b2757604051637616640160e01b815260040160405180910390fd5b83831015610b485760405163a9a2774960e01b815260040160405180910390fd5b42851015610b6957604051632ca4094f60e21b815260040160405180910390fd5b8115610c5a5760015460405163020d5eb760e41b8152600481018490525f91829182916001600160a01b0316906320d5eb7090602401606060405180830381865afa158015610bba573d5f5f3e3d5ffd5b505050506040513d601f19601f82011682018060405250810190610bde9190612778565b925092509250896001600160a01b0316826001600160a01b031614610c165760405163644d871f60e01b815260040160405180910390fd5b8015610c3557604051636c10193160e01b815260040160405180910390fd5b88831015610c565760405163162908e360e11b815260040160405180910390fd5b5050505b60048054905f610c69836127b4565b91905055506040518061012001604052808781526020018681526020018581526020018481526020015f8152602001428152602001838152602001886001600160a01b031681526020015f151581525060055f60045481526020019081526020015f205f820151815f01556020820151816001015560408201518160020155606082015181600301556080820151816004015560a0820151816005015560c0820151816006015560e0820151816007015f6101000a8154816001600160a01b0302191690836001600160a01b031602179055506101008201518160070160146101000a81548160ff02191690831515021790555090505060065f886001600160a01b03166001600160a01b031681526020019081526020015f20600454908060018154018082558091505060019003905f5260205f20015f90919091909150558560025f828254610dba919061273d565b9091555050600454604080518881526020810188905290810186905260608101859052608081018490526001600160a01b03891691907f59e90d00b7fcdc7bac5d802d9dde49e2f0f1a30ccd679123dc8903ee7e8638039060a00160405180910390a350600454610e3760015f5160206128905f395f51905f5255565b9695505050505050565b5f610e4a61211b565b610e5261214b565b811580610e60575060045482115b15610e7e57604051630151be2560e11b815260040160405180910390fd5b5f8281526005602052604090206007810154600160a01b900460ff1615610eb857604051631fd1ae9d60e31b815260040160405180910390fd5b60078101546001600160a01b03163314610ee55760405163644d871f60e01b815260040160405180910390fd5b5f610eef84611cab565b9050805f03610f115760405163ecb86b8b60e01b815260040160405180910390fd5b80826004015f828254610f24919061273d565b925050819055508060035f828254610f3c919061273d565b90915550505f5460078301546040516340c10f1960e01b81526001600160a01b039182166004820152602481018490529116906340c10f19906044015f604051808303815f87803b158015610f8f575f5ffd5b505af1158015610fa1573d5f5f3e3d5ffd5b505050506006820154156110c457600154600683015460405163020d5eb760e41b81525f9283926001600160a01b03909116916320d5eb7091610fea9160040190815260200190565b606060405180830381865afa158015611005573d5f5f3e3d5ffd5b505050506040513d601f19601f820116820180604052508101906110299190612778565b92505091508015801561103c5750828210155b156110c15760015460068501546040516313a5ec4b60e31b81526001600160a01b0390921691639d2f62589161107f918790600401918252602082015260400190565b6020604051808303815f875af115801561109b573d5f5f3e3d5ffd5b505050506040513d601f19601f820116820180604052508101906110bf919061275f565b505b50505b81546004830154106110e65760078201805460ff60a01b1916600160a01b1790555b60078201546040518281526001600160a01b039091169085907fa6c812047c4dc10f52f9e7943b1b3dfafae864d5e0d4ded081bbbde69dd6ff0d906020015b60405180910390a37f721a36e7774bb6e2095fedcbcad58dc7897a214046eaeccc9e5b6e4181e00c5260025460035460405161116b929190918252602082015260400190565b60405180910390a191505061118c60015f5160206128905f395f51905f5255565b919050565b5f61119b81611da3565b6108ac612195565b5f9182525f5160206128505f395f51905f52602090815260408084206001600160a01b0393909316845291905290205460ff1690565b5f6111e261214b565b6111ec5f336111a3565b158015611260575060015460405163f3ae241560e01b81523360048201526001600160a01b039091169063f3ae241590602401602060405180830381865afa15801561123a573d5f5f3e3d5ffd5b505050506040513d601f19601f8201168201806040525081019061125e919061275f565b155b1561127e5760405163ea8e4eb560e01b815260040160405180910390fd5b81158061128c575060045482115b156112aa57604051630151be2560e11b815260040160405180910390fd5b5f8281526005602052604090206007810154600160a01b900460ff16156112e457604051631fd1ae9d60e31b815260040160405180910390fd5b600481015481545f916112f69161272a565b9050805f0361131757604051629875a560e81b815260040160405180910390fd5b60078201805460ff60a01b1916600160a01b179055600280548291905f9061134090849061272a565b90915550506006820154156113c8576001546006830154604051630437e2bf60e01b81526001600160a01b0390921691630437e2bf916113869160040190815260200190565b6020604051808303815f875af11580156113a2573d5f5f3e3d5ffd5b505050506040513d601f19601f820116820180604052508101906113c6919061275f565b505b60078201546040518281526001600160a01b039091169085907fcfb0e1f97bc375d6b68398d705dac100573940a50fbf4a871c186ad55909cc8c90602001611125565b5f61141461214b565b61141e5f336111a3565b158015611492575060015460405163f3ae241560e01b81523360048201526001600160a01b039091169063f3ae241590602401602060405180830381865afa15801561146c573d5f5f3e3d5ffd5b505050506040513d601f19601f82011682018060405250810190611490919061275f565b155b156114b05760405163ea8e4eb560e01b815260040160405180910390fd5b8215806114be575060045483115b156114dc57604051630151be2560e11b815260040160405180910390fd5b815f036114fc5760405163162908e360e11b815260040160405180910390fd5b5f8381526005602052604090206007810154600160a01b900460ff161561153657604051631fd1ae9d60e31b815260040160405180910390fd5b600481015481545f916115489161272a565b90508084111561156b576040516320a98d5560e21b815260040160405180910390fd5b83826004015f82825461157e919061273d565b925050819055508360035f828254611596919061273d565b90915550505f5460078301546040516340c10f1960e01b81526001600160a01b039182166004820152602481018790529116906340c10f19906044015f604051808303815f87803b1580156115e9575f5ffd5b505af11580156115fb573d5f5f3e3d5ffd5b5050505060068201541561171e57600154600683015460405163020d5eb760e41b81525f9283926001600160a01b03909116916320d5eb70916116449160040190815260200190565b606060405180830381865afa15801561165f573d5f5f3e3d5ffd5b505050506040513d601f19601f820116820180604052508101906116839190612778565b9250509150801580156116965750858210155b1561171b5760015460068501546040516313a5ec4b60e31b81526001600160a01b0390921691639d2f6258916116d9918a90600401918252602082015260400190565b6020604051808303815f875af11580156116f5573d5f5f3e3d5ffd5b505050506040513d601f19601f82011682018060405250810190611719919061275f565b505b50505b600782015460405185815233916001600160a01b03169087907f66bfa9cf4e227081224b75efc3c11445e6b0311a4ca71917686f1008baedd2e49060200160405180910390a47f721a36e7774bb6e2095fedcbcad58dc7897a214046eaeccc9e5b6e4181e00c526002546003546040516117a2929190918252602082015260400190565b60405180910390a160019250505061073c60015f5160206128905f395f51905f5255565b6118176040518061012001604052805f81526020015f81526020015f81526020015f81526020015f81526020015f81526020015f81526020015f6001600160a01b031681526020015f151581525090565b811580611825575060045482115b1561184357604051630151be2560e11b815260040160405180910390fd5b505f908152600560208181526040928390208351610120810185528154815260018201549281019290925260028101549382019390935260038301546060820152600483015460808201529082015460a0820152600682015460c08201526007909101546001600160a01b03811660e0830152600160a01b900460ff16151561010082015290565b5f806118d681611da3565b6001600160a01b0388166119225760405162461bcd60e51b8152602060048201526013602482015272496e76616c69642062656e656669636961727960681b6044820152606401610ade565b5f87116119715760405162461bcd60e51b815260206004820152601d60248201527f416d6f756e74206d7573742062652067726561746572207468616e20300000006044820152606401610ade565b86603a5f828254611982919061273d565b90915550506040516318bac18160e21b81526001600160a01b03891660048201526024810188905260448101879052606481018690526084810185905260a4810184905230906362eb06049060c4016020604051808303815f875af11580156119ed573d5f5f3e3d5ffd5b505050506040513d601f19601f82011682018060405250810190611a1191906127cc565b98975050505050505050565b5f611a266120db565b805490915060ff600160401b820416159067ffffffffffffffff165f81158015611a4d5750825b90505f8267ffffffffffffffff166001148015611a695750303b155b905081158015611a77575080155b15611a955760405163f92ee8a960e01b815260040160405180910390fd5b845467ffffffffffffffff191660011785558315611abf57845460ff60401b1916600160401b1785555b6001600160a01b038816611afe5760405163eac0d38960e01b81526020600482015260056024820152643a37b5b2b760d91b6044820152606401610ade565b6001600160a01b038716611b3d5760405163eac0d38960e01b81526020600482015260056024820152641d985d5b1d60da1b6044820152606401610ade565b6001600160a01b038616611b7c5760405163eac0d38960e01b815260206004820152600560248201526430b236b4b760d91b6044820152606401610ade565b611b84612103565b611b8c612103565b611b94612103565b611b9c61210b565b5f80546001600160a01b03808b166001600160a01b031992831617835560018054918b1691909216179055611bd19087611dad565b505f6004558315611c1c57845460ff60401b19168555604051600181527fc7f505b2f371ae2175ee4913f4499e1f2633a7b5936321eed1cdaeb6115181d29060200160405180910390a15b5050505050505050565b6001600160a01b0381165f90815260066020908152604091829020805483518184028101840190945280845260609392830182828015611c8357602002820191905f5260205f20905b815481526020019060010190808311611c6f575b50505050509050919050565b611c9882610820565b611ca181611da3565b61085c8383611e4e565b5f811580611cba575060045482115b15611cd857604051630151be2560e11b815260040160405180910390fd5b5f8281526005602052604090206007810154600160a01b900460ff1615611d0157505f92915050565b80600201548160010154611d15919061273d565b421015611d2457505f92915050565b80600301548160010154611d38919061273d565b4210611d565760048101548154611d4f919061272a565b9392505050565b5f816001015442611d67919061272a565b90505f826003015482845f0154611d7e91906127e3565b611d8891906127fa565b9050826004015481611d9a919061272a565b95945050505050565b6108ac81336121dd565b5f5f5160206128505f395f51905f52611dc684846111a3565b611e45575f848152602082815260408083206001600160a01b03871684529091529020805460ff19166001179055611dfb3390565b6001600160a01b0316836001600160a01b0316857f2f8788117e7eff1d82e926ec794901d17c78024a50270940304540a733656f0d60405160405180910390a4600191505061073c565b5f91505061073c565b5f5f5160206128505f395f51905f52611e6784846111a3565b15611e45575f848152602082815260408083206001600160a01b0387168085529252808320805460ff1916905551339287917ff6391f5c32d9c69d2a47ea670b442974b53935d1edc7fd64eb21e047a839171b9190a4600191505061073c565b611ecf612216565b5f5160206128705f395f51905f52805460ff191681557f5db9ee0a495bf2e6ff9c91a7834c1ba4fdd244a5e8aa4e537bd38aeae4b073aa335b6040516001600160a01b03909116815260200160405180910390a150565b306001600160a01b037f0000000000000000000000000000000000000000000000000000000000000000161480611fac57507f00000000000000000000000000000000000000000000000000000000000000006001600160a01b0316611fa05f5160206128305f395f51905f52546001600160a01b031690565b6001600160a01b031614155b15611fca5760405163703e46dd60e11b815260040160405180910390fd5b565b5f6108f581611da3565b816001600160a01b03166352d1902d6040518163ffffffff1660e01b8152600401602060405180830381865afa925050508015612030575060408051601f3d908101601f1916820190925261202d918101906127cc565b60015b61205857604051634c9c8ce360e01b81526001600160a01b0383166004820152602401610ade565b5f5160206128305f395f51905f52811461208857604051632a87526960e21b815260048101829052602401610ade565b6108958383612245565b306001600160a01b037f00000000000000000000000000000000000000000000000000000000000000001614611fca5760405163703e46dd60e11b815260040160405180910390fd5b5f807ff0c57e16840df040f15088dc2f81fe391c3923bec73e23a9662efc9c229c6a0061073c565b611fca61229a565b61211361229a565b611fca6122bf565b5f5160206128705f395f51905f525460ff1615611fca5760405163d93c066560e01b815260040160405180910390fd5b5f5160206128905f395f51905f5280546001190161217c57604051633ee5aeb560e01b815260040160405180910390fd5b60029055565b60015f5160206128905f395f51905f5255565b61219d61211b565b5f5160206128705f395f51905f52805460ff191660011781557f62e78cea01bee320cd4e420270b5ea74000d11b0c9f74754ebdbfc544b05a25833611f08565b6121e782826111a3565b6108f55760405163e2517d3f60e01b81526001600160a01b038216600482015260248101839052604401610ade565b5f5160206128705f395f51905f525460ff16611fca57604051638dfc202b60e01b815260040160405180910390fd5b61224e826122c7565b6040516001600160a01b038316907fbc7cd75a20ee27fd9adebab32041f755214dbc6bffa90cc0225b39da2e5c2d3b905f90a280511561229257610895828261232a565b6108f5612393565b6122a26123b2565b611fca57604051631afcd79f60e31b815260040160405180910390fd5b61218261229a565b806001600160a01b03163b5f036122fc57604051634c9c8ce360e01b81526001600160a01b0382166004820152602401610ade565b5f5160206128305f395f51905f5280546001600160a01b0319166001600160a01b0392909216919091179055565b60605f5f846001600160a01b0316846040516123469190612819565b5f60405180830381855af49150503d805f811461237e576040519150601f19603f3d011682016040523d82523d5f602084013e612383565b606091505b5091509150611d9a8583836123cb565b3415611fca5760405163b398979f60e01b815260040160405180910390fd5b5f6123bb6120db565b54600160401b900460ff16919050565b6060826123e0576123db82612427565b611d4f565b81511580156123f757506001600160a01b0384163b155b1561242057604051639996b31560e01b81526001600160a01b0385166004820152602401610ade565b5092915050565b8051156124375780518082602001fd5b60405163d6bda27560e01b815260040160405180910390fd5b5f60208284031215612460575f5ffd5b81356001600160e01b031981168114611d4f575f5ffd5b5f60208284031215612487575f5ffd5b5035919050565b6001600160a01b03811681146108ac575f5ffd5b5f5f604083850312156124b3575f5ffd5b8235915060208301356124c58161248e565b809150509250929050565b5f5f604083850312156124e1575f5ffd5b82356124ec8161248e565b946020939093013593505050565b634e487b7160e01b5f52604160045260245ffd5b5f5f6040838503121561251f575f5ffd5b823561252a8161248e565b9150602083013567ffffffffffffffff811115612545575f5ffd5b8301601f81018513612555575f5ffd5b803567ffffffffffffffff81111561256f5761256f6124fa565b604051601f8201601f19908116603f0116810167ffffffffffffffff8111828210171561259e5761259e6124fa565b6040528181528282016020018710156125b5575f5ffd5b816020840160208301375f602083830101528093505050509250929050565b5f5f5f5f5f5f60c087890312156125e9575f5ffd5b86356125f48161248e565b9860208801359850604088013597606081013597506080810135965060a00135945092505050565b5f5f6040838503121561262d575f5ffd5b50508035926020909101359150565b602081525f82518060208401528060208501604085015e5f604082850101526040601f19601f83011684010191505092915050565b5f5f5f60608486031215612683575f5ffd5b833561268e8161248e565b9250602084013561269e8161248e565b915060408401356126ae8161248e565b809150509250925092565b5f602082840312156126c9575f5ffd5b8135611d4f8161248e565b602080825282518282018190525f918401906040840190835b8181101561270b5783518352602093840193909201916001016126ed565b509095945050505050565b634e487b7160e01b5f52601160045260245ffd5b8181038181111561073c5761073c612716565b8082018082111561073c5761073c612716565b8051801515811461118c575f5ffd5b5f6020828403121561276f575f5ffd5b611d4f82612750565b5f5f5f6060848603121561278a575f5ffd5b8351602085015190935061279d8161248e565b91506127ab60408501612750565b90509250925092565b5f600182016127c5576127c5612716565b5060010190565b5f602082840312156127dc575f5ffd5b5051919050565b808202811582820484141761073c5761073c612716565b5f8261281457634e487b7160e01b5f52601260045260245ffd5b500490565b5f82518060208501845e5f92019182525091905056fe360894a13ba1a3210667c828492db98dca3e2076cc3735a920a3ca505d382bbc02dd7bc7dec4dceedda775e58dd541e08a116c6c53815c0bd028192f7b626800cd5ed15c6e187e77e9aee88184c21f4f2182ab5827cb3b7e07fbedcd63f033009b779b17422d0df92223018b32b4d1fa46e071723d6817e2486d003becc55f00a2646970667358221220856aa866962166f580de3bd83759c0edd9bd667d1707397bff7fb5f1f1f4c76464736f6c634300081c0033","linkReferences":{}},"methodIdentifiers":{"DEFAULT_ADMIN_ROLE()":"a217fddf","UPGRADE_INTERFACE_VERSION()":"ad3cb1cc","beneficiarySchedules(address,uint256)":"46ca4241","claimVestedTokens(uint256)":"7935510b","createVestingSchedule(address,uint256,uint256,uint256,uint256,uint256)":"62eb0604","createVestingScheduleV2(address,uint256,uint256,uint256,uint256,uint256)":"bfb13f40","getClaimedTokens()":"b915dec2","getRoleAdmin(bytes32)":"248a9ca3","getSchedulesForBeneficiary(address)":"d4ac0701","getTotalVestedV2()":"a68a0682","getVersion()":"0d8e6e2c","getVestedToken()":"69aedde2","getVestingInfo(uint256)":"20f6b0a9","getVestingSchedule(uint256)":"beb8f883","grantRole(bytes32,address)":"2f2ff15d","hasRole(bytes32,address)":"91d14854","initialize(address,address,address)":"c0c53b8b","initializeV2()":"5cd8a76b","manualUnlock(uint256,uint256)":"97d8f09d","pause()":"8456cb59","paused()":"5c975abb","proxiableUUID()":"52d1902d","renounceRole(bytes32,address)":"36568abe","revokeRole(bytes32,address)":"d547741f","revokeSchedule(uint256)":"96577206","supportsInterface(bytes4)":"01ffc9a7","tokenVault()":"5bc789d9","totalVestedV2()":"4c06c6ae","ttnToken()":"d77a52e5","unpause()":"3f4ba83a","upgradeToAndCall(address,bytes)":"4f1ef286","version()":"54fd4d50","vestingSchedules(uint256)":"6d3cbe21"},"id":8}