{"abi":[{"type":"constructor","inputs":[],"stateMutability":"nonpayable"},{"type":"function","name":"DEFAULT_ADMIN_ROLE","inputs":[],"outputs":[{"name":"","type":"bytes32","internalType":"bytes32"}],"stateMutability":"view"},{"type":"function","name":"UPGRADE_INTERFACE_VERSION","inputs":[],"outputs":[{"name":"","type":"string","internalType":"string"}],"stateMutability":"view"},{"type":"function","name":"beneficiarySchedules","inputs":[{"name":"","type":"address","internalType":"address"},{"name":"","type":"uint256","internalType":"uint256"}],"outputs":[{"name":"","type":"uint256","internalType":"uint256"}],"stateMutability":"view"},{"type":"function","name":"claimVestedTokens","inputs":[{"name":"scheduleId","type":"uint256","internalType":"uint256"}],"outputs":[{"name":"","type":"uint256","internalType":"uint256"}],"stateMutability":"nonpayable"},{"type":"function","name":"createVestingSchedule","inputs":[{"name":"beneficiary","type":"address","internalType":"address"},{"name":"totalAmount","type":"uint256","internalType":"uint256"},{"name":"startTime","type":"uint256","internalType":"uint256"},{"name":"cliffDuration","type":"uint256","internalType":"uint256"},{"name":"duration","type":"uint256","internalType":"uint256"},{"name":"allocationId","type":"uint256","internalType":"uint256"}],"outputs":[{"name":"","type":"uint256","internalType":"uint256"}],"stateMutability":"nonpayable"},{"type":"function","name":"getClaimedTokens","inputs":[],"outputs":[{"name":"totalClaimed","type":"uint256","internalType":"uint256"}],"stateMutability":"view"},{"type":"function","name":"getRoleAdmin","inputs":[{"name":"role","type":"bytes32","internalType":"bytes32"}],"outputs":[{"name":"","type":"bytes32","internalType":"bytes32"}],"stateMutability":"view"},{"type":"function","name":"getSchedulesForBeneficiary","inputs":[{"name":"beneficiary","type":"address","internalType":"address"}],"outputs":[{"name":"","type":"uint256[]","internalType":"uint256[]"}],"stateMutability":"view"},{"type":"function","name":"getVestedToken","inputs":[],"outputs":[{"name":"totalVested","type":"uint256","internalType":"uint256"}],"stateMutability":"view"},{"type":"function","name":"getVestingInfo","inputs":[{"name":"scheduleId","type":"uint256","internalType":"uint256"}],"outputs":[{"name":"totalAmount","type":"uint256","internalType":"uint256"},{"name":"releasedAmount","type":"uint256","internalType":"uint256"},{"name":"releasableAmount","type":"uint256","internalType":"uint256"},{"name":"remainingAmount","type":"uint256","internalType":"uint256"},{"name":"nextUnlockTime","type":"uint256","internalType":"uint256"}],"stateMutability":"view"},{"type":"function","name":"getVestingSchedule","inputs":[{"name":"scheduleId","type":"uint256","internalType":"uint256"}],"outputs":[{"name":"","type":"tuple","internalType":"struct VestingManager.VestingSchedule","components":[{"name":"totalAmount","type":"uint256","internalType":"uint256"},{"name":"startTime","type":"uint256","internalType":"uint256"},{"name":"cliffDuration","type":"uint256","internalType":"uint256"},{"name":"duration","type":"uint256","internalType":"uint256"},{"name":"releasedAmount","type":"uint256","internalType":"uint256"},{"name":"createdAt","type":"uint256","internalType":"uint256"},{"name":"allocationId","type":"uint256","internalType":"uint256"},{"name":"beneficiary","type":"address","internalType":"address"},{"name":"revoked","type":"bool","internalType":"bool"}]}],"stateMutability":"view"},{"type":"function","name":"grantRole","inputs":[{"name":"role","type":"bytes32","internalType":"bytes32"},{"name":"account","type":"address","internalType":"address"}],"outputs":[],"stateMutability":"nonpayable"},{"type":"function","name":"hasRole","inputs":[{"name":"role","type":"bytes32","internalType":"bytes32"},{"name":"account","type":"address","internalType":"address"}],"outputs":[{"name":"","type":"bool","internalType":"bool"}],"stateMutability":"view"},{"type":"function","name":"initialize","inputs":[{"name":"_ttnToken","type":"address","internalType":"address"},{"name":"_tokenVault","type":"address","internalType":"address"},{"name":"_admin","type":"address","internalType":"address"}],"outputs":[],"stateMutability":"nonpayable"},{"type":"function","name":"manualUnlock","inputs":[{"name":"scheduleId","type":"uint256","internalType":"uint256"},{"name":"amount","type":"uint256","internalType":"uint256"}],"outputs":[{"name":"","type":"bool","internalType":"bool"}],"stateMutability":"nonpayable"},{"type":"function","name":"pause","inputs":[],"outputs":[],"stateMutability":"nonpayable"},{"type":"function","name":"paused","inputs":[],"outputs":[{"name":"","type":"bool","internalType":"bool"}],"stateMutability":"view"},{"type":"function","name":"proxiableUUID","inputs":[],"outputs":[{"name":"","type":"bytes32","internalType":"bytes32"}],"stateMutability":"view"},{"type":"function","name":"renounceRole","inputs":[{"name":"role","type":"bytes32","internalType":"bytes32"},{"name":"callerConfirmation","type":"address","internalType":"address"}],"outputs":[],"stateMutability":"nonpayable"},{"type":"function","name":"revokeRole","inputs":[{"name":"role","type":"bytes32","internalType":"bytes32"},{"name":"account","type":"address","internalType":"address"}],"outputs":[],"stateMutability":"nonpayable"},{"type":"function","name":"revokeSchedule","inputs":[{"name":"scheduleId","type":"uint256","internalType":"uint256"}],"outputs":[{"name":"","type":"uint256","internalType":"uint256"}],"stateMutability":"nonpayable"},{"type":"function","name":"supportsInterface","inputs":[{"name":"interfaceId","type":"bytes4","internalType":"bytes4"}],"outputs":[{"name":"","type":"bool","internalType":"bool"}],"stateMutability":"view"},{"type":"function","name":"tokenVault","inputs":[],"outputs":[{"name":"","type":"address","internalType":"contract ITokenVault"}],"stateMutability":"view"},{"type":"function","name":"ttnToken","inputs":[],"outputs":[{"name":"","type":"address","internalType":"contract ITTNToken"}],"stateMutability":"view"},{"type":"function","name":"unpause","inputs":[],"outputs":[],"stateMutability":"nonpayable"},{"type":"function","name":"upgradeToAndCall","inputs":[{"name":"newImplementation","type":"address","internalType":"address"},{"name":"data","type":"bytes","internalType":"bytes"}],"outputs":[],"stateMutability":"payable"},{"type":"function","name":"vestingSchedules","inputs":[{"name":"","type":"uint256","internalType":"uint256"}],"outputs":[{"name":"totalAmount","type":"uint256","internalType":"uint256"},{"name":"startTime","type":"uint256","internalType":"uint256"},{"name":"cliffDuration","type":"uint256","internalType":"uint256"},{"name":"duration","type":"uint256","internalType":"uint256"},{"name":"releasedAmount","type":"uint256","internalType":"uint256"},{"name":"createdAt","type":"uint256","internalType":"uint256"},{"name":"allocationId","type":"uint256","internalType":"uint256"},{"name":"beneficiary","type":"address","internalType":"address"},{"name":"revoked","type":"bool","internalType":"bool"}],"stateMutability":"view"},{"type":"event","name":"Initialized","inputs":[{"name":"version","type":"uint64","indexed":false,"internalType":"uint64"}],"anonymous":false},{"type":"event","name":"ManagerAssigned","inputs":[{"name":"manager","type":"address","indexed":true,"internalType":"address"}],"anonymous":false},{"type":"event","name":"ManualUnlock","inputs":[{"name":"scheduleId","type":"uint256","indexed":true,"internalType":"uint256"},{"name":"beneficiary","type":"address","indexed":true,"internalType":"address"},{"name":"amount","type":"uint256","indexed":false,"internalType":"uint256"},{"name":"unlockInitiator","type":"address","indexed":true,"internalType":"address"}],"anonymous":false},{"type":"event","name":"Paused","inputs":[{"name":"account","type":"address","indexed":false,"internalType":"address"}],"anonymous":false},{"type":"event","name":"RoleAdminChanged","inputs":[{"name":"role","type":"bytes32","indexed":true,"internalType":"bytes32"},{"name":"previousAdminRole","type":"bytes32","indexed":true,"internalType":"bytes32"},{"name":"newAdminRole","type":"bytes32","indexed":true,"internalType":"bytes32"}],"anonymous":false},{"type":"event","name":"RoleGranted","inputs":[{"name":"role","type":"bytes32","indexed":true,"internalType":"bytes32"},{"name":"account","type":"address","indexed":true,"internalType":"address"},{"name":"sender","type":"address","indexed":true,"internalType":"address"}],"anonymous":false},{"type":"event","name":"RoleRevoked","inputs":[{"name":"role","type":"bytes32","indexed":true,"internalType":"bytes32"},{"name":"account","type":"address","indexed":true,"internalType":"address"},{"name":"sender","type":"address","indexed":true,"internalType":"address"}],"anonymous":false},{"type":"event","name":"ScheduleRevoked","inputs":[{"name":"scheduleId","type":"uint256","indexed":true,"internalType":"uint256"},{"name":"beneficiary","type":"address","indexed":true,"internalType":"address"},{"name":"remainingAmount","type":"uint256","indexed":false,"internalType":"uint256"}],"anonymous":false},{"type":"event","name":"TokensReleased","inputs":[{"name":"scheduleId","type":"uint256","indexed":true,"internalType":"uint256"},{"name":"beneficiary","type":"address","indexed":true,"internalType":"address"},{"name":"amount","type":"uint256","indexed":false,"internalType":"uint256"}],"anonymous":false},{"type":"event","name":"Unpaused","inputs":[{"name":"account","type":"address","indexed":false,"internalType":"address"}],"anonymous":false},{"type":"event","name":"Upgraded","inputs":[{"name":"implementation","type":"address","indexed":true,"internalType":"address"}],"anonymous":false},{"type":"event","name":"VestedTokensUpdated","inputs":[{"name":"totalVested","type":"uint256","indexed":false,"internalType":"uint256"},{"name":"totalClaimed","type":"uint256","indexed":false,"internalType":"uint256"}],"anonymous":false},{"type":"event","name":"VestingScheduleCreated","inputs":[{"name":"scheduleId","type":"uint256","indexed":true,"internalType":"uint256"},{"name":"beneficiary","type":"address","indexed":true,"internalType":"address"},{"name":"totalAmount","type":"uint256","indexed":false,"internalType":"uint256"},{"name":"startTime","type":"uint256","indexed":false,"internalType":"uint256"},{"name":"cliffDuration","type":"uint256","indexed":false,"internalType":"uint256"},{"name":"duration","type":"uint256","indexed":false,"internalType":"uint256"},{"name":"allocationId","type":"uint256","indexed":false,"internalType":"uint256"}],"anonymous":false},{"type":"error","name":"AccessControlBadConfirmation","inputs":[]},{"type":"error","name":"AccessControlUnauthorizedAccount","inputs":[{"name":"account","type":"address","internalType":"address"},{"name":"neededRole","type":"bytes32","internalType":"bytes32"}]},{"type":"error","name":"AddressEmptyCode","inputs":[{"name":"target","type":"address","internalType":"address"}]},{"type":"error","name":"AmountExceedsRemaining","inputs":[]},{"type":"error","name":"ArraysLengthMismatch","inputs":[]},{"type":"error","name":"CannotAddSelf","inputs":[]},{"type":"error","name":"CannotRemoveSelf","inputs":[]},{"type":"error","name":"ERC1967InvalidImplementation","inputs":[{"name":"implementation","type":"address","internalType":"address"}]},{"type":"error","name":"ERC1967NonPayable","inputs":[]},{"type":"error","name":"EmptyBeneficiariesList","inputs":[]},{"type":"error","name":"EnforcedPause","inputs":[]},{"type":"error","name":"ExpectedPause","inputs":[]},{"type":"error","name":"FailedCall","inputs":[]},{"type":"error","name":"InvalidAddress","inputs":[]},{"type":"error","name":"InvalidAmount","inputs":[]},{"type":"error","name":"InvalidAmountInBatch","inputs":[]},{"type":"error","name":"InvalidBeneficiary","inputs":[]},{"type":"error","name":"InvalidCliffDuration","inputs":[]},{"type":"error","name":"InvalidDuration","inputs":[]},{"type":"error","name":"InvalidInitialization","inputs":[]},{"type":"error","name":"InvalidScheduleId","inputs":[]},{"type":"error","name":"InvalidStartTime","inputs":[]},{"type":"error","name":"InvalidVestingId","inputs":[]},{"type":"error","name":"NoTokensDue","inputs":[]},{"type":"error","name":"NoTokensToRevoke","inputs":[]},{"type":"error","name":"NotAllocated","inputs":[]},{"type":"error","name":"NotAuthorized","inputs":[]},{"type":"error","name":"NotBeneficiary","inputs":[]},{"type":"error","name":"NotInitializing","inputs":[]},{"type":"error","name":"ReentrancyGuardReentrantCall","inputs":[]},{"type":"error","name":"ScheduledRevoked","inputs":[]},{"type":"error","name":"TransferFailed","inputs":[]},{"type":"error","name":"UUPSUnauthorizedCallContext","inputs":[]},{"type":"error","name":"UUPSUnsupportedProxiableUUID","inputs":[{"name":"slot","type":"bytes32","internalType":"bytes32"}]},{"type":"error","name":"VestingAlreadyRevoked","inputs":[]},{"type":"error","name":"ZeroAddress","inputs":[{"name":"param","type":"string","internalType":"string"}]}],"bytecode":{"object":"0x60a060405230608052348015610013575f5ffd5b5061001c610021565b6100d3565b7ff0c57e16840df040f15088dc2f81fe391c3923bec73e23a9662efc9c229c6a00805468010000000000000000900460ff16156100715760405163f92ee8a960e01b815260040160405180910390fd5b80546001600160401b03908116146100d05780546001600160401b0319166001600160401b0390811782556040519081527fc7f505b2f371ae2175ee4913f4499e1f2633a7b5936321eed1cdaeb6115181d29060200160405180910390a15b50565b6080516125e46100f95f395f8181611c3101528181611c5a0152611d9d01526125e45ff3fe608060405260043610610195575f3560e01c80636d3cbe21116100e7578063ad3cb1cc11610087578063c0c53b8b11610062578063c0c53b8b146105b2578063d4ac0701146105d1578063d547741f146105fd578063d77a52e51461061c575f5ffd5b8063ad3cb1cc146104cc578063b915dec214610509578063beb8f8831461051d575f5ffd5b806391d14854116100c257806391d148541461045c578063965772061461047b57806397d8f09d1461049a578063a217fddf146104b9575f5ffd5b80636d3cbe21146103685780637935510b146104295780638456cb5914610448575f5ffd5b806346ca4241116101525780635bc789d91161012d5780635bc789d9146102db5780635c975abb1461031257806362eb06041461033557806369aedde214610354575f5ffd5b806346ca4241146102955780634f1ef286146102b457806352d1902d146102c7575f5ffd5b806301ffc9a71461019957806320f6b0a9146101cd578063248a9ca3146102145780632f2ff15d1461024157806336568abe146102625780633f4ba83a14610281575b5f5ffd5b3480156101a4575f5ffd5b506101b86101b3366004612150565b61063a565b60405190151581526020015b60405180910390f35b3480156101d8575f5ffd5b506101ec6101e7366004612177565b610670565b604080519586526020860194909452928401919091526060830152608082015260a0016101c4565b34801561021f575f5ffd5b5061023361022e366004612177565b61074e565b6040519081526020016101c4565b34801561024c575f5ffd5b5061026061025b3660046121a2565b61076e565b005b34801561026d575f5ffd5b5061026061027c3660046121a2565b610790565b34801561028c575f5ffd5b506102606107c8565b3480156102a0575f5ffd5b506102336102af3660046121d0565b6107dd565b6102606102c236600461220e565b610808565b3480156102d2575f5ffd5b50610233610827565b3480156102e6575f5ffd5b506001546102fa906001600160a01b031681565b6040516001600160a01b0390911681526020016101c4565b34801561031d575f5ffd5b505f51602061256f5f395f51905f525460ff166101b8565b348015610340575f5ffd5b5061023361034f3660046122d4565b610842565b34801561035f575f5ffd5b50600254610233565b348015610373575f5ffd5b506103da610382366004612177565b600560208190525f91825260409091208054600182015460028301546003840154600485015495850154600686015460079096015494969395929491939290916001600160a01b03811690600160a01b900460ff1689565b60408051998a5260208a0198909852968801959095526060870193909352608086019190915260a085015260c08401526001600160a01b031660e08301521515610100820152610120016101c4565b348015610434575f5ffd5b50610233610443366004612177565b610c93565b348015610453575f5ffd5b50610260610fe3565b348015610467575f5ffd5b506101b86104763660046121a2565b610ff5565b348015610486575f5ffd5b50610233610495366004612177565b61102b565b3480156104a5575f5ffd5b506101b86104b436600461231c565b61125d565b3480156104c4575f5ffd5b506102335f81565b3480156104d7575f5ffd5b506104fc604051806040016040528060058152602001640352e302e360dc1b81525081565b6040516101c4919061233c565b348015610514575f5ffd5b50600354610233565b348015610528575f5ffd5b5061053c610537366004612177565b611618565b6040516101c491905f61012082019050825182526020830151602083015260408301516040830152606083015160608301526080830151608083015260a083015160a083015260c083015160c083015260018060a01b0360e08401511660e0830152610100830151151561010083015292915050565b3480156105bd575f5ffd5b506102606105cc366004612371565b61171d565b3480156105dc575f5ffd5b506105f06105eb3660046123b9565b611926565b6040516101c491906123d4565b348015610608575f5ffd5b506102606106173660046121a2565b61198f565b348015610627575f5ffd5b505f546102fa906001600160a01b031681565b5f6001600160e01b03198216637965db0b60e01b148061066a57506301ffc9a760e01b6001600160e01b03198316145b92915050565b5f80808080851580610683575060045486115b156106a157604051630151be2560e11b815260040160405180910390fd5b5f8681526005602052604090206106b7876119ab565b8154600483015490975095509350836106d0868861242a565b6106da919061242a565b9250806002015481600101546106f0919061243d565b421015610712578060020154816001015461070b919061243d565b9150610744565b80600301548160010154610726919061243d565b4210610734575f9150610744565b610741426201518061243d565b91505b5091939590929450565b5f9081525f51602061254f5f395f51905f52602052604090206001015490565b6107778261074e565b61078081611aa3565b61078a8383611aad565b50505050565b6001600160a01b03811633146107b95760405163334bd91960e11b815260040160405180910390fd5b6107c38282611b4e565b505050565b5f6107d281611aa3565b6107da611bc7565b50565b6006602052815f5260405f2081815481106107f6575f80fd5b905f5260205f20015f91509150505481565b610810611c26565b61081982611ccc565b6108238282611cd6565b5050565b5f610830611d92565b505f51602061252f5f395f51905f5290565b5f61084b611ddb565b610853611e0b565b61085d5f33610ff5565b1580156108d1575060015460405163f3ae241560e01b81523360048201526001600160a01b039091169063f3ae241590602401602060405180830381865afa1580156108ab573d5f5f3e3d5ffd5b505050506040513d601f19601f820116820180604052508101906108cf919061245f565b155b156108ef5760405163ea8e4eb560e01b815260040160405180910390fd5b6001600160a01b0387166109395760405163eac0d38960e01b815260206004820152600b60248201526a62656e656669636961727960a81b60448201526064015b60405180910390fd5b855f036109595760405163162908e360e11b815260040160405180910390fd5b825f0361097957604051637616640160e01b815260040160405180910390fd5b8383101561099a5760405163a9a2774960e01b815260040160405180910390fd5b428510156109bb57604051632ca4094f60e21b815260040160405180910390fd5b8115610aac5760015460405163020d5eb760e41b8152600481018490525f91829182916001600160a01b0316906320d5eb7090602401606060405180830381865afa158015610a0c573d5f5f3e3d5ffd5b505050506040513d601f19601f82011682018060405250810190610a309190612478565b925092509250896001600160a01b0316826001600160a01b031614610a685760405163644d871f60e01b815260040160405180910390fd5b8015610a8757604051636c10193160e01b815260040160405180910390fd5b88831015610aa85760405163162908e360e11b815260040160405180910390fd5b5050505b60048054905f610abb836124b3565b91905055506040518061012001604052808781526020018681526020018581526020018481526020015f8152602001428152602001838152602001886001600160a01b031681526020015f151581525060055f60045481526020019081526020015f205f820151815f01556020820151816001015560408201518160020155606082015181600301556080820151816004015560a0820151816005015560c0820151816006015560e0820151816007015f6101000a8154816001600160a01b0302191690836001600160a01b031602179055506101008201518160070160146101000a81548160ff02191690831515021790555090505060065f886001600160a01b03166001600160a01b031681526020019081526020015f20600454908060018154018082558091505060019003905f5260205f20015f90919091909150558560025f828254610c0c919061243d565b9091555050600454604080518881526020810188905290810186905260608101859052608081018490526001600160a01b03891691907f59e90d00b7fcdc7bac5d802d9dde49e2f0f1a30ccd679123dc8903ee7e8638039060a00160405180910390a350600454610c8960015f51602061258f5f395f51905f5255565b9695505050505050565b5f610c9c611ddb565b610ca4611e0b565b811580610cb2575060045482115b15610cd057604051630151be2560e11b815260040160405180910390fd5b5f8281526005602052604090206007810154600160a01b900460ff1615610d0a57604051631fd1ae9d60e31b815260040160405180910390fd5b60078101546001600160a01b03163314610d375760405163644d871f60e01b815260040160405180910390fd5b5f610d41846119ab565b9050805f03610d635760405163ecb86b8b60e01b815260040160405180910390fd5b80826004015f828254610d76919061243d565b925050819055508060035f828254610d8e919061243d565b90915550505f5460078301546040516340c10f1960e01b81526001600160a01b039182166004820152602481018490529116906340c10f19906044015f604051808303815f87803b158015610de1575f5ffd5b505af1158015610df3573d5f5f3e3d5ffd5b50505050600682015415610f1657600154600683015460405163020d5eb760e41b81525f9283926001600160a01b03909116916320d5eb7091610e3c9160040190815260200190565b606060405180830381865afa158015610e57573d5f5f3e3d5ffd5b505050506040513d601f19601f82011682018060405250810190610e7b9190612478565b925050915080158015610e8e5750828210155b15610f135760015460068501546040516313a5ec4b60e31b81526001600160a01b0390921691639d2f625891610ed1918790600401918252602082015260400190565b6020604051808303815f875af1158015610eed573d5f5f3e3d5ffd5b505050506040513d601f19601f82011682018060405250810190610f11919061245f565b505b50505b8154600483015410610f385760078201805460ff60a01b1916600160a01b1790555b60078201546040518281526001600160a01b039091169085907fa6c812047c4dc10f52f9e7943b1b3dfafae864d5e0d4ded081bbbde69dd6ff0d906020015b60405180910390a37f721a36e7774bb6e2095fedcbcad58dc7897a214046eaeccc9e5b6e4181e00c52600254600354604051610fbd929190918252602082015260400190565b60405180910390a1915050610fde60015f51602061258f5f395f51905f5255565b919050565b5f610fed81611aa3565b6107da611e55565b5f9182525f51602061254f5f395f51905f52602090815260408084206001600160a01b0393909316845291905290205460ff1690565b5f611034611e0b565b61103e5f33610ff5565b1580156110b2575060015460405163f3ae241560e01b81523360048201526001600160a01b039091169063f3ae241590602401602060405180830381865afa15801561108c573d5f5f3e3d5ffd5b505050506040513d601f19601f820116820180604052508101906110b0919061245f565b155b156110d05760405163ea8e4eb560e01b815260040160405180910390fd5b8115806110de575060045482115b156110fc57604051630151be2560e11b815260040160405180910390fd5b5f8281526005602052604090206007810154600160a01b900460ff161561113657604051631fd1ae9d60e31b815260040160405180910390fd5b600481015481545f916111489161242a565b9050805f0361116957604051629875a560e81b815260040160405180910390fd5b60078201805460ff60a01b1916600160a01b179055600280548291905f9061119290849061242a565b909155505060068201541561121a576001546006830154604051630437e2bf60e01b81526001600160a01b0390921691630437e2bf916111d89160040190815260200190565b6020604051808303815f875af11580156111f4573d5f5f3e3d5ffd5b505050506040513d601f19601f82011682018060405250810190611218919061245f565b505b60078201546040518281526001600160a01b039091169085907fcfb0e1f97bc375d6b68398d705dac100573940a50fbf4a871c186ad55909cc8c90602001610f77565b5f611266611e0b565b6112705f33610ff5565b1580156112e4575060015460405163f3ae241560e01b81523360048201526001600160a01b039091169063f3ae241590602401602060405180830381865afa1580156112be573d5f5f3e3d5ffd5b505050506040513d601f19601f820116820180604052508101906112e2919061245f565b155b156113025760405163ea8e4eb560e01b815260040160405180910390fd5b821580611310575060045483115b1561132e57604051630151be2560e11b815260040160405180910390fd5b815f0361134e5760405163162908e360e11b815260040160405180910390fd5b5f8381526005602052604090206007810154600160a01b900460ff161561138857604051631fd1ae9d60e31b815260040160405180910390fd5b600481015481545f9161139a9161242a565b9050808411156113bd576040516320a98d5560e21b815260040160405180910390fd5b83826004015f8282546113d0919061243d565b925050819055508360035f8282546113e8919061243d565b90915550505f5460078301546040516340c10f1960e01b81526001600160a01b039182166004820152602481018790529116906340c10f19906044015f604051808303815f87803b15801561143b575f5ffd5b505af115801561144d573d5f5f3e3d5ffd5b5050505060068201541561157057600154600683015460405163020d5eb760e41b81525f9283926001600160a01b03909116916320d5eb70916114969160040190815260200190565b606060405180830381865afa1580156114b1573d5f5f3e3d5ffd5b505050506040513d601f19601f820116820180604052508101906114d59190612478565b9250509150801580156114e85750858210155b1561156d5760015460068501546040516313a5ec4b60e31b81526001600160a01b0390921691639d2f62589161152b918a90600401918252602082015260400190565b6020604051808303815f875af1158015611547573d5f5f3e3d5ffd5b505050506040513d601f19601f8201168201806040525081019061156b919061245f565b505b50505b600782015460405185815233916001600160a01b03169087907f66bfa9cf4e227081224b75efc3c11445e6b0311a4ca71917686f1008baedd2e49060200160405180910390a47f721a36e7774bb6e2095fedcbcad58dc7897a214046eaeccc9e5b6e4181e00c526002546003546040516115f4929190918252602082015260400190565b60405180910390a160019250505061066a60015f51602061258f5f395f51905f5255565b6116696040518061012001604052805f81526020015f81526020015f81526020015f81526020015f81526020015f81526020015f81526020015f6001600160a01b031681526020015f151581525090565b811580611677575060045482115b1561169557604051630151be2560e11b815260040160405180910390fd5b505f908152600560208181526040928390208351610120810185528154815260018201549281019290925260028101549382019390935260038301546060820152600483015460808201529082015460a0820152600682015460c08201526007909101546001600160a01b03811660e0830152600160a01b900460ff16151561010082015290565b5f611726611e9d565b805490915060ff600160401b820416159067ffffffffffffffff165f8115801561174d5750825b90505f8267ffffffffffffffff1660011480156117695750303b155b905081158015611777575080155b156117955760405163f92ee8a960e01b815260040160405180910390fd5b845467ffffffffffffffff1916600117855583156117bf57845460ff60401b1916600160401b1785555b6001600160a01b0388166117fe5760405163eac0d38960e01b81526020600482015260056024820152643a37b5b2b760d91b6044820152606401610930565b6001600160a01b03871661183d5760405163eac0d38960e01b81526020600482015260056024820152641d985d5b1d60da1b6044820152606401610930565b6001600160a01b03861661187c5760405163eac0d38960e01b815260206004820152600560248201526430b236b4b760d91b6044820152606401610930565b611884611ec5565b61188c611ec5565b611894611ec5565b61189c611ecd565b5f80546001600160a01b03808b166001600160a01b031992831617835560018054918b16919092161790556118d19087611aad565b505f600455831561191c57845460ff60401b19168555604051600181527fc7f505b2f371ae2175ee4913f4499e1f2633a7b5936321eed1cdaeb6115181d29060200160405180910390a15b5050505050505050565b6001600160a01b0381165f9081526006602090815260409182902080548351818402810184019094528084526060939283018282801561198357602002820191905f5260205f20905b81548152602001906001019080831161196f575b50505050509050919050565b6119988261074e565b6119a181611aa3565b61078a8383611b4e565b5f8115806119ba575060045482115b156119d857604051630151be2560e11b815260040160405180910390fd5b5f8281526005602052604090206007810154600160a01b900460ff1615611a0157505f92915050565b80600201548160010154611a15919061243d565b421015611a2457505f92915050565b80600301548160010154611a38919061243d565b4210611a565760048101548154611a4f919061242a565b9392505050565b5f816001015442611a67919061242a565b90505f826003015482845f0154611a7e91906124cb565b611a8891906124e2565b9050826004015481611a9a919061242a565b95945050505050565b6107da8133611edd565b5f5f51602061254f5f395f51905f52611ac68484610ff5565b611b45575f848152602082815260408083206001600160a01b03871684529091529020805460ff19166001179055611afb3390565b6001600160a01b0316836001600160a01b0316857f2f8788117e7eff1d82e926ec794901d17c78024a50270940304540a733656f0d60405160405180910390a4600191505061066a565b5f91505061066a565b5f5f51602061254f5f395f51905f52611b678484610ff5565b15611b45575f848152602082815260408083206001600160a01b0387168085529252808320805460ff1916905551339287917ff6391f5c32d9c69d2a47ea670b442974b53935d1edc7fd64eb21e047a839171b9190a4600191505061066a565b611bcf611f16565b5f51602061256f5f395f51905f52805460ff191681557f5db9ee0a495bf2e6ff9c91a7834c1ba4fdd244a5e8aa4e537bd38aeae4b073aa335b6040516001600160a01b03909116815260200160405180910390a150565b306001600160a01b037f0000000000000000000000000000000000000000000000000000000000000000161480611cac57507f00000000000000000000000000000000000000000000000000000000000000006001600160a01b0316611ca05f51602061252f5f395f51905f52546001600160a01b031690565b6001600160a01b031614155b15611cca5760405163703e46dd60e11b815260040160405180910390fd5b565b5f61082381611aa3565b816001600160a01b03166352d1902d6040518163ffffffff1660e01b8152600401602060405180830381865afa925050508015611d30575060408051601f3d908101601f19168201909252611d2d91810190612501565b60015b611d5857604051634c9c8ce360e01b81526001600160a01b0383166004820152602401610930565b5f51602061252f5f395f51905f528114611d8857604051632a87526960e21b815260048101829052602401610930565b6107c38383611f45565b306001600160a01b037f00000000000000000000000000000000000000000000000000000000000000001614611cca5760405163703e46dd60e11b815260040160405180910390fd5b5f51602061256f5f395f51905f525460ff1615611cca5760405163d93c066560e01b815260040160405180910390fd5b5f51602061258f5f395f51905f52805460011901611e3c57604051633ee5aeb560e01b815260040160405180910390fd5b60029055565b60015f51602061258f5f395f51905f5255565b611e5d611ddb565b5f51602061256f5f395f51905f52805460ff191660011781557f62e78cea01bee320cd4e420270b5ea74000d11b0c9f74754ebdbfc544b05a25833611c08565b5f807ff0c57e16840df040f15088dc2f81fe391c3923bec73e23a9662efc9c229c6a0061066a565b611cca611f9a565b611ed5611f9a565b611cca611fbf565b611ee78282610ff5565b6108235760405163e2517d3f60e01b81526001600160a01b038216600482015260248101839052604401610930565b5f51602061256f5f395f51905f525460ff16611cca57604051638dfc202b60e01b815260040160405180910390fd5b611f4e82611fc7565b6040516001600160a01b038316907fbc7cd75a20ee27fd9adebab32041f755214dbc6bffa90cc0225b39da2e5c2d3b905f90a2805115611f92576107c3828261202a565b610823612093565b611fa26120b2565b611cca57604051631afcd79f60e31b815260040160405180910390fd5b611e42611f9a565b806001600160a01b03163b5f03611ffc57604051634c9c8ce360e01b81526001600160a01b0382166004820152602401610930565b5f51602061252f5f395f51905f5280546001600160a01b0319166001600160a01b0392909216919091179055565b60605f5f846001600160a01b0316846040516120469190612518565b5f60405180830381855af49150503d805f811461207e576040519150601f19603f3d011682016040523d82523d5f602084013e612083565b606091505b5091509150611a9a8583836120cb565b3415611cca5760405163b398979f60e01b815260040160405180910390fd5b5f6120bb611e9d565b54600160401b900460ff16919050565b6060826120e0576120db82612127565b611a4f565b81511580156120f757506001600160a01b0384163b155b1561212057604051639996b31560e01b81526001600160a01b0385166004820152602401610930565b5092915050565b8051156121375780518082602001fd5b60405163d6bda27560e01b815260040160405180910390fd5b5f60208284031215612160575f5ffd5b81356001600160e01b031981168114611a4f575f5ffd5b5f60208284031215612187575f5ffd5b5035919050565b6001600160a01b03811681146107da575f5ffd5b5f5f604083850312156121b3575f5ffd5b8235915060208301356121c58161218e565b809150509250929050565b5f5f604083850312156121e1575f5ffd5b82356121ec8161218e565b946020939093013593505050565b634e487b7160e01b5f52604160045260245ffd5b5f5f6040838503121561221f575f5ffd5b823561222a8161218e565b9150602083013567ffffffffffffffff811115612245575f5ffd5b8301601f81018513612255575f5ffd5b803567ffffffffffffffff81111561226f5761226f6121fa565b604051601f8201601f19908116603f0116810167ffffffffffffffff8111828210171561229e5761229e6121fa565b6040528181528282016020018710156122b5575f5ffd5b816020840160208301375f602083830101528093505050509250929050565b5f5f5f5f5f5f60c087890312156122e9575f5ffd5b86356122f48161218e565b9860208801359850604088013597606081013597506080810135965060a00135945092505050565b5f5f6040838503121561232d575f5ffd5b50508035926020909101359150565b602081525f82518060208401528060208501604085015e5f604082850101526040601f19601f83011684010191505092915050565b5f5f5f60608486031215612383575f5ffd5b833561238e8161218e565b9250602084013561239e8161218e565b915060408401356123ae8161218e565b809150509250925092565b5f602082840312156123c9575f5ffd5b8135611a4f8161218e565b602080825282518282018190525f918401906040840190835b8181101561240b5783518352602093840193909201916001016123ed565b509095945050505050565b634e487b7160e01b5f52601160045260245ffd5b8181038181111561066a5761066a612416565b8082018082111561066a5761066a612416565b80518015158114610fde575f5ffd5b5f6020828403121561246f575f5ffd5b611a4f82612450565b5f5f5f6060848603121561248a575f5ffd5b83519250602084015161249c8161218e565b91506124aa60408501612450565b90509250925092565b5f600182016124c4576124c4612416565b5060010190565b808202811582820484141761066a5761066a612416565b5f826124fc57634e487b7160e01b5f52601260045260245ffd5b500490565b5f60208284031215612511575f5ffd5b5051919050565b5f82518060208501845e5f92019182525091905056fe360894a13ba1a3210667c828492db98dca3e2076cc3735a920a3ca505d382bbc02dd7bc7dec4dceedda775e58dd541e08a116c6c53815c0bd028192f7b626800cd5ed15c6e187e77e9aee88184c21f4f2182ab5827cb3b7e07fbedcd63f033009b779b17422d0df92223018b32b4d1fa46e071723d6817e2486d003becc55f00a2646970667358221220c8f8abdd168a8398e7a3a3bafde630c5057e6d8f09d628367dcf8442b05de29364736f6c634300081c0033","linkReferences":{}},"methodIdentifiers":{"DEFAULT_ADMIN_ROLE()":"a217fddf","UPGRADE_INTERFACE_VERSION()":"ad3cb1cc","beneficiarySchedules(address,uint256)":"46ca4241","claimVestedTokens(uint256)":"7935510b","createVestingSchedule(address,uint256,uint256,uint256,uint256,uint256)":"62eb0604","getClaimedTokens()":"b915dec2","getRoleAdmin(bytes32)":"248a9ca3","getSchedulesForBeneficiary(address)":"d4ac0701","getVestedToken()":"69aedde2","getVestingInfo(uint256)":"20f6b0a9","getVestingSchedule(uint256)":"beb8f883","grantRole(bytes32,address)":"2f2ff15d","hasRole(bytes32,address)":"91d14854","initialize(address,address,address)":"c0c53b8b","manualUnlock(uint256,uint256)":"97d8f09d","pause()":"8456cb59","paused()":"5c975abb","proxiableUUID()":"52d1902d","renounceRole(bytes32,address)":"36568abe","revokeRole(bytes32,address)":"d547741f","revokeSchedule(uint256)":"96577206","supportsInterface(bytes4)":"01ffc9a7","tokenVault()":"5bc789d9","ttnToken()":"d77a52e5","unpause()":"3f4ba83a","upgradeToAndCall(address,bytes)":"4f1ef286","vestingSchedules(uint256)":"6d3cbe21"},"id":2}