{"abi":[{"type":"function","name":"DEFAULT_ADMIN_ROLE","inputs":[],"outputs":[{"name":"","type":"bytes32","internalType":"bytes32"}],"stateMutability":"view"},{"type":"function","name":"MANAGER_ROLE","inputs":[],"outputs":[{"name":"","type":"bytes32","internalType":"bytes32"}],"stateMutability":"view"},{"type":"function","name":"UPGRADE_INTERFACE_VERSION","inputs":[],"outputs":[{"name":"","type":"string","internalType":"string"}],"stateMutability":"view"},{"type":"function","name":"addManager","inputs":[{"name":"newManager","type":"address","internalType":"address"}],"outputs":[],"stateMutability":"nonpayable"},{"type":"function","name":"allocations","inputs":[{"name":"","type":"uint256","internalType":"uint256"}],"outputs":[{"name":"amount","type":"uint256","internalType":"uint256"},{"name":"beneficiary","type":"address","internalType":"address"},{"name":"revoked","type":"bool","internalType":"bool"}],"stateMutability":"view"},{"type":"function","name":"beneficiaryAllocations","inputs":[{"name":"","type":"address","internalType":"address"},{"name":"","type":"uint256","internalType":"uint256"}],"outputs":[{"name":"","type":"uint256","internalType":"uint256"}],"stateMutability":"view"},{"type":"function","name":"createAllocation","inputs":[{"name":"beneficiary","type":"address","internalType":"address"},{"name":"amount","type":"uint256","internalType":"uint256"}],"outputs":[{"name":"","type":"uint256","internalType":"uint256"}],"stateMutability":"nonpayable"},{"type":"function","name":"createAllocationV2","inputs":[{"name":"beneficiary","type":"address","internalType":"address"},{"name":"amount","type":"uint256","internalType":"uint256"}],"outputs":[{"name":"","type":"uint256","internalType":"uint256"}],"stateMutability":"nonpayable"},{"type":"function","name":"executeAirdrop","inputs":[{"name":"beneficiaries","type":"address[]","internalType":"address[]"},{"name":"amounts","type":"uint256[]","internalType":"uint256[]"}],"outputs":[{"name":"","type":"uint256","internalType":"uint256"}],"stateMutability":"nonpayable"},{"type":"function","name":"getAllManagers","inputs":[],"outputs":[{"name":"","type":"address[]","internalType":"address[]"}],"stateMutability":"view"},{"type":"function","name":"getAllocationById","inputs":[{"name":"allocationId","type":"uint256","internalType":"uint256"}],"outputs":[{"name":"amount","type":"uint256","internalType":"uint256"},{"name":"beneficiary","type":"address","internalType":"address"},{"name":"revoked","type":"bool","internalType":"bool"}],"stateMutability":"view"},{"type":"function","name":"getAllocationsForBeneficiary","inputs":[{"name":"beneficiary","type":"address","internalType":"address"}],"outputs":[{"name":"","type":"uint256[]","internalType":"uint256[]"}],"stateMutability":"view"},{"type":"function","name":"getRoleAdmin","inputs":[{"name":"role","type":"bytes32","internalType":"bytes32"}],"outputs":[{"name":"","type":"bytes32","internalType":"bytes32"}],"stateMutability":"view"},{"type":"function","name":"getTotalAllocatedV2","inputs":[],"outputs":[{"name":"","type":"uint256","internalType":"uint256"}],"stateMutability":"view"},{"type":"function","name":"getVersion","inputs":[],"outputs":[{"name":"","type":"uint256","internalType":"uint256"}],"stateMutability":"view"},{"type":"function","name":"grantRole","inputs":[{"name":"role","type":"bytes32","internalType":"bytes32"},{"name":"account","type":"address","internalType":"address"}],"outputs":[],"stateMutability":"nonpayable"},{"type":"function","name":"hasRole","inputs":[{"name":"role","type":"bytes32","internalType":"bytes32"},{"name":"account","type":"address","internalType":"address"}],"outputs":[{"name":"","type":"bool","internalType":"bool"}],"stateMutability":"view"},{"type":"function","name":"initialize","inputs":[{"name":"_ttnToken","type":"address","internalType":"address"}],"outputs":[],"stateMutability":"nonpayable"},{"type":"function","name":"initializeV2","inputs":[],"outputs":[],"stateMutability":"nonpayable"},{"type":"function","name":"isManager","inputs":[{"name":"account","type":"address","internalType":"address"}],"outputs":[{"name":"","type":"bool","internalType":"bool"}],"stateMutability":"view"},{"type":"function","name":"pause","inputs":[],"outputs":[],"stateMutability":"nonpayable"},{"type":"function","name":"paused","inputs":[],"outputs":[{"name":"","type":"bool","internalType":"bool"}],"stateMutability":"view"},{"type":"function","name":"proxiableUUID","inputs":[],"outputs":[{"name":"","type":"bytes32","internalType":"bytes32"}],"stateMutability":"view"},{"type":"function","name":"reduceAllocation","inputs":[{"name":"allocationId","type":"uint256","internalType":"uint256"},{"name":"amount","type":"uint256","internalType":"uint256"}],"outputs":[{"name":"","type":"bool","internalType":"bool"}],"stateMutability":"nonpayable"},{"type":"function","name":"removeManager","inputs":[{"name":"manager","type":"address","internalType":"address"}],"outputs":[],"stateMutability":"nonpayable"},{"type":"function","name":"renounceRole","inputs":[{"name":"role","type":"bytes32","internalType":"bytes32"},{"name":"callerConfirmation","type":"address","internalType":"address"}],"outputs":[],"stateMutability":"nonpayable"},{"type":"function","name":"revokeAllocation","inputs":[{"name":"allocationId","type":"uint256","internalType":"uint256"}],"outputs":[{"name":"","type":"bool","internalType":"bool"}],"stateMutability":"nonpayable"},{"type":"function","name":"revokeRole","inputs":[{"name":"role","type":"bytes32","internalType":"bytes32"},{"name":"account","type":"address","internalType":"address"}],"outputs":[],"stateMutability":"nonpayable"},{"type":"function","name":"supportsInterface","inputs":[{"name":"interfaceId","type":"bytes4","internalType":"bytes4"}],"outputs":[{"name":"","type":"bool","internalType":"bool"}],"stateMutability":"view"},{"type":"function","name":"totalAllocatedV2","inputs":[],"outputs":[{"name":"","type":"uint256","internalType":"uint256"}],"stateMutability":"view"},{"type":"function","name":"ttnToken","inputs":[],"outputs":[{"name":"","type":"address","internalType":"contract ITTNToken"}],"stateMutability":"view"},{"type":"function","name":"unpause","inputs":[],"outputs":[],"stateMutability":"nonpayable"},{"type":"function","name":"upgradeToAndCall","inputs":[{"name":"newImplementation","type":"address","internalType":"address"},{"name":"data","type":"bytes","internalType":"bytes"}],"outputs":[],"stateMutability":"payable"},{"type":"function","name":"version","inputs":[],"outputs":[{"name":"","type":"uint256","internalType":"uint256"}],"stateMutability":"view"},{"type":"function","name":"vestingManagerAddress","inputs":[],"outputs":[{"name":"","type":"address","internalType":"address"}],"stateMutability":"view"},{"type":"event","name":"AirdropExecuted","inputs":[{"name":"beneficiaries","type":"address[]","indexed":false,"internalType":"address[]"},{"name":"amounts","type":"uint256[]","indexed":false,"internalType":"uint256[]"},{"name":"airdropId","type":"uint256","indexed":false,"internalType":"uint256"}],"anonymous":false},{"type":"event","name":"AllocationCreated","inputs":[{"name":"beneficiary","type":"address","indexed":true,"internalType":"address"},{"name":"amount","type":"uint256","indexed":false,"internalType":"uint256"},{"name":"allocationId","type":"uint256","indexed":false,"internalType":"uint256"}],"anonymous":false},{"type":"event","name":"AllocationRevoked","inputs":[{"name":"beneficiary","type":"address","indexed":true,"internalType":"address"},{"name":"amount","type":"uint256","indexed":false,"internalType":"uint256"},{"name":"allocationId","type":"uint256","indexed":false,"internalType":"uint256"}],"anonymous":false},{"type":"event","name":"Initialized","inputs":[{"name":"version","type":"uint64","indexed":false,"internalType":"uint64"}],"anonymous":false},{"type":"event","name":"ManagerAssigned","inputs":[{"name":"manager","type":"address","indexed":true,"internalType":"address"}],"anonymous":false},{"type":"event","name":"ManagerRemoved","inputs":[{"name":"manager","type":"address","indexed":true,"internalType":"address"}],"anonymous":false},{"type":"event","name":"Paused","inputs":[{"name":"account","type":"address","indexed":false,"internalType":"address"}],"anonymous":false},{"type":"event","name":"RoleAdminChanged","inputs":[{"name":"role","type":"bytes32","indexed":true,"internalType":"bytes32"},{"name":"previousAdminRole","type":"bytes32","indexed":true,"internalType":"bytes32"},{"name":"newAdminRole","type":"bytes32","indexed":true,"internalType":"bytes32"}],"anonymous":false},{"type":"event","name":"RoleGranted","inputs":[{"name":"role","type":"bytes32","indexed":true,"internalType":"bytes32"},{"name":"account","type":"address","indexed":true,"internalType":"address"},{"name":"sender","type":"address","indexed":true,"internalType":"address"}],"anonymous":false},{"type":"event","name":"RoleRevoked","inputs":[{"name":"role","type":"bytes32","indexed":true,"internalType":"bytes32"},{"name":"account","type":"address","indexed":true,"internalType":"address"},{"name":"sender","type":"address","indexed":true,"internalType":"address"}],"anonymous":false},{"type":"event","name":"Unpaused","inputs":[{"name":"account","type":"address","indexed":false,"internalType":"address"}],"anonymous":false},{"type":"event","name":"Upgraded","inputs":[{"name":"implementation","type":"address","indexed":true,"internalType":"address"}],"anonymous":false},{"type":"error","name":"AccessControlBadConfirmation","inputs":[]},{"type":"error","name":"AccessControlUnauthorizedAccount","inputs":[{"name":"account","type":"address","internalType":"address"},{"name":"neededRole","type":"bytes32","internalType":"bytes32"}]},{"type":"error","name":"AddressEmptyCode","inputs":[{"name":"target","type":"address","internalType":"address"}]},{"type":"error","name":"AllocationAlreadyRevoked","inputs":[]},{"type":"error","name":"ArraysLengthMismatch","inputs":[]},{"type":"error","name":"CannotAddSelf","inputs":[]},{"type":"error","name":"CannotRemoveSelf","inputs":[]},{"type":"error","name":"DuplicateBeneficiary","inputs":[]},{"type":"error","name":"ERC1967InvalidImplementation","inputs":[{"name":"implementation","type":"address","internalType":"address"}]},{"type":"error","name":"ERC1967NonPayable","inputs":[]},{"type":"error","name":"EmptyBeneficiariesList","inputs":[]},{"type":"error","name":"EnforcedPause","inputs":[]},{"type":"error","name":"ExpectedPause","inputs":[]},{"type":"error","name":"FailedCall","inputs":[]},{"type":"error","name":"InvalidAddress","inputs":[]},{"type":"error","name":"InvalidAllocationId","inputs":[]},{"type":"error","name":"InvalidAmount","inputs":[]},{"type":"error","name":"InvalidAmountInBatch","inputs":[]},{"type":"error","name":"InvalidBeneficiary","inputs":[]},{"type":"error","name":"InvalidBeneficiaryInBatch","inputs":[]},{"type":"error","name":"InvalidInitialization","inputs":[]},{"type":"error","name":"NotAuthorized","inputs":[]},{"type":"error","name":"NotInitializing","inputs":[]},{"type":"error","name":"ReentrancyGuardReentrantCall","inputs":[]},{"type":"error","name":"TransferFailed","inputs":[]},{"type":"error","name":"UUPSUnauthorizedCallContext","inputs":[]},{"type":"error","name":"UUPSUnsupportedProxiableUUID","inputs":[{"name":"slot","type":"bytes32","internalType":"bytes32"}]},{"type":"error","name":"ZeroAddress","inputs":[{"name":"param","type":"string","internalType":"string"}]}],"bytecode":{"object":"0x60a060405230608052348015610013575f5ffd5b5061001c610021565b6100d3565b7ff0c57e16840df040f15088dc2f81fe391c3923bec73e23a9662efc9c229c6a00805468010000000000000000900460ff16156100715760405163f92ee8a960e01b815260040160405180910390fd5b80546001600160401b03908116146100d05780546001600160401b0319166001600160401b0390811782556040519081527fc7f505b2f371ae2175ee4913f4499e1f2633a7b5936321eed1cdaeb6115181d29060200160405180910390a15b50565b60805161238c6100f95f395f8181611989015281816119b20152611af5015261238c5ff3fe6080604052600436106101fc575f3560e01c8063788c2b2b11610113578063ad3cb1cc1161009d578063d77a52e51161006d578063d77a52e51461063a578063d8ab48ce14610658578063e66718711461066c578063ec87621c1461068d578063f3ae2415146106ad575f5ffd5b8063ad3cb1cc146105a0578063b0217862146105dd578063c4d66de8146105fc578063d547741f1461061b575f5ffd5b80638456cb59116100e35780638456cb591461051c57806391d14854146105305780639d2f62581461054f578063a217fddf1461056e578063ac18de4314610581575f5ffd5b8063788c2b2b146104935780637d06a9f1146104b25780637fd8a51d146104d15780637ffb452f146104f0575f5ffd5b806336568abe1161019457806352d1902d1161016457806352d1902d1461041e57806354fd4d50146104325780635c975abb146104475780635cd8a76b1461046a578063646f90f61461047e575f5ffd5b806336568abe146103a15780633c91e535146103c05780633f4ba83a146103f75780634f1ef2861461040b575f5ffd5b806320d5eb70116101cf57806320d5eb70146102dd578063248a9ca3146103425780632d06177a146103615780632f2ff15d14610382575f5ffd5b806301ffc9a7146102005780630437e2bf146102345780630a2642bf146102535780630d8e6e2c146102bf575b5f5ffd5b34801561020b575f5ffd5b5061021f61021a366004611e6a565b6106cc565b60405190151581526020015b60405180910390f35b34801561023f575f5ffd5b5061021f61024e366004611e91565b610702565b34801561025e575f5ffd5b5061029a61026d366004611e91565b60376020525f9081526040902080546001909101546001600160a01b03811690600160a01b900460ff1683565b604080519384526001600160a01b03909216602084015215159082015260600161022b565b3480156102ca575f5ffd5b506039545b60405190815260200161022b565b3480156102e8575f5ffd5b5061029a6102f7366004611e91565b5f90815260376020908152604091829020825160608101845281548082526001909201546001600160a01b038116938201849052600160a01b900460ff161515930183905292909190565b34801561034d575f5ffd5b506102cf61035c366004611e91565b610838565b34801561036c575f5ffd5b5061038061037b366004611ebe565b610858565b005b34801561038d575f5ffd5b5061038061039c366004611ed7565b61099c565b3480156103ac575f5ffd5b506103806103bb366004611ed7565b6109be565b3480156103cb575f5ffd5b506001546103df906001600160a01b031681565b6040516001600160a01b03909116815260200161022b565b348015610402575f5ffd5b506103806109f6565b610380610419366004611f15565b610a08565b348015610429575f5ffd5b506102cf610a27565b34801561043d575f5ffd5b506102cf60395481565b348015610452575f5ffd5b505f5160206123175f395f51905f525460ff1661021f565b348015610475575f5ffd5b50610380610a42565b348015610489575f5ffd5b506102cf603a5481565b34801561049e575f5ffd5b506102cf6104ad366004611fd9565b610b26565b3480156104bd575f5ffd5b506102cf6104cc366004612049565b610cb7565b3480156104dc575f5ffd5b506102cf6104eb366004611fd9565b611031565b3480156104fb575f5ffd5b5061050f61050a366004611ebe565b611160565b60405161022b91906120b5565b348015610527575f5ffd5b506103806111c9565b34801561053b575f5ffd5b5061021f61054a366004611ed7565b6111db565b34801561055a575f5ffd5b5061021f6105693660046120f7565b611211565b348015610579575f5ffd5b506102cf5f81565b34801561058c575f5ffd5b5061038061059b366004611ebe565b611387565b3480156105ab575f5ffd5b506105d0604051806040016040528060058152602001640352e302e360dc1b81525081565b60405161022b9190612117565b3480156105e8575f5ffd5b506102cf6105f7366004611fd9565b611565565b348015610607575f5ffd5b50610380610616366004611ebe565b611590565b348015610626575f5ffd5b50610380610635366004611ed7565b61170d565b348015610645575f5ffd5b505f546103df906001600160a01b031681565b348015610663575f5ffd5b50603a546102cf565b348015610677575f5ffd5b50610680611729565b60405161022b919061214c565b348015610698575f5ffd5b506102cf5f5160206122d75f395f51905f5281565b3480156106b8575f5ffd5b5061021f6106c7366004611ebe565b611789565b5f6001600160e01b03198216637965db0b60e01b14806106fc57506301ffc9a760e01b6001600160e01b03198316145b92915050565b5f61070b6117b1565b6107225f5160206122d75f395f51905f52336111db565b15801561073657506107345f336111db565b155b156107545760405163ea8e4eb560e01b815260040160405180910390fd5b811580610762575060035482115b156107805760405163539fd13f60e01b815260040160405180910390fd5b5f8281526037602052604090206001810154600160a01b900460ff16156107ba5760405163d1ba89a160e01b815260040160405180910390fd5b600181018054600160a01b60ff60a01b19821617909155815460408051918252602082018690526001600160a01b03909216917f22b5b8d9c2333ceba3cb318ed232eab23c41fc1d0982837163b31da2481f99d1910160405180910390a2600191505061083360015f5160206123375f395f51905f5255565b919050565b5f9081525f5160206122f75f395f51905f52602052604090206001015490565b61086f5f5160206122d75f395f51905f52336111db565b15801561088357506108815f336111db565b155b156108a15760405163ea8e4eb560e01b815260040160405180910390fd5b6001600160a01b0381166108c85760405163e6c4247b60e01b815260040160405180910390fd5b336001600160a01b038216036108f157604051634adf4c3560e01b815260040160405180910390fd5b6109085f5160206122d75f395f51905f52826111db565b610999576109235f5160206122d75f395f51905f52826117fb565b50600280546001810182555f9182527f405787fa12a823e0f2b7631cc41b3ba8828b3321ca811111fa75cd3aa3bb5ace0180546001600160a01b0319166001600160a01b03841690811790915560405190917f38df1bd3c36a1220b3188069bf566441234d3974d04571a6ac191eb9ad08f1a491a25b50565b6109a582610838565b6109ae8161189c565b6109b883836117fb565b50505050565b6001600160a01b03811633146109e75760405163334bd91960e11b815260040160405180910390fd5b6109f182826118a6565b505050565b5f610a008161189c565b61099961191f565b610a1061197e565b610a1982611a24565b610a238282611a2e565b5050565b5f610a30611aea565b505f5160206122b75f395f51905f5290565b60025f610a4d611b33565b8054909150600160401b900460ff1680610a755750805467ffffffffffffffff808416911610155b15610a935760405163f92ee8a960e01b815260040160405180910390fd5b805468ffffffffffffffffff191667ffffffffffffffff831617600160401b178155610abd611b5b565b610ac5611b6b565b610acd611b6b565b610ad5611b6b565b6002603955805460ff60401b1916815560405167ffffffffffffffff831681527fc7f505b2f371ae2175ee4913f4499e1f2633a7b5936321eed1cdaeb6115181d29060200160405180910390a15050565b5f610b2f611b73565b610b376117b1565b610b4e5f5160206122d75f395f51905f52336111db565b158015610b625750610b605f336111db565b155b15610b805760405163ea8e4eb560e01b815260040160405180910390fd5b6001600160a01b038316610ba757604051631559b7d760e21b815260040160405180910390fd5b5f8211610bc75760405163162908e360e11b815260040160405180910390fd5b60038054905f610bd6836121a0565b9091555050604080516060810182528381526001600160a01b0380861660208084018281525f858701818152600380548352603785528883209751885592516001978801805492511515600160a01b026001600160a81b031990931691909716171790945582845260388252858420815481549687018255908552919093209093019290925554915190917fd6bbcdd3b0489f54c1a7fabef3bac5b6a1b8b701f4bfcc7b3acff0fc901b514591610c9591868252602082015260400190565b60405180910390a2506003546106fc60015f5160206123375f395f51905f5255565b5f610cc0611b73565b610cc86117b1565b610cdf5f5160206122d75f395f51905f52336111db565b158015610cf35750610cf15f336111db565b155b15610d115760405163ea8e4eb560e01b815260040160405180910390fd5b5f849003610d325760405163704c17ad60e01b815260040160405180910390fd5b838214610d52576040516307e11acb60e51b815260040160405180910390fd5b60048054905f610d61836121a0565b909155505f90505b84811015610fcd575f868683818110610d8457610d846121b8565b9050602002016020810190610d999190611ebe565b6001600160a01b031603610dc057604051631559b7d760e21b815260040160405180910390fd5b838382818110610dd257610dd26121b8565b905060200201355f03610df8576040516372c4d34360e11b815260040160405180910390fd5b60038054905f610e07836121a0565b91905055506040518060600160405280858584818110610e2957610e296121b8565b905060200201358152602001878784818110610e4757610e476121b8565b9050602002016020810190610e5c9190611ebe565b6001600160a01b0390811682525f602092830181905260035481526037835260408082208551815593850151600194909401805495909101511515600160a01b026001600160a81b0319909516939092169290921792909217909155603890878784818110610ecd57610ecd6121b8565b9050602002016020810190610ee29190611ebe565b6001600160a01b03908116825260208083019390935260409091015f908120600354815460018101835591835293822001929092559054166340c10f19878784818110610f3157610f316121b8565b9050602002016020810190610f469190611ebe565b868685818110610f5857610f586121b8565b6040516001600160e01b031960e087901b1681526001600160a01b03909416600485015260200291909101356024830152506044015f604051808303815f87803b158015610fa4575f5ffd5b505af1158015610fb6573d5f5f3e3d5ffd5b505050508080610fc5906121a0565b915050610d69565b7f880226920609f09960cec58c8b49f1f27c2d31cbdc944090cf70cc4571dd4bfe868686866004546040516110069594939291906121cc565b60405180910390a1505060045461102960015f5160206123375f395f51905f5255565b949350505050565b5f8061103c8161189c565b6001600160a01b03841661108d5760405162461bcd60e51b8152602060048201526013602482015272496e76616c69642062656e656669636961727960681b60448201526064015b60405180910390fd5b5f83116110dc5760405162461bcd60e51b815260206004820152601d60248201527f416d6f756e74206d7573742062652067726561746572207468616e20300000006044820152606401611084565b82603a5f8282546110ed919061224f565b909155505060405163788c2b2b60e01b81526001600160a01b038516600482015260248101849052309063788c2b2b906044016020604051808303815f875af115801561113c573d5f5f3e3d5ffd5b505050506040513d601f19601f820116820180604052508101906110299190612262565b6001600160a01b0381165f908152603860209081526040918290208054835181840281018401909452808452606093928301828280156111bd57602002820191905f5260205f20905b8154815260200190600101908083116111a9575b50505050509050919050565b5f6111d38161189c565b610999611ba3565b5f9182525f5160206122f75f395f51905f52602090815260408084206001600160a01b0393909316845291905290205460ff1690565b5f61121a6117b1565b6112315f5160206122d75f395f51905f52336111db565b15801561124557506112435f336111db565b155b156112635760405163ea8e4eb560e01b815260040160405180910390fd5b821580611271575060035483115b1561128f5760405163539fd13f60e01b815260040160405180910390fd5b815f036112af5760405163162908e360e11b815260040160405180910390fd5b5f8381526037602052604090206001810154600160a01b900460ff16156112e95760405163d1ba89a160e01b815260040160405180910390fd5b805483111561130b5760405163162908e360e11b815260040160405180910390fd5b82815f015f82825461131d9190612279565b9091555050600181015460408051858152602081018790526001600160a01b03909216917f22b5b8d9c2333ceba3cb318ed232eab23c41fc1d0982837163b31da2481f99d1910160405180910390a260019150506106fc60015f5160206123375f395f51905f5255565b61139e5f5160206122d75f395f51905f52336111db565b1580156113b257506113b05f336111db565b155b156113d05760405163ea8e4eb560e01b815260040160405180910390fd5b6001600160a01b0381166113f75760405163e6c4247b60e01b815260040160405180910390fd5b336001600160a01b0382160361142057604051635e03d55f60e01b815260040160405180910390fd5b6114375f5160206122d75f395f51905f52826118a6565b505f5b60025481101561152e57816001600160a01b031660028281548110611461576114616121b8565b5f918252602090912001546001600160a01b031603611526576002805461148a90600190612279565b8154811061149a5761149a6121b8565b5f91825260209091200154600280546001600160a01b0390921691839081106114c5576114c56121b8565b905f5260205f20015f6101000a8154816001600160a01b0302191690836001600160a01b0316021790555060028054806115015761150161228c565b5f8281526020902081015f1990810180546001600160a01b031916905501905561152e565b60010161143a565b506040516001600160a01b038216907fef69f7d97228658c92417be1b16b19058315de71fecb435d07b7d23728b6bd31905f90a250565b6038602052815f5260405f20818154811061157e575f80fd5b905f5260205f20015f91509150505481565b5f611599611b33565b805490915060ff600160401b820416159067ffffffffffffffff165f811580156115c05750825b90505f8267ffffffffffffffff1660011480156115dc5750303b155b9050811580156115ea575080155b156116085760405163f92ee8a960e01b815260040160405180910390fd5b845467ffffffffffffffff19166001178555831561163257845460ff60401b1916600160401b1785555b6001600160a01b0386166116715760405163eac0d38960e01b81526020600482015260056024820152643a37b5b2b760d91b6044820152606401611084565b611679611b6b565b611681611b6b565b611689611b6b565b611691611b5b565b5f80546001600160a01b0319166001600160a01b0388161781556116b590336117fb565b505f6003819055600455831561170557845460ff60401b19168555604051600181527fc7f505b2f371ae2175ee4913f4499e1f2633a7b5936321eed1cdaeb6115181d29060200160405180910390a15b505050505050565b61171682610838565b61171f8161189c565b6109b883836118a6565b6060600280548060200260200160405190810160405280929190818152602001828054801561177f57602002820191905f5260205f20905b81546001600160a01b03168152600190910190602001808311611761575b5050505050905090565b5f61179481836111db565b806106fc57506106fc5f5160206122d75f395f51905f52836111db565b5f5160206123375f395f51905f528054600119016117e257604051633ee5aeb560e01b815260040160405180910390fd5b60029055565b60015f5160206123375f395f51905f5255565b5f5f5160206122f75f395f51905f5261181484846111db565b611893575f848152602082815260408083206001600160a01b03871684529091529020805460ff191660011790556118493390565b6001600160a01b0316836001600160a01b0316857f2f8788117e7eff1d82e926ec794901d17c78024a50270940304540a733656f0d60405160405180910390a460019150506106fc565b5f9150506106fc565b6109998133611beb565b5f5f5160206122f75f395f51905f526118bf84846111db565b15611893575f848152602082815260408083206001600160a01b0387168085529252808320805460ff1916905551339287917ff6391f5c32d9c69d2a47ea670b442974b53935d1edc7fd64eb21e047a839171b9190a460019150506106fc565b611927611c24565b5f5160206123175f395f51905f52805460ff191681557f5db9ee0a495bf2e6ff9c91a7834c1ba4fdd244a5e8aa4e537bd38aeae4b073aa335b6040516001600160a01b03909116815260200160405180910390a150565b306001600160a01b037f0000000000000000000000000000000000000000000000000000000000000000161480611a0457507f00000000000000000000000000000000000000000000000000000000000000006001600160a01b03166119f85f5160206122b75f395f51905f52546001600160a01b031690565b6001600160a01b031614155b15611a225760405163703e46dd60e11b815260040160405180910390fd5b565b5f610a238161189c565b816001600160a01b03166352d1902d6040518163ffffffff1660e01b8152600401602060405180830381865afa925050508015611a88575060408051601f3d908101601f19168201909252611a8591810190612262565b60015b611ab057604051634c9c8ce360e01b81526001600160a01b0383166004820152602401611084565b5f5160206122b75f395f51905f528114611ae057604051632a87526960e21b815260048101829052602401611084565b6109f18383611c53565b306001600160a01b037f00000000000000000000000000000000000000000000000000000000000000001614611a225760405163703e46dd60e11b815260040160405180910390fd5b5f807ff0c57e16840df040f15088dc2f81fe391c3923bec73e23a9662efc9c229c6a006106fc565b611b63611ca8565b611a22611ccd565b611a22611ca8565b5f5160206123175f395f51905f525460ff1615611a225760405163d93c066560e01b815260040160405180910390fd5b611bab611b73565b5f5160206123175f395f51905f52805460ff191660011781557f62e78cea01bee320cd4e420270b5ea74000d11b0c9f74754ebdbfc544b05a25833611960565b611bf582826111db565b610a235760405163e2517d3f60e01b81526001600160a01b038216600482015260248101839052604401611084565b5f5160206123175f395f51905f525460ff16611a2257604051638dfc202b60e01b815260040160405180910390fd5b611c5c82611cd5565b6040516001600160a01b038316907fbc7cd75a20ee27fd9adebab32041f755214dbc6bffa90cc0225b39da2e5c2d3b905f90a2805115611ca0576109f18282611d38565b610a23611daa565b611cb0611dc9565b611a2257604051631afcd79f60e31b815260040160405180910390fd5b6117e8611ca8565b806001600160a01b03163b5f03611d0a57604051634c9c8ce360e01b81526001600160a01b0382166004820152602401611084565b5f5160206122b75f395f51905f5280546001600160a01b0319166001600160a01b0392909216919091179055565b60605f5f846001600160a01b031684604051611d5491906122a0565b5f60405180830381855af49150503d805f8114611d8c576040519150601f19603f3d011682016040523d82523d5f602084013e611d91565b606091505b5091509150611da1858383611de2565b95945050505050565b3415611a225760405163b398979f60e01b815260040160405180910390fd5b5f611dd2611b33565b54600160401b900460ff16919050565b606082611df757611df282611e41565b611e3a565b8151158015611e0e57506001600160a01b0384163b155b15611e3757604051639996b31560e01b81526001600160a01b0385166004820152602401611084565b50805b9392505050565b805115611e515780518082602001fd5b60405163d6bda27560e01b815260040160405180910390fd5b5f60208284031215611e7a575f5ffd5b81356001600160e01b031981168114611e3a575f5ffd5b5f60208284031215611ea1575f5ffd5b5035919050565b80356001600160a01b0381168114610833575f5ffd5b5f60208284031215611ece575f5ffd5b611e3a82611ea8565b5f5f60408385031215611ee8575f5ffd5b82359150611ef860208401611ea8565b90509250929050565b634e487b7160e01b5f52604160045260245ffd5b5f5f60408385031215611f26575f5ffd5b611f2f83611ea8565b9150602083013567ffffffffffffffff811115611f4a575f5ffd5b8301601f81018513611f5a575f5ffd5b803567ffffffffffffffff811115611f7457611f74611f01565b604051601f8201601f19908116603f0116810167ffffffffffffffff81118282101715611fa357611fa3611f01565b604052818152828201602001871015611fba575f5ffd5b816020840160208301375f602083830101528093505050509250929050565b5f5f60408385031215611fea575f5ffd5b611ff383611ea8565b946020939093013593505050565b5f5f83601f840112612011575f5ffd5b50813567ffffffffffffffff811115612028575f5ffd5b6020830191508360208260051b8501011115612042575f5ffd5b9250929050565b5f5f5f5f6040858703121561205c575f5ffd5b843567ffffffffffffffff811115612072575f5ffd5b61207e87828801612001565b909550935050602085013567ffffffffffffffff81111561209d575f5ffd5b6120a987828801612001565b95989497509550505050565b602080825282518282018190525f918401906040840190835b818110156120ec5783518352602093840193909201916001016120ce565b509095945050505050565b5f5f60408385031215612108575f5ffd5b50508035926020909101359150565b602081525f82518060208401528060208501604085015e5f604082850101526040601f19601f83011684010191505092915050565b602080825282518282018190525f918401906040840190835b818110156120ec5783516001600160a01b0316835260209384019390920191600101612165565b634e487b7160e01b5f52601160045260245ffd5b5f600182016121b1576121b161218c565b5060010190565b634e487b7160e01b5f52603260045260245ffd5b606080825281018590525f8660808301825b8881101561220c576001600160a01b036121f784611ea8565b168252602092830192909101906001016121de565b5083810360208501528581526001600160fb1b0386111561222b575f5ffd5b8560051b915081876020830137604093909301939093525001602001949350505050565b808201808211156106fc576106fc61218c565b5f60208284031215612272575f5ffd5b5051919050565b818103818111156106fc576106fc61218c565b634e487b7160e01b5f52603160045260245ffd5b5f82518060208501845e5f92019182525091905056fe360894a13ba1a3210667c828492db98dca3e2076cc3735a920a3ca505d382bbc241ecf16d79d0f8dbfb92cbc07fe17840425976cf0667f022fe9877caa831b0802dd7bc7dec4dceedda775e58dd541e08a116c6c53815c0bd028192f7b626800cd5ed15c6e187e77e9aee88184c21f4f2182ab5827cb3b7e07fbedcd63f033009b779b17422d0df92223018b32b4d1fa46e071723d6817e2486d003becc55f00a2646970667358221220e7b0dbd51f037a5273e0647b306a21491b770c9a0b0f4f4fb50c6999b9839a2164736f6c634300081c0033","linkReferences":{}},"methodIdentifiers":{"DEFAULT_ADMIN_ROLE()":"a217fddf","MANAGER_ROLE()":"ec87621c","UPGRADE_INTERFACE_VERSION()":"ad3cb1cc","addManager(address)":"2d06177a","allocations(uint256)":"0a2642bf","beneficiaryAllocations(address,uint256)":"b0217862","createAllocation(address,uint256)":"788c2b2b","createAllocationV2(address,uint256)":"7fd8a51d","executeAirdrop(address[],uint256[])":"7d06a9f1","getAllManagers()":"e6671871","getAllocationById(uint256)":"20d5eb70","getAllocationsForBeneficiary(address)":"7ffb452f","getRoleAdmin(bytes32)":"248a9ca3","getTotalAllocatedV2()":"d8ab48ce","getVersion()":"0d8e6e2c","grantRole(bytes32,address)":"2f2ff15d","hasRole(bytes32,address)":"91d14854","initialize(address)":"c4d66de8","initializeV2()":"5cd8a76b","isManager(address)":"f3ae2415","pause()":"8456cb59","paused()":"5c975abb","proxiableUUID()":"52d1902d","reduceAllocation(uint256,uint256)":"9d2f6258","removeManager(address)":"ac18de43","renounceRole(bytes32,address)":"36568abe","revokeAllocation(uint256)":"0437e2bf","revokeRole(bytes32,address)":"d547741f","supportsInterface(bytes4)":"01ffc9a7","totalAllocatedV2()":"646f90f6","ttnToken()":"d77a52e5","unpause()":"3f4ba83a","upgradeToAndCall(address,bytes)":"4f1ef286","version()":"54fd4d50","vestingManagerAddress()":"3c91e535"},"id":7}