{"abi":[{"type":"function","name":"DEFAULT_ADMIN_ROLE","inputs":[],"outputs":[{"name":"","type":"bytes32","internalType":"bytes32"}],"stateMutability":"view"},{"type":"function","name":"MAX_SUPPLY","inputs":[],"outputs":[{"name":"","type":"uint256","internalType":"uint256"}],"stateMutability":"view"},{"type":"function","name":"UPGRADE_INTERFACE_VERSION","inputs":[],"outputs":[{"name":"","type":"string","internalType":"string"}],"stateMutability":"view"},{"type":"function","name":"allowance","inputs":[{"name":"owner","type":"address","internalType":"address"},{"name":"spender","type":"address","internalType":"address"}],"outputs":[{"name":"","type":"uint256","internalType":"uint256"}],"stateMutability":"view"},{"type":"function","name":"approve","inputs":[{"name":"spender","type":"address","internalType":"address"},{"name":"value","type":"uint256","internalType":"uint256"}],"outputs":[{"name":"","type":"bool","internalType":"bool"}],"stateMutability":"nonpayable"},{"type":"function","name":"balanceOf","inputs":[{"name":"account","type":"address","internalType":"address"}],"outputs":[{"name":"","type":"uint256","internalType":"uint256"}],"stateMutability":"view"},{"type":"function","name":"burn","inputs":[{"name":"value","type":"uint256","internalType":"uint256"}],"outputs":[],"stateMutability":"nonpayable"},{"type":"function","name":"burnFrom","inputs":[{"name":"account","type":"address","internalType":"address"},{"name":"value","type":"uint256","internalType":"uint256"}],"outputs":[],"stateMutability":"nonpayable"},{"type":"function","name":"cap","inputs":[],"outputs":[{"name":"","type":"uint256","internalType":"uint256"}],"stateMutability":"view"},{"type":"function","name":"decimals","inputs":[],"outputs":[{"name":"","type":"uint8","internalType":"uint8"}],"stateMutability":"view"},{"type":"function","name":"getRemainingMintableTokens","inputs":[],"outputs":[{"name":"","type":"uint256","internalType":"uint256"}],"stateMutability":"view"},{"type":"function","name":"getRoleAdmin","inputs":[{"name":"role","type":"bytes32","internalType":"bytes32"}],"outputs":[{"name":"","type":"bytes32","internalType":"bytes32"}],"stateMutability":"view"},{"type":"function","name":"getTokenBalance","inputs":[{"name":"walletAddress","type":"address","internalType":"address"}],"outputs":[{"name":"","type":"uint256","internalType":"uint256"}],"stateMutability":"view"},{"type":"function","name":"getTotalMinted","inputs":[],"outputs":[{"name":"","type":"uint256","internalType":"uint256"}],"stateMutability":"view"},{"type":"function","name":"grantRole","inputs":[{"name":"role","type":"bytes32","internalType":"bytes32"},{"name":"account","type":"address","internalType":"address"}],"outputs":[],"stateMutability":"nonpayable"},{"type":"function","name":"hasRole","inputs":[{"name":"role","type":"bytes32","internalType":"bytes32"},{"name":"account","type":"address","internalType":"address"}],"outputs":[{"name":"","type":"bool","internalType":"bool"}],"stateMutability":"view"},{"type":"function","name":"initialize","inputs":[],"outputs":[],"stateMutability":"nonpayable"},{"type":"function","name":"initializeV2","inputs":[],"outputs":[],"stateMutability":"nonpayable"},{"type":"function","name":"mint","inputs":[{"name":"to","type":"address","internalType":"address"},{"name":"amount","type":"uint256","internalType":"uint256"}],"outputs":[],"stateMutability":"nonpayable"},{"type":"function","name":"name","inputs":[],"outputs":[{"name":"","type":"string","internalType":"string"}],"stateMutability":"view"},{"type":"function","name":"owner","inputs":[],"outputs":[{"name":"","type":"address","internalType":"address"}],"stateMutability":"view"},{"type":"function","name":"pause","inputs":[],"outputs":[],"stateMutability":"nonpayable"},{"type":"function","name":"paused","inputs":[],"outputs":[{"name":"","type":"bool","internalType":"bool"}],"stateMutability":"view"},{"type":"function","name":"proxiableUUID","inputs":[],"outputs":[{"name":"","type":"bytes32","internalType":"bytes32"}],"stateMutability":"view"},{"type":"function","name":"renounceOwnership","inputs":[],"outputs":[],"stateMutability":"nonpayable"},{"type":"function","name":"renounceRole","inputs":[{"name":"role","type":"bytes32","internalType":"bytes32"},{"name":"callerConfirmation","type":"address","internalType":"address"}],"outputs":[],"stateMutability":"nonpayable"},{"type":"function","name":"revokeRole","inputs":[{"name":"role","type":"bytes32","internalType":"bytes32"},{"name":"account","type":"address","internalType":"address"}],"outputs":[],"stateMutability":"nonpayable"},{"type":"function","name":"supportsInterface","inputs":[{"name":"interfaceId","type":"bytes4","internalType":"bytes4"}],"outputs":[{"name":"","type":"bool","internalType":"bool"}],"stateMutability":"view"},{"type":"function","name":"symbol","inputs":[],"outputs":[{"name":"","type":"string","internalType":"string"}],"stateMutability":"view"},{"type":"function","name":"totalSupply","inputs":[],"outputs":[{"name":"","type":"uint256","internalType":"uint256"}],"stateMutability":"view"},{"type":"function","name":"transfer","inputs":[{"name":"to","type":"address","internalType":"address"},{"name":"value","type":"uint256","internalType":"uint256"}],"outputs":[{"name":"","type":"bool","internalType":"bool"}],"stateMutability":"nonpayable"},{"type":"function","name":"transferFrom","inputs":[{"name":"from","type":"address","internalType":"address"},{"name":"to","type":"address","internalType":"address"},{"name":"value","type":"uint256","internalType":"uint256"}],"outputs":[{"name":"","type":"bool","internalType":"bool"}],"stateMutability":"nonpayable"},{"type":"function","name":"transferOwnership","inputs":[{"name":"newOwner","type":"address","internalType":"address"}],"outputs":[],"stateMutability":"nonpayable"},{"type":"function","name":"transferTokenAdmin","inputs":[{"name":"newAdmin","type":"address","internalType":"address"}],"outputs":[],"stateMutability":"nonpayable"},{"type":"function","name":"unpause","inputs":[],"outputs":[],"stateMutability":"nonpayable"},{"type":"function","name":"upgradeToAndCall","inputs":[{"name":"newImplementation","type":"address","internalType":"address"},{"name":"data","type":"bytes","internalType":"bytes"}],"outputs":[],"stateMutability":"payable"},{"type":"function","name":"version","inputs":[],"outputs":[{"name":"","type":"uint256","internalType":"uint256"}],"stateMutability":"view"},{"type":"event","name":"Approval","inputs":[{"name":"owner","type":"address","indexed":true,"internalType":"address"},{"name":"spender","type":"address","indexed":true,"internalType":"address"},{"name":"value","type":"uint256","indexed":false,"internalType":"uint256"}],"anonymous":false},{"type":"event","name":"DefaultAdminTransferred","inputs":[{"name":"previousAdmin","type":"address","indexed":true,"internalType":"address"},{"name":"newAdmin","type":"address","indexed":true,"internalType":"address"}],"anonymous":false},{"type":"event","name":"Initialized","inputs":[{"name":"version","type":"uint64","indexed":false,"internalType":"uint64"}],"anonymous":false},{"type":"event","name":"OwnershipTransferred","inputs":[{"name":"previousOwner","type":"address","indexed":true,"internalType":"address"},{"name":"newOwner","type":"address","indexed":true,"internalType":"address"}],"anonymous":false},{"type":"event","name":"Paused","inputs":[{"name":"account","type":"address","indexed":false,"internalType":"address"}],"anonymous":false},{"type":"event","name":"RoleAdminChanged","inputs":[{"name":"role","type":"bytes32","indexed":true,"internalType":"bytes32"},{"name":"previousAdminRole","type":"bytes32","indexed":true,"internalType":"bytes32"},{"name":"newAdminRole","type":"bytes32","indexed":true,"internalType":"bytes32"}],"anonymous":false},{"type":"event","name":"RoleGranted","inputs":[{"name":"role","type":"bytes32","indexed":true,"internalType":"bytes32"},{"name":"account","type":"address","indexed":true,"internalType":"address"},{"name":"sender","type":"address","indexed":true,"internalType":"address"}],"anonymous":false},{"type":"event","name":"RoleRevoked","inputs":[{"name":"role","type":"bytes32","indexed":true,"internalType":"bytes32"},{"name":"account","type":"address","indexed":true,"internalType":"address"},{"name":"sender","type":"address","indexed":true,"internalType":"address"}],"anonymous":false},{"type":"event","name":"Transfer","inputs":[{"name":"from","type":"address","indexed":true,"internalType":"address"},{"name":"to","type":"address","indexed":true,"internalType":"address"},{"name":"value","type":"uint256","indexed":false,"internalType":"uint256"}],"anonymous":false},{"type":"event","name":"Unpaused","inputs":[{"name":"account","type":"address","indexed":false,"internalType":"address"}],"anonymous":false},{"type":"event","name":"Upgraded","inputs":[{"name":"implementation","type":"address","indexed":true,"internalType":"address"}],"anonymous":false},{"type":"error","name":"AccessControlBadConfirmation","inputs":[]},{"type":"error","name":"AccessControlUnauthorizedAccount","inputs":[{"name":"account","type":"address","internalType":"address"},{"name":"neededRole","type":"bytes32","internalType":"bytes32"}]},{"type":"error","name":"AddressEmptyCode","inputs":[{"name":"target","type":"address","internalType":"address"}]},{"type":"error","name":"AdminRoleGrantingDisabled","inputs":[]},{"type":"error","name":"CannotTransferToSelf","inputs":[]},{"type":"error","name":"ERC1967InvalidImplementation","inputs":[{"name":"implementation","type":"address","internalType":"address"}]},{"type":"error","name":"ERC1967NonPayable","inputs":[]},{"type":"error","name":"ERC20ExceededCap","inputs":[{"name":"increasedSupply","type":"uint256","internalType":"uint256"},{"name":"cap","type":"uint256","internalType":"uint256"}]},{"type":"error","name":"ERC20InsufficientAllowance","inputs":[{"name":"spender","type":"address","internalType":"address"},{"name":"allowance","type":"uint256","internalType":"uint256"},{"name":"needed","type":"uint256","internalType":"uint256"}]},{"type":"error","name":"ERC20InsufficientBalance","inputs":[{"name":"sender","type":"address","internalType":"address"},{"name":"balance","type":"uint256","internalType":"uint256"},{"name":"needed","type":"uint256","internalType":"uint256"}]},{"type":"error","name":"ERC20InvalidApprover","inputs":[{"name":"approver","type":"address","internalType":"address"}]},{"type":"error","name":"ERC20InvalidCap","inputs":[{"name":"cap","type":"uint256","internalType":"uint256"}]},{"type":"error","name":"ERC20InvalidReceiver","inputs":[{"name":"receiver","type":"address","internalType":"address"}]},{"type":"error","name":"ERC20InvalidSender","inputs":[{"name":"sender","type":"address","internalType":"address"}]},{"type":"error","name":"ERC20InvalidSpender","inputs":[{"name":"spender","type":"address","internalType":"address"}]},{"type":"error","name":"EnforcedPause","inputs":[]},{"type":"error","name":"ExpectedPause","inputs":[]},{"type":"error","name":"FailedCall","inputs":[]},{"type":"error","name":"InvalidAddress","inputs":[]},{"type":"error","name":"InvalidAmount","inputs":[]},{"type":"error","name":"InvalidInitialization","inputs":[]},{"type":"error","name":"MaxSupplyExceeded","inputs":[{"name":"requested","type":"uint256","internalType":"uint256"},{"name":"available","type":"uint256","internalType":"uint256"}]},{"type":"error","name":"NotAuthorized","inputs":[]},{"type":"error","name":"NotInitializing","inputs":[]},{"type":"error","name":"OwnableInvalidOwner","inputs":[{"name":"owner","type":"address","internalType":"address"}]},{"type":"error","name":"OwnableUnauthorizedAccount","inputs":[{"name":"account","type":"address","internalType":"address"}]},{"type":"error","name":"UUPSUnauthorizedCallContext","inputs":[]},{"type":"error","name":"UUPSUnsupportedProxiableUUID","inputs":[{"name":"slot","type":"bytes32","internalType":"bytes32"}]}],"bytecode":{"object":"0x60a060405230608052348015610013575f5ffd5b5061001c610021565b6100d3565b7ff0c57e16840df040f15088dc2f81fe391c3923bec73e23a9662efc9c229c6a00805468010000000000000000900460ff16156100715760405163f92ee8a960e01b815260040160405180910390fd5b80546001600160401b03908116146100d05780546001600160401b0319166001600160401b0390811782556040519081527fc7f505b2f371ae2175ee4913f4499e1f2633a7b5936321eed1cdaeb6115181d29060200160405180910390a15b50565b608051611ee56100f95f395f81816111130152818161113c015261127d0152611ee55ff3fe608060405260043610610212575f3560e01c806354fd4d501161011e57806391d14854116100a8578063d159df5c1161006d578063d159df5c146105eb578063d547741f146105ff578063dd62ed3e1461061e578063f2fde38b1461063d578063fd7ae0971461065c575f5ffd5b806391d148541461055657806395d89b4114610575578063a217fddf14610589578063a9059cbb1461059c578063ad3cb1cc146105bb575f5ffd5b8063715018a6116100ee578063715018a6146104b557806379cc6790146104c95780638129fc1c146104e85780638456cb59146104fc5780638da5cb5b14610510575f5ffd5b806354fd4d501461044a5780635c975abb1461045f5780635cd8a76b1461048257806370a0823114610496575f5ffd5b806332cb6b0c1161019f5780633f4ba83a1161016f5780633f4ba83a146103d157806340c10f19146103e557806342966c68146104045780634f1ef2861461042357806352d1902d14610436575f5ffd5b806332cb6b0c14610341578063355274ea1461036057806336568abe146103935780633aecd0e3146103b2575f5ffd5b806318160ddd116101e557806318160ddd146102a757806323b872dd146102c7578063248a9ca3146102e65780632f2ff15d14610305578063313ce56714610326575f5ffd5b806301ffc9a71461021657806306fdde031461024a578063095ea7b31461026b5780630ca1c5c91461028a575b5f5ffd5b348015610221575f5ffd5b50610235610230366004611a3e565b61067b565b60405190151581526020015b60405180910390f35b348015610255575f5ffd5b5061025e6106b1565b6040516102419190611a65565b348015610276575f5ffd5b50610235610285366004611ab5565b610771565b348015610295575f5ffd5b505f545b604051908152602001610241565b3480156102b2575f5ffd5b505f516020611e305f395f51905f5254610299565b3480156102d2575f5ffd5b506102356102e1366004611add565b610788565b3480156102f1575f5ffd5b50610299610300366004611b17565b6107ad565b348015610310575f5ffd5b5061032461031f366004611b2e565b6107cd565b005b348015610331575f5ffd5b5060405160128152602001610241565b34801561034c575f5ffd5b506102996b033b2e3c9fd0803ce800000081565b34801561036b575f5ffd5b507f0f070392f17d5f958cc1ac31867dabecfc5c9758b4a419a200803226d7155d0054610299565b34801561039e575f5ffd5b506103246103ad366004611b2e565b6107ef565b3480156103bd575f5ffd5b506102996103cc366004611b58565b610827565b3480156103dc575f5ffd5b50610324610831565b3480156103f0575f5ffd5b506103246103ff366004611ab5565b610846565b34801561040f575f5ffd5b5061032461041e366004611b17565b6108f6565b610324610431366004611b85565b610900565b348015610441575f5ffd5b5061029961091f565b348015610455575f5ffd5b5061029960335481565b34801561046a575f5ffd5b505f516020611e905f395f51905f525460ff16610235565b34801561048d575f5ffd5b5061032461093a565b3480156104a1575f5ffd5b506102996104b0366004611b58565b610a77565b3480156104c0575f5ffd5b50610324610a9d565b3480156104d4575f5ffd5b506103246104e3366004611ab5565b610ab0565b3480156104f3575f5ffd5b50610324610ac5565b348015610507575f5ffd5b50610324610c40565b34801561051b575f5ffd5b507f9016d09d72d40fdae2fd8ceac6b6234c7706214fd39c1cd1e609a0528c199300546040516001600160a01b039091168152602001610241565b348015610561575f5ffd5b50610235610570366004611b2e565b610c52565b348015610580575f5ffd5b5061025e610c88565b348015610594575f5ffd5b506102995f81565b3480156105a7575f5ffd5b506102356105b6366004611ab5565b610cc6565b3480156105c6575f5ffd5b5061025e604051806040016040528060058152602001640352e302e360dc1b81525081565b3480156105f6575f5ffd5b50610299610cd3565b34801561060a575f5ffd5b50610324610619366004611b2e565b610cf1565b348015610629575f5ffd5b50610299610638366004611c49565b610d0d565b348015610648575f5ffd5b50610324610657366004611b58565b610d56565b348015610667575f5ffd5b50610324610676366004611b58565b610d90565b5f6001600160e01b03198216637965db0b60e01b14806106ab57506301ffc9a760e01b6001600160e01b03198316145b92915050565b7f52c63247e1f47db19d5ce0460030c497f067ca4cebf71ba98eeadabe20bace0380546060915f516020611e105f395f51905f52916106ef90611c71565b80601f016020809104026020016040519081016040528092919081815260200182805461071b90611c71565b80156107665780601f1061073d57610100808354040283529160200191610766565b820191905f5260205f20905b81548152906001019060200180831161074957829003601f168201915b505050505091505090565b5f3361077e818585610e55565b5060019392505050565b5f33610795858285610e62565b6107a0858585610ec0565b60019150505b9392505050565b5f9081525f516020611e705f395f51905f52602052604090206001015490565b6107d6826107ad565b6107df81610f1d565b6107e98383610f27565b50505050565b6001600160a01b03811633146108185760405163334bd91960e11b815260040160405180910390fd5b6108228282610fc8565b505050565b5f6106ab82610a77565b5f61083b81610f1d565b610843611041565b50565b5f61085081610f1d565b6b033b2e3c9fd0803ce8000000826108735f516020611e305f395f51905f525490565b61087d9190611cbd565b11156108d657816108995f516020611e305f395f51905f525490565b6108af906b033b2e3c9fd0803ce8000000611cd0565b604051637502c12360e11b8152600481019290925260248201526044015b60405180910390fd5b815f5f8282546108e69190611cbd565b90915550610822905083836110a0565b61084333826110d4565b610908611108565b610911826111ac565b61091b82826111b6565b5050565b5f610928611272565b505f516020611e505f395f51905f5290565b60025f6109456112bb565b8054909150600160401b900460ff168061096d5750805467ffffffffffffffff808416911610155b1561098b5760405163f92ee8a960e01b815260040160405180910390fd5b805468ffffffffffffffffff191667ffffffffffffffff831617600160401b17815560408051808201825260098152682a2a27102a37b5b2b760b91b602080830191909152825180840190935260038352622a2a2760e91b908301526109f0916112e3565b610a056b033b2e3c9fd0803ce80000006112f5565b610a0e33611306565b610a16611317565b610a1e611317565b610a26611317565b6002603355805460ff60401b1916815560405167ffffffffffffffff831681527fc7f505b2f371ae2175ee4913f4499e1f2633a7b5936321eed1cdaeb6115181d29060200160405180910390a15050565b6001600160a01b03165f9081525f516020611e105f395f51905f52602052604090205490565b610aa561131f565b610aae5f61137a565b565b610abb823383610e62565b61091b82826110d4565b5f610ace6112bb565b805490915060ff600160401b820416159067ffffffffffffffff165f81158015610af55750825b90505f8267ffffffffffffffff166001148015610b115750303b155b905081158015610b1f575080155b15610b3d5760405163f92ee8a960e01b815260040160405180910390fd5b845467ffffffffffffffff191660011785558315610b6757845460ff60401b1916600160401b1785555b610ba7604051806040016040528060038152602001622a2a2760e91b815250604051806040016040528060038152602001622a2a2760e91b8152506112e3565b610baf611317565b610bb7611317565b610bcc6b033b2e3c9fd0803ce80000006112f5565b610bd533611306565b610bdd611317565b610be5611317565b610bef5f33610f27565b505f80558315610c3957845460ff60401b19168555604051600181527fc7f505b2f371ae2175ee4913f4499e1f2633a7b5936321eed1cdaeb6115181d29060200160405180910390a15b5050505050565b5f610c4a81610f1d565b6108436113ea565b5f9182525f516020611e705f395f51905f52602090815260408084206001600160a01b0393909316845291905290205460ff1690565b7f52c63247e1f47db19d5ce0460030c497f067ca4cebf71ba98eeadabe20bace0480546060915f516020611e105f395f51905f52916106ef90611c71565b5f3361077e818585610ec0565b5f8054610cec906b033b2e3c9fd0803ce8000000611cd0565b905090565b610cfa826107ad565b610d0381610f1d565b6107e98383610fc8565b6001600160a01b039182165f9081527f52c63247e1f47db19d5ce0460030c497f067ca4cebf71ba98eeadabe20bace016020908152604080832093909416825291909152205490565b610d5e61131f565b6001600160a01b038116610d8757604051631e4fbdf760e01b81525f60048201526024016108cd565b6108438161137a565b610d9a5f33610c52565b610db75760405163ea8e4eb560e01b815260040160405180910390fd5b6001600160a01b038116610dde5760405163e6c4247b60e01b815260040160405180910390fd5b336001600160a01b03821603610e0757604051636d6c4ee560e11b815260040160405180910390fd5b610e115f82610f27565b50610e1c5f33610fc8565b506040516001600160a01b0382169033907f0c2288020746d1d518b97303a66723e8d2a5068fa77b37854b7fdb1673b0f1e2905f90a350565b6108228383836001611432565b5f610e6d8484610d0d565b90505f198110156107e95781811015610eb257604051637dc7a0d960e11b81526001600160a01b038416600482015260248101829052604481018390526064016108cd565b6107e984848484035f611432565b6001600160a01b038316610ee957604051634b637e8f60e11b81525f60048201526024016108cd565b6001600160a01b038216610f125760405163ec442f0560e01b81525f60048201526024016108cd565b610822838383611515565b6108438133611520565b5f5f516020611e705f395f51905f52610f408484610c52565b610fbf575f848152602082815260408083206001600160a01b03871684529091529020805460ff19166001179055610f753390565b6001600160a01b0316836001600160a01b0316857f2f8788117e7eff1d82e926ec794901d17c78024a50270940304540a733656f0d60405160405180910390a460019150506106ab565b5f9150506106ab565b5f5f516020611e705f395f51905f52610fe18484610c52565b15610fbf575f848152602082815260408083206001600160a01b0387168085529252808320805460ff1916905551339287917ff6391f5c32d9c69d2a47ea670b442974b53935d1edc7fd64eb21e047a839171b9190a460019150506106ab565b611049611559565b5f516020611e905f395f51905f52805460ff191681557f5db9ee0a495bf2e6ff9c91a7834c1ba4fdd244a5e8aa4e537bd38aeae4b073aa335b6040516001600160a01b03909116815260200160405180910390a150565b6001600160a01b0382166110c95760405163ec442f0560e01b81525f60048201526024016108cd565b61091b5f8383611515565b6001600160a01b0382166110fd57604051634b637e8f60e11b81525f60048201526024016108cd565b61091b825f83611515565b306001600160a01b037f000000000000000000000000000000000000000000000000000000000000000016148061118e57507f00000000000000000000000000000000000000000000000000000000000000006001600160a01b03166111825f516020611e505f395f51905f52546001600160a01b031690565b6001600160a01b031614155b15610aae5760405163703e46dd60e11b815260040160405180910390fd5b5f61091b81610f1d565b816001600160a01b03166352d1902d6040518163ffffffff1660e01b8152600401602060405180830381865afa925050508015611210575060408051601f3d908101601f1916820190925261120d91810190611ce3565b60015b61123857604051634c9c8ce360e01b81526001600160a01b03831660048201526024016108cd565b5f516020611e505f395f51905f52811461126857604051632a87526960e21b8152600481018290526024016108cd565b6108228383611588565b306001600160a01b037f00000000000000000000000000000000000000000000000000000000000000001614610aae5760405163703e46dd60e11b815260040160405180910390fd5b5f807ff0c57e16840df040f15088dc2f81fe391c3923bec73e23a9662efc9c229c6a006106ab565b6112eb6115dd565b61091b8282611602565b6112fd6115dd565b61084381611652565b61130e6115dd565b610843816116a1565b610aae6115dd565b336113517f9016d09d72d40fdae2fd8ceac6b6234c7706214fd39c1cd1e609a0528c199300546001600160a01b031690565b6001600160a01b031614610aae5760405163118cdaa760e01b81523360048201526024016108cd565b7f9016d09d72d40fdae2fd8ceac6b6234c7706214fd39c1cd1e609a0528c19930080546001600160a01b031981166001600160a01b03848116918217845560405192169182907f8be0079c531659141344cd1fd0a4f28419497f9722a3daafe3b4186f6b6457e0905f90a3505050565b6113f26116a9565b5f516020611e905f395f51905f52805460ff191660011781557f62e78cea01bee320cd4e420270b5ea74000d11b0c9f74754ebdbfc544b05a25833611082565b5f516020611e105f395f51905f526001600160a01b0385166114695760405163e602df0560e01b81525f60048201526024016108cd565b6001600160a01b03841661149257604051634a1406b160e11b81525f60048201526024016108cd565b6001600160a01b038086165f90815260018301602090815260408083209388168352929052208390558115610c3957836001600160a01b0316856001600160a01b03167f8c5be1e5ebec7d5bd14f71427d1e84f3dd0314c0f7b2291e5b200ac8c7c3b9258560405161150691815260200190565b60405180910390a35050505050565b6108228383836116d9565b61152a8282610c52565b61091b5760405163e2517d3f60e01b81526001600160a01b0382166004820152602481018390526044016108cd565b5f516020611e905f395f51905f525460ff16610aae57604051638dfc202b60e01b815260040160405180910390fd5b61159182611760565b6040516001600160a01b038316907fbc7cd75a20ee27fd9adebab32041f755214dbc6bffa90cc0225b39da2e5c2d3b905f90a28051156115d55761082282826117c3565b61091b611835565b6115e5611854565b610aae57604051631afcd79f60e31b815260040160405180910390fd5b61160a6115dd565b5f516020611e105f395f51905f527f52c63247e1f47db19d5ce0460030c497f067ca4cebf71ba98eeadabe20bace036116438482611d3e565b50600481016107e98382611d3e565b61165a6115dd565b7f0f070392f17d5f958cc1ac31867dabecfc5c9758b4a419a200803226d7155d005f82900361169e5760405163392e1e2760e01b81525f60048201526024016108cd565b55565b610d5e6115dd565b5f516020611e905f395f51905f525460ff1615610aae5760405163d93c066560e01b815260040160405180910390fd5b6116e483838361186d565b6001600160a01b038316610822575f61171b7f0f070392f17d5f958cc1ac31867dabecfc5c9758b4a419a200803226d7155d005490565b90505f6117335f516020611e305f395f51905f525490565b905081811115610c395760405163279e7e1560e21b815260048101829052602481018390526044016108cd565b806001600160a01b03163b5f0361179557604051634c9c8ce360e01b81526001600160a01b03821660048201526024016108cd565b5f516020611e505f395f51905f5280546001600160a01b0319166001600160a01b0392909216919091179055565b60605f5f846001600160a01b0316846040516117df9190611df9565b5f60405180830381855af49150503d805f8114611817576040519150601f19603f3d011682016040523d82523d5f602084013e61181c565b606091505b509150915061182c858383611880565b95945050505050565b3415610aae5760405163b398979f60e01b815260040160405180910390fd5b5f61185d6112bb565b54600160401b900460ff16919050565b6118756116a9565b6108228383836118dc565b6060826118955761189082611a15565b6107a6565b81511580156118ac57506001600160a01b0384163b155b156118d557604051639996b31560e01b81526001600160a01b03851660048201526024016108cd565b50806107a6565b5f516020611e105f395f51905f526001600160a01b0384166119165781816002015f82825461190b9190611cbd565b909155506119869050565b6001600160a01b0384165f90815260208290526040902054828110156119685760405163391434e360e21b81526001600160a01b038616600482015260248101829052604481018490526064016108cd565b6001600160a01b0385165f9081526020839052604090209083900390555b6001600160a01b0383166119a45760028101805483900390556119c2565b6001600160a01b0383165f9081526020829052604090208054830190555b826001600160a01b0316846001600160a01b03167fddf252ad1be2c89b69c2b068fc378daa952ba7f163c4a11628f55a4df523b3ef84604051611a0791815260200190565b60405180910390a350505050565b805115611a255780518082602001fd5b60405163d6bda27560e01b815260040160405180910390fd5b5f60208284031215611a4e575f5ffd5b81356001600160e01b0319811681146107a6575f5ffd5b602081525f82518060208401528060208501604085015e5f604082850101526040601f19601f83011684010191505092915050565b80356001600160a01b0381168114611ab0575f5ffd5b919050565b5f5f60408385031215611ac6575f5ffd5b611acf83611a9a565b946020939093013593505050565b5f5f5f60608486031215611aef575f5ffd5b611af884611a9a565b9250611b0660208501611a9a565b929592945050506040919091013590565b5f60208284031215611b27575f5ffd5b5035919050565b5f5f60408385031215611b3f575f5ffd5b82359150611b4f60208401611a9a565b90509250929050565b5f60208284031215611b68575f5ffd5b6107a682611a9a565b634e487b7160e01b5f52604160045260245ffd5b5f5f60408385031215611b96575f5ffd5b611b9f83611a9a565b9150602083013567ffffffffffffffff811115611bba575f5ffd5b8301601f81018513611bca575f5ffd5b803567ffffffffffffffff811115611be457611be4611b71565b604051601f8201601f19908116603f0116810167ffffffffffffffff81118282101715611c1357611c13611b71565b604052818152828201602001871015611c2a575f5ffd5b816020840160208301375f602083830101528093505050509250929050565b5f5f60408385031215611c5a575f5ffd5b611c6383611a9a565b9150611b4f60208401611a9a565b600181811c90821680611c8557607f821691505b602082108103611ca357634e487b7160e01b5f52602260045260245ffd5b50919050565b634e487b7160e01b5f52601160045260245ffd5b808201808211156106ab576106ab611ca9565b818103818111156106ab576106ab611ca9565b5f60208284031215611cf3575f5ffd5b5051919050565b601f82111561082257805f5260205f20601f840160051c81016020851015611d1f5750805b601f840160051c820191505b81811015610c39575f8155600101611d2b565b815167ffffffffffffffff811115611d5857611d58611b71565b611d6c81611d668454611c71565b84611cfa565b6020601f821160018114611d9e575f8315611d875750848201515b5f19600385901b1c1916600184901b178455610c39565b5f84815260208120601f198516915b82811015611dcd5787850151825560209485019460019092019101611dad565b5084821015611dea57868401515f19600387901b60f8161c191681555b50505050600190811b01905550565b5f82518060208501845e5f92019182525091905056fe52c63247e1f47db19d5ce0460030c497f067ca4cebf71ba98eeadabe20bace0052c63247e1f47db19d5ce0460030c497f067ca4cebf71ba98eeadabe20bace02360894a13ba1a3210667c828492db98dca3e2076cc3735a920a3ca505d382bbc02dd7bc7dec4dceedda775e58dd541e08a116c6c53815c0bd028192f7b626800cd5ed15c6e187e77e9aee88184c21f4f2182ab5827cb3b7e07fbedcd63f03300a26469706673582212209c42091191c8e93f80ecbcc5d47f599db6c8419c1a58ae995f9a367869a4cfae64736f6c634300081c0033","linkReferences":{}},"methodIdentifiers":{"DEFAULT_ADMIN_ROLE()":"a217fddf","MAX_SUPPLY()":"32cb6b0c","UPGRADE_INTERFACE_VERSION()":"ad3cb1cc","allowance(address,address)":"dd62ed3e","approve(address,uint256)":"095ea7b3","balanceOf(address)":"70a08231","burn(uint256)":"42966c68","burnFrom(address,uint256)":"79cc6790","cap()":"355274ea","decimals()":"313ce567","getRemainingMintableTokens()":"d159df5c","getRoleAdmin(bytes32)":"248a9ca3","getTokenBalance(address)":"3aecd0e3","getTotalMinted()":"0ca1c5c9","grantRole(bytes32,address)":"2f2ff15d","hasRole(bytes32,address)":"91d14854","initialize()":"8129fc1c","initializeV2()":"5cd8a76b","mint(address,uint256)":"40c10f19","name()":"06fdde03","owner()":"8da5cb5b","pause()":"8456cb59","paused()":"5c975abb","proxiableUUID()":"52d1902d","renounceOwnership()":"715018a6","renounceRole(bytes32,address)":"36568abe","revokeRole(bytes32,address)":"d547741f","supportsInterface(bytes4)":"01ffc9a7","symbol()":"95d89b41","totalSupply()":"18160ddd","transfer(address,uint256)":"a9059cbb","transferFrom(address,address,uint256)":"23b872dd","transferOwnership(address)":"f2fde38b","transferTokenAdmin(address)":"fd7ae097","unpause()":"3f4ba83a","upgradeToAndCall(address,bytes)":"4f1ef286","version()":"54fd4d50"},"id":6}