{"abi":[{"type":"constructor","inputs":[],"stateMutability":"nonpayable"},{"type":"function","name":"DEFAULT_ADMIN_ROLE","inputs":[],"outputs":[{"name":"","type":"bytes32","internalType":"bytes32"}],"stateMutability":"view"},{"type":"function","name":"MAX_SUPPLY","inputs":[],"outputs":[{"name":"","type":"uint256","internalType":"uint256"}],"stateMutability":"view"},{"type":"function","name":"UPGRADE_INTERFACE_VERSION","inputs":[],"outputs":[{"name":"","type":"string","internalType":"string"}],"stateMutability":"view"},{"type":"function","name":"allowance","inputs":[{"name":"owner","type":"address","internalType":"address"},{"name":"spender","type":"address","internalType":"address"}],"outputs":[{"name":"","type":"uint256","internalType":"uint256"}],"stateMutability":"view"},{"type":"function","name":"approve","inputs":[{"name":"spender","type":"address","internalType":"address"},{"name":"value","type":"uint256","internalType":"uint256"}],"outputs":[{"name":"","type":"bool","internalType":"bool"}],"stateMutability":"nonpayable"},{"type":"function","name":"balanceOf","inputs":[{"name":"account","type":"address","internalType":"address"}],"outputs":[{"name":"","type":"uint256","internalType":"uint256"}],"stateMutability":"view"},{"type":"function","name":"burn","inputs":[{"name":"value","type":"uint256","internalType":"uint256"}],"outputs":[],"stateMutability":"nonpayable"},{"type":"function","name":"burnFrom","inputs":[{"name":"account","type":"address","internalType":"address"},{"name":"value","type":"uint256","internalType":"uint256"}],"outputs":[],"stateMutability":"nonpayable"},{"type":"function","name":"cap","inputs":[],"outputs":[{"name":"","type":"uint256","internalType":"uint256"}],"stateMutability":"view"},{"type":"function","name":"decimals","inputs":[],"outputs":[{"name":"","type":"uint8","internalType":"uint8"}],"stateMutability":"view"},{"type":"function","name":"getRemainingMintableTokens","inputs":[],"outputs":[{"name":"","type":"uint256","internalType":"uint256"}],"stateMutability":"view"},{"type":"function","name":"getRoleAdmin","inputs":[{"name":"role","type":"bytes32","internalType":"bytes32"}],"outputs":[{"name":"","type":"bytes32","internalType":"bytes32"}],"stateMutability":"view"},{"type":"function","name":"getTokenBalance","inputs":[{"name":"walletAddress","type":"address","internalType":"address"}],"outputs":[{"name":"","type":"uint256","internalType":"uint256"}],"stateMutability":"view"},{"type":"function","name":"getTotalMinted","inputs":[],"outputs":[{"name":"","type":"uint256","internalType":"uint256"}],"stateMutability":"view"},{"type":"function","name":"grantRole","inputs":[{"name":"role","type":"bytes32","internalType":"bytes32"},{"name":"account","type":"address","internalType":"address"}],"outputs":[],"stateMutability":"nonpayable"},{"type":"function","name":"hasRole","inputs":[{"name":"role","type":"bytes32","internalType":"bytes32"},{"name":"account","type":"address","internalType":"address"}],"outputs":[{"name":"","type":"bool","internalType":"bool"}],"stateMutability":"view"},{"type":"function","name":"initialize","inputs":[],"outputs":[],"stateMutability":"nonpayable"},{"type":"function","name":"mint","inputs":[{"name":"to","type":"address","internalType":"address"},{"name":"amount","type":"uint256","internalType":"uint256"}],"outputs":[],"stateMutability":"nonpayable"},{"type":"function","name":"name","inputs":[],"outputs":[{"name":"","type":"string","internalType":"string"}],"stateMutability":"view"},{"type":"function","name":"owner","inputs":[],"outputs":[{"name":"","type":"address","internalType":"address"}],"stateMutability":"view"},{"type":"function","name":"pause","inputs":[],"outputs":[],"stateMutability":"nonpayable"},{"type":"function","name":"paused","inputs":[],"outputs":[{"name":"","type":"bool","internalType":"bool"}],"stateMutability":"view"},{"type":"function","name":"proxiableUUID","inputs":[],"outputs":[{"name":"","type":"bytes32","internalType":"bytes32"}],"stateMutability":"view"},{"type":"function","name":"renounceOwnership","inputs":[],"outputs":[],"stateMutability":"nonpayable"},{"type":"function","name":"renounceRole","inputs":[{"name":"role","type":"bytes32","internalType":"bytes32"},{"name":"callerConfirmation","type":"address","internalType":"address"}],"outputs":[],"stateMutability":"nonpayable"},{"type":"function","name":"revokeRole","inputs":[{"name":"role","type":"bytes32","internalType":"bytes32"},{"name":"account","type":"address","internalType":"address"}],"outputs":[],"stateMutability":"nonpayable"},{"type":"function","name":"supportsInterface","inputs":[{"name":"interfaceId","type":"bytes4","internalType":"bytes4"}],"outputs":[{"name":"","type":"bool","internalType":"bool"}],"stateMutability":"view"},{"type":"function","name":"symbol","inputs":[],"outputs":[{"name":"","type":"string","internalType":"string"}],"stateMutability":"view"},{"type":"function","name":"totalSupply","inputs":[],"outputs":[{"name":"","type":"uint256","internalType":"uint256"}],"stateMutability":"view"},{"type":"function","name":"transfer","inputs":[{"name":"to","type":"address","internalType":"address"},{"name":"value","type":"uint256","internalType":"uint256"}],"outputs":[{"name":"","type":"bool","internalType":"bool"}],"stateMutability":"nonpayable"},{"type":"function","name":"transferFrom","inputs":[{"name":"from","type":"address","internalType":"address"},{"name":"to","type":"address","internalType":"address"},{"name":"value","type":"uint256","internalType":"uint256"}],"outputs":[{"name":"","type":"bool","internalType":"bool"}],"stateMutability":"nonpayable"},{"type":"function","name":"transferOwnership","inputs":[{"name":"newOwner","type":"address","internalType":"address"}],"outputs":[],"stateMutability":"nonpayable"},{"type":"function","name":"transferTokenAdmin","inputs":[{"name":"newAdmin","type":"address","internalType":"address"}],"outputs":[],"stateMutability":"nonpayable"},{"type":"function","name":"unpause","inputs":[],"outputs":[],"stateMutability":"nonpayable"},{"type":"function","name":"upgradeToAndCall","inputs":[{"name":"newImplementation","type":"address","internalType":"address"},{"name":"data","type":"bytes","internalType":"bytes"}],"outputs":[],"stateMutability":"payable"},{"type":"event","name":"Approval","inputs":[{"name":"owner","type":"address","indexed":true,"internalType":"address"},{"name":"spender","type":"address","indexed":true,"internalType":"address"},{"name":"value","type":"uint256","indexed":false,"internalType":"uint256"}],"anonymous":false},{"type":"event","name":"DefaultAdminTransferred","inputs":[{"name":"previousAdmin","type":"address","indexed":true,"internalType":"address"},{"name":"newAdmin","type":"address","indexed":true,"internalType":"address"}],"anonymous":false},{"type":"event","name":"Initialized","inputs":[{"name":"version","type":"uint64","indexed":false,"internalType":"uint64"}],"anonymous":false},{"type":"event","name":"OwnershipTransferred","inputs":[{"name":"previousOwner","type":"address","indexed":true,"internalType":"address"},{"name":"newOwner","type":"address","indexed":true,"internalType":"address"}],"anonymous":false},{"type":"event","name":"Paused","inputs":[{"name":"account","type":"address","indexed":false,"internalType":"address"}],"anonymous":false},{"type":"event","name":"RoleAdminChanged","inputs":[{"name":"role","type":"bytes32","indexed":true,"internalType":"bytes32"},{"name":"previousAdminRole","type":"bytes32","indexed":true,"internalType":"bytes32"},{"name":"newAdminRole","type":"bytes32","indexed":true,"internalType":"bytes32"}],"anonymous":false},{"type":"event","name":"RoleGranted","inputs":[{"name":"role","type":"bytes32","indexed":true,"internalType":"bytes32"},{"name":"account","type":"address","indexed":true,"internalType":"address"},{"name":"sender","type":"address","indexed":true,"internalType":"address"}],"anonymous":false},{"type":"event","name":"RoleRevoked","inputs":[{"name":"role","type":"bytes32","indexed":true,"internalType":"bytes32"},{"name":"account","type":"address","indexed":true,"internalType":"address"},{"name":"sender","type":"address","indexed":true,"internalType":"address"}],"anonymous":false},{"type":"event","name":"Transfer","inputs":[{"name":"from","type":"address","indexed":true,"internalType":"address"},{"name":"to","type":"address","indexed":true,"internalType":"address"},{"name":"value","type":"uint256","indexed":false,"internalType":"uint256"}],"anonymous":false},{"type":"event","name":"Unpaused","inputs":[{"name":"account","type":"address","indexed":false,"internalType":"address"}],"anonymous":false},{"type":"event","name":"Upgraded","inputs":[{"name":"implementation","type":"address","indexed":true,"internalType":"address"}],"anonymous":false},{"type":"error","name":"AccessControlBadConfirmation","inputs":[]},{"type":"error","name":"AccessControlUnauthorizedAccount","inputs":[{"name":"account","type":"address","internalType":"address"},{"name":"neededRole","type":"bytes32","internalType":"bytes32"}]},{"type":"error","name":"AddressEmptyCode","inputs":[{"name":"target","type":"address","internalType":"address"}]},{"type":"error","name":"AdminRoleGrantingDisabled","inputs":[]},{"type":"error","name":"CannotTransferToSelf","inputs":[]},{"type":"error","name":"ERC1967InvalidImplementation","inputs":[{"name":"implementation","type":"address","internalType":"address"}]},{"type":"error","name":"ERC1967NonPayable","inputs":[]},{"type":"error","name":"ERC20ExceededCap","inputs":[{"name":"increasedSupply","type":"uint256","internalType":"uint256"},{"name":"cap","type":"uint256","internalType":"uint256"}]},{"type":"error","name":"ERC20InsufficientAllowance","inputs":[{"name":"spender","type":"address","internalType":"address"},{"name":"allowance","type":"uint256","internalType":"uint256"},{"name":"needed","type":"uint256","internalType":"uint256"}]},{"type":"error","name":"ERC20InsufficientBalance","inputs":[{"name":"sender","type":"address","internalType":"address"},{"name":"balance","type":"uint256","internalType":"uint256"},{"name":"needed","type":"uint256","internalType":"uint256"}]},{"type":"error","name":"ERC20InvalidApprover","inputs":[{"name":"approver","type":"address","internalType":"address"}]},{"type":"error","name":"ERC20InvalidCap","inputs":[{"name":"cap","type":"uint256","internalType":"uint256"}]},{"type":"error","name":"ERC20InvalidReceiver","inputs":[{"name":"receiver","type":"address","internalType":"address"}]},{"type":"error","name":"ERC20InvalidSender","inputs":[{"name":"sender","type":"address","internalType":"address"}]},{"type":"error","name":"ERC20InvalidSpender","inputs":[{"name":"spender","type":"address","internalType":"address"}]},{"type":"error","name":"EnforcedPause","inputs":[]},{"type":"error","name":"ExpectedPause","inputs":[]},{"type":"error","name":"FailedCall","inputs":[]},{"type":"error","name":"InvalidAddress","inputs":[]},{"type":"error","name":"InvalidAmount","inputs":[]},{"type":"error","name":"InvalidInitialization","inputs":[]},{"type":"error","name":"MaxSupplyExceeded","inputs":[{"name":"requested","type":"uint256","internalType":"uint256"},{"name":"available","type":"uint256","internalType":"uint256"}]},{"type":"error","name":"NotAuthorized","inputs":[]},{"type":"error","name":"NotInitializing","inputs":[]},{"type":"error","name":"OwnableInvalidOwner","inputs":[{"name":"owner","type":"address","internalType":"address"}]},{"type":"error","name":"OwnableUnauthorizedAccount","inputs":[{"name":"account","type":"address","internalType":"address"}]},{"type":"error","name":"UUPSUnauthorizedCallContext","inputs":[]},{"type":"error","name":"UUPSUnsupportedProxiableUUID","inputs":[{"name":"slot","type":"bytes32","internalType":"bytes32"}]}],"bytecode":{"object":"0x60a060405230608052348015610013575f5ffd5b5061001c610021565b6100d3565b7ff0c57e16840df040f15088dc2f81fe391c3923bec73e23a9662efc9c229c6a00805468010000000000000000900460ff16156100715760405163f92ee8a960e01b815260040160405180910390fd5b80546001600160401b03908116146100d05780546001600160401b0319166001600160401b0390811782556040519081527fc7f505b2f371ae2175ee4913f4499e1f2633a7b5936321eed1cdaeb6115181d29060200160405180910390a15b50565b608051611d696100f95f395f8181610f9701528181610fc001526111010152611d695ff3fe6080604052600436106101fc575f3560e01c806352d1902d1161011357806395d89b411161009d578063d159df5c1161006d578063d159df5c146105ac578063d547741f146105c0578063dd62ed3e146105df578063f2fde38b146105fe578063fd7ae0971461061d575f5ffd5b806395d89b4114610536578063a217fddf1461054a578063a9059cbb1461055d578063ad3cb1cc1461057c575f5ffd5b806379cc6790116100e357806379cc67901461048a5780638129fc1c146104a95780638456cb59146104bd5780638da5cb5b146104d157806391d1485414610517575f5ffd5b806352d1902d146104205780635c975abb1461043457806370a0823114610457578063715018a614610476575f5ffd5b8063313ce567116101945780633aecd0e3116101645780633aecd0e31461039c5780633f4ba83a146103bb57806340c10f19146103cf57806342966c68146103ee5780634f1ef2861461040d575f5ffd5b8063313ce5671461031057806332cb6b0c1461032b578063355274ea1461034a57806336568abe1461037d575f5ffd5b806318160ddd116101cf57806318160ddd1461029157806323b872dd146102b1578063248a9ca3146102d05780632f2ff15d146102ef575f5ffd5b806301ffc9a71461020057806306fdde0314610234578063095ea7b3146102555780630ca1c5c914610274575b5f5ffd5b34801561020b575f5ffd5b5061021f61021a3660046118c2565b61063c565b60405190151581526020015b60405180910390f35b34801561023f575f5ffd5b50610248610672565b60405161022b91906118e9565b348015610260575f5ffd5b5061021f61026f366004611939565b610732565b34801561027f575f5ffd5b505f545b60405190815260200161022b565b34801561029c575f5ffd5b505f516020611cb45f395f51905f5254610283565b3480156102bc575f5ffd5b5061021f6102cb366004611961565b610749565b3480156102db575f5ffd5b506102836102ea36600461199b565b61076e565b3480156102fa575f5ffd5b5061030e6103093660046119b2565b61078e565b005b34801561031b575f5ffd5b506040516012815260200161022b565b348015610336575f5ffd5b506102836b033b2e3c9fd0803ce800000081565b348015610355575f5ffd5b507f0f070392f17d5f958cc1ac31867dabecfc5c9758b4a419a200803226d7155d0054610283565b348015610388575f5ffd5b5061030e6103973660046119b2565b6107b0565b3480156103a7575f5ffd5b506102836103b63660046119dc565b6107e8565b3480156103c6575f5ffd5b5061030e6107f2565b3480156103da575f5ffd5b5061030e6103e9366004611939565b610807565b3480156103f9575f5ffd5b5061030e61040836600461199b565b6108b7565b61030e61041b366004611a09565b6108c1565b34801561042b575f5ffd5b506102836108e0565b34801561043f575f5ffd5b505f516020611d145f395f51905f525460ff1661021f565b348015610462575f5ffd5b506102836104713660046119dc565b6108fb565b348015610481575f5ffd5b5061030e610921565b348015610495575f5ffd5b5061030e6104a4366004611939565b610934565b3480156104b4575f5ffd5b5061030e610949565b3480156104c8575f5ffd5b5061030e610ac4565b3480156104dc575f5ffd5b507f9016d09d72d40fdae2fd8ceac6b6234c7706214fd39c1cd1e609a0528c199300546040516001600160a01b03909116815260200161022b565b348015610522575f5ffd5b5061021f6105313660046119b2565b610ad6565b348015610541575f5ffd5b50610248610b0c565b348015610555575f5ffd5b506102835f81565b348015610568575f5ffd5b5061021f610577366004611939565b610b4a565b348015610587575f5ffd5b50610248604051806040016040528060058152602001640352e302e360dc1b81525081565b3480156105b7575f5ffd5b50610283610b57565b3480156105cb575f5ffd5b5061030e6105da3660046119b2565b610b75565b3480156105ea575f5ffd5b506102836105f9366004611acd565b610b91565b348015610609575f5ffd5b5061030e6106183660046119dc565b610bda565b348015610628575f5ffd5b5061030e6106373660046119dc565b610c14565b5f6001600160e01b03198216637965db0b60e01b148061066c57506301ffc9a760e01b6001600160e01b03198316145b92915050565b7f52c63247e1f47db19d5ce0460030c497f067ca4cebf71ba98eeadabe20bace0380546060915f516020611c945f395f51905f52916106b090611af5565b80601f01602080910402602001604051908101604052809291908181526020018280546106dc90611af5565b80156107275780601f106106fe57610100808354040283529160200191610727565b820191905f5260205f20905b81548152906001019060200180831161070a57829003601f168201915b505050505091505090565b5f3361073f818585610cd9565b5060019392505050565b5f33610756858285610ce6565b610761858585610d44565b60019150505b9392505050565b5f9081525f516020611cf45f395f51905f52602052604090206001015490565b6107978261076e565b6107a081610da1565b6107aa8383610dab565b50505050565b6001600160a01b03811633146107d95760405163334bd91960e11b815260040160405180910390fd5b6107e38282610e4c565b505050565b5f61066c826108fb565b5f6107fc81610da1565b610804610ec5565b50565b5f61081181610da1565b6b033b2e3c9fd0803ce8000000826108345f516020611cb45f395f51905f525490565b61083e9190611b41565b1115610897578161085a5f516020611cb45f395f51905f525490565b610870906b033b2e3c9fd0803ce8000000611b54565b604051637502c12360e11b8152600481019290925260248201526044015b60405180910390fd5b815f5f8282546108a79190611b41565b909155506107e390508383610f24565b6108043382610f58565b6108c9610f8c565b6108d282611030565b6108dc828261103a565b5050565b5f6108e96110f6565b505f516020611cd45f395f51905f5290565b6001600160a01b03165f9081525f516020611c945f395f51905f52602052604090205490565b61092961113f565b6109325f61119a565b565b61093f823383610ce6565b6108dc8282610f58565b5f61095261120a565b805490915060ff600160401b820416159067ffffffffffffffff165f811580156109795750825b90505f8267ffffffffffffffff1660011480156109955750303b155b9050811580156109a3575080155b156109c15760405163f92ee8a960e01b815260040160405180910390fd5b845467ffffffffffffffff1916600117855583156109eb57845460ff60401b1916600160401b1785555b610a2b604051806040016040528060038152602001622a2a2760e91b815250604051806040016040528060038152602001622a2a2760e91b815250611232565b610a33611244565b610a3b611244565b610a506b033b2e3c9fd0803ce800000061124c565b610a593361125d565b610a61611244565b610a69611244565b610a735f33610dab565b505f80558315610abd57845460ff60401b19168555604051600181527fc7f505b2f371ae2175ee4913f4499e1f2633a7b5936321eed1cdaeb6115181d29060200160405180910390a15b5050505050565b5f610ace81610da1565b61080461126e565b5f9182525f516020611cf45f395f51905f52602090815260408084206001600160a01b0393909316845291905290205460ff1690565b7f52c63247e1f47db19d5ce0460030c497f067ca4cebf71ba98eeadabe20bace0480546060915f516020611c945f395f51905f52916106b090611af5565b5f3361073f818585610d44565b5f8054610b70906b033b2e3c9fd0803ce8000000611b54565b905090565b610b7e8261076e565b610b8781610da1565b6107aa8383610e4c565b6001600160a01b039182165f9081527f52c63247e1f47db19d5ce0460030c497f067ca4cebf71ba98eeadabe20bace016020908152604080832093909416825291909152205490565b610be261113f565b6001600160a01b038116610c0b57604051631e4fbdf760e01b81525f600482015260240161088e565b6108048161119a565b610c1e5f33610ad6565b610c3b5760405163ea8e4eb560e01b815260040160405180910390fd5b6001600160a01b038116610c625760405163e6c4247b60e01b815260040160405180910390fd5b336001600160a01b03821603610c8b57604051636d6c4ee560e11b815260040160405180910390fd5b610c955f82610dab565b50610ca05f33610e4c565b506040516001600160a01b0382169033907f0c2288020746d1d518b97303a66723e8d2a5068fa77b37854b7fdb1673b0f1e2905f90a350565b6107e383838360016112b6565b5f610cf18484610b91565b90505f198110156107aa5781811015610d3657604051637dc7a0d960e11b81526001600160a01b0384166004820152602481018290526044810183905260640161088e565b6107aa84848484035f6112b6565b6001600160a01b038316610d6d57604051634b637e8f60e11b81525f600482015260240161088e565b6001600160a01b038216610d965760405163ec442f0560e01b81525f600482015260240161088e565b6107e3838383611399565b61080481336113a4565b5f5f516020611cf45f395f51905f52610dc48484610ad6565b610e43575f848152602082815260408083206001600160a01b03871684529091529020805460ff19166001179055610df93390565b6001600160a01b0316836001600160a01b0316857f2f8788117e7eff1d82e926ec794901d17c78024a50270940304540a733656f0d60405160405180910390a4600191505061066c565b5f91505061066c565b5f5f516020611cf45f395f51905f52610e658484610ad6565b15610e43575f848152602082815260408083206001600160a01b0387168085529252808320805460ff1916905551339287917ff6391f5c32d9c69d2a47ea670b442974b53935d1edc7fd64eb21e047a839171b9190a4600191505061066c565b610ecd6113dd565b5f516020611d145f395f51905f52805460ff191681557f5db9ee0a495bf2e6ff9c91a7834c1ba4fdd244a5e8aa4e537bd38aeae4b073aa335b6040516001600160a01b03909116815260200160405180910390a150565b6001600160a01b038216610f4d5760405163ec442f0560e01b81525f600482015260240161088e565b6108dc5f8383611399565b6001600160a01b038216610f8157604051634b637e8f60e11b81525f600482015260240161088e565b6108dc825f83611399565b306001600160a01b037f000000000000000000000000000000000000000000000000000000000000000016148061101257507f00000000000000000000000000000000000000000000000000000000000000006001600160a01b03166110065f516020611cd45f395f51905f52546001600160a01b031690565b6001600160a01b031614155b156109325760405163703e46dd60e11b815260040160405180910390fd5b5f6108dc81610da1565b816001600160a01b03166352d1902d6040518163ffffffff1660e01b8152600401602060405180830381865afa925050508015611094575060408051601f3d908101601f1916820190925261109191810190611b67565b60015b6110bc57604051634c9c8ce360e01b81526001600160a01b038316600482015260240161088e565b5f516020611cd45f395f51905f5281146110ec57604051632a87526960e21b81526004810182905260240161088e565b6107e3838361140c565b306001600160a01b037f000000000000000000000000000000000000000000000000000000000000000016146109325760405163703e46dd60e11b815260040160405180910390fd5b336111717f9016d09d72d40fdae2fd8ceac6b6234c7706214fd39c1cd1e609a0528c199300546001600160a01b031690565b6001600160a01b0316146109325760405163118cdaa760e01b815233600482015260240161088e565b7f9016d09d72d40fdae2fd8ceac6b6234c7706214fd39c1cd1e609a0528c19930080546001600160a01b031981166001600160a01b03848116918217845560405192169182907f8be0079c531659141344cd1fd0a4f28419497f9722a3daafe3b4186f6b6457e0905f90a3505050565b5f807ff0c57e16840df040f15088dc2f81fe391c3923bec73e23a9662efc9c229c6a0061066c565b61123a611461565b6108dc8282611486565b610932611461565b611254611461565b610804816114d6565b611265611461565b61080481611525565b61127661152d565b5f516020611d145f395f51905f52805460ff191660011781557f62e78cea01bee320cd4e420270b5ea74000d11b0c9f74754ebdbfc544b05a25833610f06565b5f516020611c945f395f51905f526001600160a01b0385166112ed5760405163e602df0560e01b81525f600482015260240161088e565b6001600160a01b03841661131657604051634a1406b160e11b81525f600482015260240161088e565b6001600160a01b038086165f90815260018301602090815260408083209388168352929052208390558115610abd57836001600160a01b0316856001600160a01b03167f8c5be1e5ebec7d5bd14f71427d1e84f3dd0314c0f7b2291e5b200ac8c7c3b9258560405161138a91815260200190565b60405180910390a35050505050565b6107e383838361155d565b6113ae8282610ad6565b6108dc5760405163e2517d3f60e01b81526001600160a01b03821660048201526024810183905260440161088e565b5f516020611d145f395f51905f525460ff1661093257604051638dfc202b60e01b815260040160405180910390fd5b611415826115e4565b6040516001600160a01b038316907fbc7cd75a20ee27fd9adebab32041f755214dbc6bffa90cc0225b39da2e5c2d3b905f90a2805115611459576107e38282611647565b6108dc6116b9565b6114696116d8565b61093257604051631afcd79f60e31b815260040160405180910390fd5b61148e611461565b5f516020611c945f395f51905f527f52c63247e1f47db19d5ce0460030c497f067ca4cebf71ba98eeadabe20bace036114c78482611bc2565b50600481016107aa8382611bc2565b6114de611461565b7f0f070392f17d5f958cc1ac31867dabecfc5c9758b4a419a200803226d7155d005f8290036115225760405163392e1e2760e01b81525f600482015260240161088e565b55565b610be2611461565b5f516020611d145f395f51905f525460ff16156109325760405163d93c066560e01b815260040160405180910390fd5b6115688383836116f1565b6001600160a01b0383166107e3575f61159f7f0f070392f17d5f958cc1ac31867dabecfc5c9758b4a419a200803226d7155d005490565b90505f6115b75f516020611cb45f395f51905f525490565b905081811115610abd5760405163279e7e1560e21b8152600481018290526024810183905260440161088e565b806001600160a01b03163b5f0361161957604051634c9c8ce360e01b81526001600160a01b038216600482015260240161088e565b5f516020611cd45f395f51905f5280546001600160a01b0319166001600160a01b0392909216919091179055565b60605f5f846001600160a01b0316846040516116639190611c7d565b5f60405180830381855af49150503d805f811461169b576040519150601f19603f3d011682016040523d82523d5f602084013e6116a0565b606091505b50915091506116b0858383611704565b95945050505050565b34156109325760405163b398979f60e01b815260040160405180910390fd5b5f6116e161120a565b54600160401b900460ff16919050565b6116f961152d565b6107e3838383611760565b6060826117195761171482611899565b610767565b815115801561173057506001600160a01b0384163b155b1561175957604051639996b31560e01b81526001600160a01b038516600482015260240161088e565b5080610767565b5f516020611c945f395f51905f526001600160a01b03841661179a5781816002015f82825461178f9190611b41565b9091555061180a9050565b6001600160a01b0384165f90815260208290526040902054828110156117ec5760405163391434e360e21b81526001600160a01b0386166004820152602481018290526044810184905260640161088e565b6001600160a01b0385165f9081526020839052604090209083900390555b6001600160a01b038316611828576002810180548390039055611846565b6001600160a01b0383165f9081526020829052604090208054830190555b826001600160a01b0316846001600160a01b03167fddf252ad1be2c89b69c2b068fc378daa952ba7f163c4a11628f55a4df523b3ef8460405161188b91815260200190565b60405180910390a350505050565b8051156118a95780518082602001fd5b60405163d6bda27560e01b815260040160405180910390fd5b5f602082840312156118d2575f5ffd5b81356001600160e01b031981168114610767575f5ffd5b602081525f82518060208401528060208501604085015e5f604082850101526040601f19601f83011684010191505092915050565b80356001600160a01b0381168114611934575f5ffd5b919050565b5f5f6040838503121561194a575f5ffd5b6119538361191e565b946020939093013593505050565b5f5f5f60608486031215611973575f5ffd5b61197c8461191e565b925061198a6020850161191e565b929592945050506040919091013590565b5f602082840312156119ab575f5ffd5b5035919050565b5f5f604083850312156119c3575f5ffd5b823591506119d36020840161191e565b90509250929050565b5f602082840312156119ec575f5ffd5b6107678261191e565b634e487b7160e01b5f52604160045260245ffd5b5f5f60408385031215611a1a575f5ffd5b611a238361191e565b9150602083013567ffffffffffffffff811115611a3e575f5ffd5b8301601f81018513611a4e575f5ffd5b803567ffffffffffffffff811115611a6857611a686119f5565b604051601f8201601f19908116603f0116810167ffffffffffffffff81118282101715611a9757611a976119f5565b604052818152828201602001871015611aae575f5ffd5b816020840160208301375f602083830101528093505050509250929050565b5f5f60408385031215611ade575f5ffd5b611ae78361191e565b91506119d36020840161191e565b600181811c90821680611b0957607f821691505b602082108103611b2757634e487b7160e01b5f52602260045260245ffd5b50919050565b634e487b7160e01b5f52601160045260245ffd5b8082018082111561066c5761066c611b2d565b8181038181111561066c5761066c611b2d565b5f60208284031215611b77575f5ffd5b5051919050565b601f8211156107e357805f5260205f20601f840160051c81016020851015611ba35750805b601f840160051c820191505b81811015610abd575f8155600101611baf565b815167ffffffffffffffff811115611bdc57611bdc6119f5565b611bf081611bea8454611af5565b84611b7e565b6020601f821160018114611c22575f8315611c0b5750848201515b5f19600385901b1c1916600184901b178455610abd565b5f84815260208120601f198516915b82811015611c515787850151825560209485019460019092019101611c31565b5084821015611c6e57868401515f19600387901b60f8161c191681555b50505050600190811b01905550565b5f82518060208501845e5f92019182525091905056fe52c63247e1f47db19d5ce0460030c497f067ca4cebf71ba98eeadabe20bace0052c63247e1f47db19d5ce0460030c497f067ca4cebf71ba98eeadabe20bace02360894a13ba1a3210667c828492db98dca3e2076cc3735a920a3ca505d382bbc02dd7bc7dec4dceedda775e58dd541e08a116c6c53815c0bd028192f7b626800cd5ed15c6e187e77e9aee88184c21f4f2182ab5827cb3b7e07fbedcd63f03300a26469706673582212208d6473988e0b225cd9e9041d0f6370b22e6cd0b307409beb5fafd4a5022567b664736f6c634300081c0033","linkReferences":{}},"methodIdentifiers":{"DEFAULT_ADMIN_ROLE()":"a217fddf","MAX_SUPPLY()":"32cb6b0c","UPGRADE_INTERFACE_VERSION()":"ad3cb1cc","allowance(address,address)":"dd62ed3e","approve(address,uint256)":"095ea7b3","balanceOf(address)":"70a08231","burn(uint256)":"42966c68","burnFrom(address,uint256)":"79cc6790","cap()":"355274ea","decimals()":"313ce567","getRemainingMintableTokens()":"d159df5c","getRoleAdmin(bytes32)":"248a9ca3","getTokenBalance(address)":"3aecd0e3","getTotalMinted()":"0ca1c5c9","grantRole(bytes32,address)":"2f2ff15d","hasRole(bytes32,address)":"91d14854","initialize()":"8129fc1c","mint(address,uint256)":"40c10f19","name()":"06fdde03","owner()":"8da5cb5b","pause()":"8456cb59","paused()":"5c975abb","proxiableUUID()":"52d1902d","renounceOwnership()":"715018a6","renounceRole(bytes32,address)":"36568abe","revokeRole(bytes32,address)":"d547741f","supportsInterface(bytes4)":"01ffc9a7","symbol()":"95d89b41","totalSupply()":"18160ddd","transfer(address,uint256)":"a9059cbb","transferFrom(address,address,uint256)":"23b872dd","transferOwnership(address)":"f2fde38b","transferTokenAdmin(address)":"fd7ae097","unpause()":"3f4ba83a","upgradeToAndCall(address,bytes)":"4f1ef286"},"id":0}